:020000040800F2
:1000000000400020C10B0008050C0008050C00088A
:1000100000000000000000000000000000000000E0
:10002000000000000000000000000000050C0008B7
:100030000000000000000000050C0008C9020008D4
:10004000050C0008050C00085D0B0008050C0008F5
:10005000050C0008050C0008050C0008950B0008AD
:10006000050C0008050C0008050C0008050C00082C
:10007000050C0008050C0008050C0008050C00081C
:10008000050C0008050C0008050C0008050C00080C
:10009000050C0008050C0008050C0008050C0008FC
:1000A000050C0008050C0008050C0008050C0008EC
:1000B000050C0008050C0008050C0008050C0008DC
:1000C0005FF808F1B0B582B000AF021C3960FB1DCB
:1000D0001A70FB1D1B787F2B32D93049FB1D1B7812
:1000E0001A1C0F231340083B98082C4AFB1D1B7851
:1000F0001C1C0F232340083B9B0806339B00D3188E
:100100005B68FA1D1278141C03222240D200FF24DF
:10011000251C95402A1CD2431A403B689C01FF23B2
:100120001C40FB1D1B781D1C03232B40DB00251CE2
:100130009D402B1C1A43831D9B00CB185A6029E05D
:10014000174BFA1D127852B292081549F81D007823
:1001500040B28008C03080004158F81D0078041C6F
:1001600003202040C000FF24251C8540281CC043DC
:10017000084039688C01FF210C40F91D09780D1CDD
:1001800003212940C900251C8D40291C0143C03290
:100190009200D150BD4602B0B0BDC04600ED00E0B7
:1001A00000E100E080B582B000AF78607A680E4B65
:1001B0009A4201D9012312E00C4B7A681202120A0A
:1001C000013A5A6001235B42181C0321FFF77AFFB2
:1001D000064B00229A60054B07221A600023181C68
:1001E000BD4602B080BDC046FFFFFF0010E000E04A
:1001F00090B585B000AF7860144B7A681A60C0463D
:10020000134B1C681348796802F0E8FD031C201C9E
:10021000191C02F0E3FD031C181CFFF7C3FF031CAD
:10022000002BEDD13B1C0C33FF221A703B1C0C330E
:1002300000225A703B1C0C3301229A703B1C0C3379
:10024000181C02F075FDBD4605B090BDC808002021
:100250001000002040420F0080B500AF054B1B6826
:10026000002B04D0034B1B685A1E024B1A60BD467C
:1002700080BDC046C408002080B500AF084B1B6895
:10028000FA229000191C02F0A9FD031C1A1C054B50
:100290001A60C046034B1B68002BFBD1BD4680BDD6
:1002A000C8080020C408002080B582B000AF786084
:1002B00001E0FFF7E1FF7B685A1E7A60002BF8D15E
:1002C000BD4602B080BDC04680B500AFFFF7C4FF99
:1002D000174B1B685A1C164B1A60164B1A68164BA4
:1002E0001B68D218134B1A60124B1A68FA239B0032
:1002F0009A421BD9114B1B685A1C104B1A600D4BAC
:100300001B680F495A180B4B1A600C4B1A68FA23DA
:100310009B009A420AD90B4B1B685A1C094B1A6066
:10032000064B1B6806495A18044B1A60BD4680BD2F
:100330001C09002010090020C8080020180900200E
:1003400018FCFFFF1409002080B582B000AF786070
:100350000A4B0A4A126A01218A431A62074B074A6A
:10036000126A04218A431A62044B044A116A7A68A9
:100370000A431A62BD4602B080BDC046001002406A
:1003800080B588B000AF78600023FB610023BB61BB
:1003900000237B6100233B610023FB60894B5A688B
:1003A0000C231340FB61FB69042B0CD002D8002BFB
:1003B00005D039E0082B0AD00C2B31D034E07B6813
:1003C000814A1A6034E07B687F4A1A6030E07D4BD6
:1003D0005A68F0239B031340BB617A4B5A68C023D1
:1003E0005B0213407B61BB699B0C0233BB617B6981
:1003F000002B05D1BB69754A5A437B681A6017E028
:10040000704BDA6A0F23134001333B616E48396940
:1004100002F0E4FC031CBA695A437B681A6007E0E7
:100420007B686B4A1A6003E07B68674A1A60C046C3
:10043000644B5A68F0231340FB61FB691B09FB61A5
:10044000644AFB69D3181B78DBB2FB607B681A68CF
:10045000FB68DA407B685A605A4B5A68E023DB003D
:100460001340FB61FB691B0AFB615A4AFB69D31805
:100470001B78DBB2FB607B685A68FB68DA407B68FC
:100480009A60504B1A6B80235B00134003D17B684A
:10049000514ADA6010E04B4B5A688023DB0113406D
:1004A00005D17B689B685A087B68DA6004E07B684A
:1004B0009B689A087B68DA60424B1A6B40231340B2
:1004C00003D17B68454A1A6103E07B6880221202EF
:1004D0001A613C4B1A6B1023134003D17B683A4AD4
:1004E0005A6103E07B681A687B685A61354B1A6B66
:1004F0000323134004D17B689A687B689A611EE0ED
:10050000304B1A6B03231340012B04D17B681A680C
:100510007B689A6113E02B4B1A6B03231340022B69
:1005200004D17B68802212029A6108E0254B1A6B85
:1005300003231340032B02D17B68234A9A61214B8A
:100540001A6BC0239B02134004D17B689A687B68B6
:10055000DA6127E01B4B1A6BC0239B021A408023F1
:100560005B029A4204D17B681A687B68DA6119E001
:10057000144B1A6BC0239B021A4080239B029A42A1
:1005800004D17B6880221202DA610BE00D4B1A6BFA
:10059000C0239B021A40C0239B029A4202D17B686F
:1005A000094ADA61074B1A6B8023134003D17B6839
:1005B000074A1A6203E07B681A687B681A62BD46C4
:1005C00008B080BD0010024000127A0000093D0012
:1005D000006CDC0200000020809FD500128000002B
:1005E00080B582B000AF7860044B044A116A7A6823
:1005F0000A431A62BD4602B080BDC04600100240E8
:1006000080B582B000AF021CFB1D1A70FB1D1B7869
:10061000002B07D0084B084A126A802109020A43BE
:100620001A6205E0044B044A116A044A0A401A623D
:10063000BD4602B080BDC04600100240FF7FFFFFF4
:1006400080B582B000AF78600A1CFB1C1A70FB1CDE
:100650001B78002B06D0084B074A51697A680A4379
:100660005A6106E0044B044A52697968C9430A405A
:100670005A61BD4602B080BD0010024080B582B014
:1006800000AF78600A1CFB1C1A70FB1C1B78002B47
:1006900006D0084B074A91697A680A439A6106E0D6
:1006A000044B044A92697968C9430A409A61BD467D
:1006B00002B080BD0010024080B582B000AF78600B
:1006C0000A1CFB1C1A70FB1C1B78002B06D0084B65
:1006D000074AD1697A680A43DA6106E0044B044AA2
:1006E000D2697968C9430A40DA61BD4602B080BD6B
:1006F0000010024080B586B000AF021CFB1D1A70CE
:100700000023FB6000237B613B1C133300221A7023
:10071000FB1D1B785B09DBB2FB60FB68002B03D180
:10072000174B1B687B6110E0FB68012B03D1144B56
:100730001B6A7B6109E0FB68022B03D1104B5B6AEB
:100740007B6102E00E4B5B6B7B61FB1D1A781F2304
:100750001340FB60FB687A69DA400123134004D040
:100760003B1C133301221A7003E03B1C133300229D
:100770001A703B1C13331B78181CBD4606B080BD95
:100780000010024080B500AF044B044A526A802139
:1007900049040A435A62BD4680BDC046001002406B
:1007A00080B588B000AF8023DB02181C0121FFF761
:1007B00047FF8023DB01181C0121FFF75FFF3B1C73
:1007C0001833C0221A603B1C183302221A713B1CDA
:1007D000183300229A713B1C183303225A713B1CB8
:1007E00018330122DA711C4A3B1C1833101C191CE7
:1007F00000F054FE184B181C0621002200F006FFE2
:10080000154B181C0721002200F000FF3B1CE122C1
:1008100052021A603B1C00225A603B1C00229A6064
:100820003B1C0022DA603B1C00225A613B1C0C225C
:100830001A610A4A3B1C101C191C01F0F5FB074BFE
:10084000181C012101F0AAFCFA239B00181CFFF7D9
:100850002BFDBD4608B080BD0004004800380140B3
:1008600090B587B000AF786000237B613B1C0C33F0
:1008700000221A603B1C0C3300225A602EE001E07B
:1008800000F088F8274B181C202101F0C5FC031C40
:10089000002BF5D07C69631C7B61224B181C01F096
:1008A000ADFC031C191C3B1C0C33A200D1507B690E
:1008B0005A1E3B1C0C339200D3582F2B07D97B694F
:1008C0005A1E3B1C0C339200D358392B06D9164BB9
:1008D000181C02F0D3FA7B69013B7B617B69012B19
:1008E000CDD93B1C0C3359683B1C0C331A68131CC4
:1008F0009B009B185B00CB180C4A9B187B617A69A4
:100900007B689A4207D90A4A7B68101C191C02F0BE
:10091000B5FAFF2301E07B69DBB2181CBD4607B0C6
:1009200090BDC04600380140CC9B0008F0FDFFFFA1
:10093000FC9B000880B582B000AF021CBB1D1A8072
:10094000034BBA1D12881A60BD4602B080BDC04676
:100950000030004080B582B000AF021CFB1D1A7051
:10096000034BFA1D12785A60BD4602B080BDC046E6
:100970000030004080B582B000AF021CBB1D1A8061
:10098000034BBA1D12889A60BD4602B080BDC046B6
:100990000030004080B500AF024B034A1A60BD46EC
:1009A00080BDC04600300040AAAA000080B500AF5C
:1009B000024B034A1A60BD4680BDC046003000406D
:1009C000CCCC000080B582B000AFFA239B00181C8D
:1009D000FFF70EFC00F0CCF900F0ECF9FFF7E0FEB9
:1009E000554B181C02F04AFA031C9AB2534B1A805A
:1009F00000F020FB00F006FA00F006F9504B181C3E
:100A000002F03CFA031C9AB24C4B1A804D4B181C56
:100A1000802100F0DFFD4C4B181C0021002200F06B
:100A2000A3FAFA235B00181CFFF73EFC464B00209C
:100A3000191C002200F098FAFA235B00181CFFF73B
:100A400033FC414B002000211A1C00F08DFAFA23E0
:100A50005B00181CFFF728FC3B493B4A3A4B081C3B
:100A6000111C1A1C00F080FAFA23DB00181CFFF797
:100A70001BFC00200021002200F076FA314B181CEC
:100A8000802100F0B5FD00F013FA304B181CFFF781
:100A900051FF0320FFF75EFFFA235B00181CFFF7EE
:100AA00069FFFFF777FFFFF781FFBB1D00221A8068
:100AB000274B1B78DBB2002B05D000F0C3FC244B86
:100AC00000221A7034E0234B1B78DBB2002B05D0D8
:100AD00000F076FB1F4B00221A7029E0BB1D1A881C
:100AE0001D4B9A4203D9BB1D00221A8006E0BB1D94
:100AF000BA1D1288FA21890052181A803B1DBA1DAE
:100B000012881A80BB1CBA1D12881A803B1CBA1DA1
:100B100012881A803B1D1988BB1C1A883B1C1B8835
:100B2000081C111C1A1C00F01FFAC820FFF7BCFBA0
:100B3000FFF730FFBCE7C046309C000820090020CA
:100B4000489C000800080048FFFF000055550000C1
:100B5000CC080020CD08002016FC000080B500AFB6
:100B600080235B01181C01F035F9031C002B0CD00D
:100B700080235B01181C01F06DF980239B02181C77
:100B800002F062F8024B01221A70BD4680BDC046D9
:100B9000CC08002080B500AF80239B01181C02F018
:100BA00033F8031C002B07D080239B01181C02F094
:100BB0004BF8024B01221A70BD4680BDCD080020C3
:100BC000002103E00A4B5B584350043109480A4BAB
:100BD00042189A42F6D3094A02E000231360043215
:100BE000074B9A42F9D301F0EDFEFFF7EBFE704799
:100BF000E4A2000800000020C4080020C40800206F
:100C000028090020FEE7000080B58AB000AF8023ED
:100C10001B01181C0121FFF731FD80239B02181CCA
:100C20000121FFF70DFD3B1C2033E022D2001A60AA
:100C30003B1C203302221A713B1C203303225A71C1
:100C40003B1C203301229A713B1C20330122DA71B4
:100C50009023DA053B1C2033101C191C00F01EFCED
:100C60009023DB05181C0821022200F0CFFC902302
:100C7000DB05181C0921022200F0C8FC9023DB05CB
:100C8000181C0A21022200F0C1FC3B1C1433002274
:100C90001A803B1C1433344A5A603B1C1433002224
:100CA0001A813B1C143300225A803B1C143300224F
:100CB0009A722E4A3B1C1433101C191C01F0CAFAFC
:100CC0003B1C70221A803B1C01225A803B1C0422D0
:100CD0009A803B1C00229A603B1C02229A813B1C9A
:100CE0000022DA813B1C802252001A823B1C002227
:100CF0005A821E4A3B1C101C191C01F069FB1B4B3D
:100D0000181C082101F0DCFD3B1C01225A803B1C11
:100D100000229A60154A3B1C101C191C01F02AFC89
:100D2000124B181C082101F0F5FD3B1C01225A80D2
:100D30003B1C00229A600D4A3B1C101C191C01F040
:100D4000EBFC0A4B181C082101F012FE074B181C83
:100D5000012101F0F7FA054B181C012101F012FBEB
:100D6000BD460AB080BDC046FFFF0000002C014018
:100D700080B582B000AF80239B02181C0121FFF7D1
:100D80005FFC3B1C20221A603B1C01221A713B1C99
:100D900000229A713B1C03225A713B1C0022DA711B
:100DA0009023DA053B1C101C191C00F077FBBD4694
:100DB00002B080BD80B582B000AF80231B03181C39
:100DC0000121FFF73DFC3B1C80221A603B1C0122E5
:100DD0001A713B1C00229A713B1C02225A713B1C67
:100DE0000022DA71064A3B1C101C191C00F056FB4D
:100DF000034B181C802100F0FBFBBD4602B080BDF8
:100E00000008004880B586B000AF80231B03181C83
:100E10000121FFF715FC01200121FFF72FFC3B1CEE
:100E2000103300221A713B1C103300229A713B1CB4
:100E30001033802292011A603B1C10330122DA71B8
:100E40003B1C103302225A71184A3B1C1033101CF1
:100E5000191C00F023FB02200D2101F001FF3B1CB7
:100E60000833802292011A603B1C083301229A71D8
:100E70003B1C083300221A713B1C083310225A71A4
:100E80003B1C0833181C01F053FE3B1D07221A704F
:100E90003B1D00225A703B1D01229A703B1D181CFD
:100EA00001F046FFBD4606B080BDC04600080048C0
:100EB00080B500AF5D20FFF71DFC031C002B0BD09D
:100EC0009023DA05FA235B00101C2021022200F097
:100ED00011F8FFF757FC0AE09023DB05181C2021CE
:100EE0000522642300F006F86420FFF7DDF9BD4613
:100EF00080BDC04680B586B000AFF860081C111CEC
:100F00001A1C3B1C0A3318803B1C09331970BB1D8B
:100F10001A8000237B6100237B611CE0FA683B1C84
:100F20000A331B88101C191C00F054FBBB1D1B88C6
:100F3000181CFFF7B9F9FA683B1C0A331B88101C10
:100F4000191C00F055FBBB1D1B88181CFFF7ACF9E2
:100F50007B6901337B613B1C09331A787B699A42B8
:100F6000DCDCBD4606B080BD80B588B000AFBB1DDF
:100F700018803B1D1980BB1C1A803B1C0C3370224F
:100F80001A803B1C0C3301225A803B1C0C33042278
:100F90009A80BB1D1A883B1C0C339A603B1C0C3397
:100FA00002229A813B1C0C330022DA813B1C0C3359
:100FB000802252001A823B1C0C3300225A821C4AA7
:100FC0003B1C0C33101C191C01F002FA184B181CA6
:100FD000082101F075FC3B1C0C3301225A803B1D9B
:100FE0001A883B1C0C339A60114A3B1C0C33101CB2
:100FF000191C01F0BFFA0E4B181C082101F08AFCE5
:101000003B1C0C3301225A80BB1C1A883B1C0C333E
:101010009A60074A3B1C0C33101C191C01F07CFB26
:10102000034B181C082101F0A3FCBD4608B080BD8D
:10103000002C014080B586B000AF434B181C01F076
:101040001DFF002000F05CFE021C404B9A421ED0A7
:1010500000F08AF83E4B1A683B1C0C335A603D4B3B
:101060001A683B1C0C339A603B1C0C3300221A603C
:101070003B1C0C33181C00F017FB031C002B03D186
:10108000354B181C01F0FAFE00F09AF831E05B20B5
:10109000FFF730FB031C002B04D0304B181C01F071
:1010A000EDFE09E05A20FFF725FB031C002B03D0BF
:1010B0002B4B181C01F0E2FE2A4B181C01F0DEFE3F
:1010C00080235B05181C0121FFF7F6FA012001F0CF
:1010D0000FFE00F079FB80235B00181C00F062FE1D
:1010E00080239B02181C01F0AFFD00F077F900F09F
:1010F0008DF980239B02181C01F0A6FD3B1C802269
:1011000092021A603B1C00221A713B1C08225A7181
:101110003B1C01229A713B1C181C01F009FD3B1C71
:10112000083302221A703B1C083300225A703B1C01
:10113000083301229A703B1C0833181C01F0F8FD9B
:10114000BD4606B080BDC046609C00082F0300006D
:10115000D0080020D4080020A49C0008E49C0008CB
:10116000089D00082C9D000880B500AF80235B051A
:10117000181C0121FFF7A0FA012001F0B9FD0120A0
:10118000FFF7E2F8C0462120FFF7B4FA031C002B5A
:10119000F9D080235B00181CFFF722FA064BFF22D0
:1011A0001A60064B7F221A600120FFF729FA00F02F
:1011B0000BFBBD4680BDC046D4080020D0080020EF
:1011C00080B588B000AFFF23FB61FF23BB61FF2325
:1011D0007B61744B181C01F051FE3B1C1033002244
:1011E000DA70714B181C01F049FE09E01720FFF777
:1011F00037FB031CFB61FB69DAB23B1C10331A702E
:10120000FB69FF2BF2D0694AFB69101C191C01F025
:1012100035FE674B181C01F031FE09E03B20FFF75B
:101220001FFB031CBB61BB69DAB23B1C10335A7055
:10123000BB69FF2BF2D05D4ABB69101C191C01F081
:101240001DFE5C4B181C01F019FE09E03B20FFF766
:1012500007FB031C7B617B69DAB23B1C10339A707D
:101260007B69FF2BF2D0514A7B69101C191C01F0DD
:1012700005FE3B1C10330020191C00F0F1FA031C82
:10128000002B04D14C4B181C01F0F8FD0AE04B4B2D
:10129000181C01F0F3FD00F0A1F8494B0020191CC7
:1012A00000F018FDFF23FB61FF23BB61FF237B617F
:1012B00080235B00181C002100F0B4FC414B181C7B
:1012C00001F0DCFD3B1C0022DA703F4B181C01F0E2
:1012D000D5FD08E01720FFF7C3FA031CFB61FB698B
:1012E000DAB23B1C1A70FB69FF2BF3D02F4AFB6963
:1012F000101C191C01F0C2FD344B181C01F0BEFD7E
:1013000008E03B20FFF7ACFA031CBB61BB69DAB213
:101310003B1C5A70BB69FF2BF3D0244ABB69101CDD
:10132000191C01F0ABFD2A4B181C01F0A7FD08E0C9
:101330003B20FFF795FA031C7B617B69DAB23B1C0B
:101340009A707B69FF2BF3D0224A7B69101C191C11
:1013500001F094FD3B1C00229A603B1C01221A7391
:101360003B1C802212065A6080235A003B1C00203E
:10137000111C1A1C00F058FB174B181C01F07EFDC5
:1013800000F044F880235B01181C012100F0CEFC22
:1013900080235B00181C012100F044FCBD4608B00E
:1013A00080BDC046509D0008989D0008B09D000873
:1013B000BC9D0008D49D0008EC9D0008149E000808
:1013C0002F0300003C9E0008849E0008A09E000899
:1013D000C09E0008E09E0008E89E000880B582B02C
:1013E00000AF3B1D0020191C00F0CEFA3B1D1B78FE
:1013F000191C3B1D5B781A1C3B1D9B78024801F0B1
:101400003DFDBD4602B080BD109F000880B584B090
:1014100000AF80235A003B1C0020111C1A1C00F056
:1014200095FB3B1C1B78191C3B1C5B781A1C3B1C56
:101430009B78034801F022FDBD4604B080BDC04644
:10144000409F000880B582B000AFBB1D00221A800B
:10145000114B181C802100F0BDF8BB1D00221A8022
:101460000BE096235B00181CFEF71EFFFFF792FAB5
:10147000BB1D1A88BB1D01321A80BB1D1A88902320
:10148000FF339A42EDD9044B181C802100F0B0F8CC
:10149000BD4602B080BDC0460008004880B586B099
:1014A00000AF7860396000237B6100233B6100233B
:1014B000FB6000237B6185E07B690122101C984062
:1014C000031C3B613B681B683A691340FB60FA6888
:1014D0003B699A4273D13B681B79012B03D03B686F
:1014E0001B79022B38D17B689B687A6952000321F3
:1014F000081C9040021CD2431A407B689A607B68AB
:101500009A683B685B79191C7B695B00081C9840F2
:10151000031C1A437B689A607B689B889BB27A693C
:1015200092B20121081C9040021C92B2D24392B2A6
:1015300013409AB27B689A807B689B889AB23B681A
:101540009B79191C7B699BB2081C9840031C9BB2B9
:1015500013439AB27B689A807B681B687A69520051
:101560000321081C9040021CD2431A407B681A6079
:101570007B681A683B681B79191C7B695B00081C37
:101580009840031C1A437B681A607B68DB687A69A1
:1015900092B252000321081C9040021CD2431A4010
:1015A0007B68DA607B68DA683B68DB79191C7B69E9
:1015B0005B00081C9840031C1A437B68DA607B6957
:1015C00001337B617B690F2B00D875E7BD4606B000
:1015D00080BDC04680B582B000AF78600A1CBB1CDD
:1015E0001A80BB1C1A887B689A61BD4602B080BD18
:1015F00080B582B000AF78600A1CBB1C1A807B6883
:10160000BA1C12881A85BD4602B080BD90B585B05F
:1016100000AF7860BB1C19807B1C1A700023FB6034
:101620000023BB607B1C1A78BB1C198807230B4066
:101630009B00111C99400B1CFB60BB1C1B88DB082A
:101640009BB21A1CBB1C1B88DB089BB2191C7B6855
:1016500008318900CB58B91C08880721014089004E
:101660000F20041C8C40211CC94319407B680832A0
:101670009200D150BB1C1B88DB089BB21A1C7B68F4
:1016800008329200D258FB681343BB60BB1C1B8816
:10169000DB089BB21A1C7B6808329200B968D150F3
:1016A000BD4605B090BDC04680B584B000AF78603F
:1016B0003B1C0F3300221A701C4BCA225A621B4B70
:1016C00053225A6200F034F8031C002B04D13B1C57
:1016D0000F3300221A701EE0144B144A9268402106
:1016E0008A439A60114B114A91687A6812680A43DA
:1016F0009A600E4B7A6892681A610C4B0B4A11691A
:101700007A68526812040A431A6100F051F83B1CCF
:101710000F3301221A70054BFF225A623B1C0F3314
:101720001B78181CBD4604B080BDC0460028004090
:1017300080B584B000AF00237B603B1C0F330022D8
:101740001A700023BB60194BDA684023134022D182
:10175000164B01225242DA60144BDA6840231340E0
:10176000BB607B6801337B607A688023DB019A422F
:1017700002D0BB68002BEFD00C4BDA68402313403B
:1017800004D03B1C0F3301221A7008E03B1C0F33BE
:1017900000221A7003E03B1C0F3301221A703B1C1D
:1017A0000F331B78181CBD4604B080BD00280040D4
:1017B00080B500AF034B034AD26880218A43DA60C8
:1017C000BD4680BD0028004080B584B000AF002336
:1017D0007B603B1C0F3300221A700023BB601F4B41
:1017E0009A682023134004D03B1C0F3301221A7047
:1017F0002CE01A4BCA225A62184B53225A62174BDA
:10180000164AD268A0218A43DA60144BDA68202392
:101810001340BB607B6801337B607A6880231B02C6
:101820009A4202D0BB68002BEFD00C4BDA68202321
:10183000134004D03B1C0F3301221A7003E03B1C01
:101840000F3300221A70054BFF225A623B1C0F33E4
:101850001B78181CBD4604B080BDC046002800405F
:1018600090B585B000AF786039600023FB603B1C09
:101870000B3300221A707B68002B08D1404B9A680A
:101880004023134013D13B680022DA700FE03C4B39
:101890009A684023134007D03B681B78181C00F05F
:1018A0001DFB031CFB6002E03B680022DA707B68D2
:1018B000002B0FD03B681B781A043B685B781B0237
:1018C0001A433B689B781A433B68DB781B0413433D
:1018D000FB601BE03B681B78181C00F0D7FA031C68
:1018E0001C043B685B78181C00F0D0FA031C1B0238
:1018F0001C433B689B78181C00F0C8FA031C221C90
:101900001A433B68DB781B041343FB601C4BCA2261
:101910005A621B4B53225A62FFF70AFF031C002B2B
:1019200004D13B1C0B3300221A701EE0144BF968E3
:10193000144A0A401A60FFF73BFF114B9A682023B4
:1019400013400ED1FFF740FF031C002B04D13B1CBA
:101950000B3300221A7008E03B1C0B3301221A7073
:1019600003E03B1C0B3301221A70054BFF225A6225
:101970003B1C0B331B78181CBD4605B090BDC04600
:10198000002800407F7F7F0080B584B000AF786082
:1019900039600023FB60224B1A68224B1340FB6026
:1019A000FA68FC239B0313401B0CDAB23B681A70E5
:1019B000FA68FE23DB0113401B0ADAB23B685A7057
:1019C000FB68DAB27F231340DAB23B689A70FA6898
:1019D0008023DB0313401B0CDAB23B68DA707B68B0
:1019E000002B1AD13B681B78181C00F077FA031CF7
:1019F0001A1C3B681A703B685B78181C00F06EFA82
:101A0000031C1A1C3B685A703B689B78181C00F03A
:101A100065FA031C1A1C3B689A70BD4604B080BD71
:101A2000002800407F7F7F0090B587B000AFF8604E
:101A3000B9607A6000237B61FB68002B08D1424BC0
:101A40009A684023134026D17B680022DA7022E096
:101A50003D4B9A684023134007D07B681B78181CC5
:101A600000F03CFA031C7B6102E07B680022DA7024
:101A70007B689B68002B07D17B681B7B181C00F0E0
:101A80002DFA031C7B6106E07B681B7B181C00F0B1
:101A900025FA031C7B61FB68002B19D07B681B783F
:101AA0001A047B685B781B021A437B689B781A4395
:101AB0007B68DB781B041A437B681B7B1B061A437D
:101AC0007B689B681A437B685B6813437B612BE0F0
:101AD0007B681B78181C00F0D9F9031C1C047B6878
:101AE0005B78181C00F0D2F9031C1B021C437B68B6
:101AF0009B78181C00F0CAF9031C221C1A437B684F
:101B0000DB781B04141C1C437B681B7B181C00F037
:101B1000BDF9031C1B06221C1A437B689B681A43F1
:101B20007B685B6813437B61074BCA225A62064B92
:101B300053225A62044B7A69DA61034BFF225A62DC
:101B4000BD4607B090BDC0460028004080B586B0B5
:101B500000AFF860B9607A6000237B612F4BDB69CE
:101B60007B617A69FC239B0313401B0CDAB27B6810
:101B70001A707A69FE23DB0113401B0ADAB27B6814
:101B80005A707B69DAB27F231340DAB27B689A70AD
:101B90007A698023DB0313401B0CDAB27B68DA70AE
:101BA0007A69FC239B0513401B0EDAB27B681A731B
:101BB0007A698023DB051A407B689A607A69184B42
:101BC0001A407B685A60FB68002B23D17B681B7826
:101BD000181C00F083F9031C1A1C7B681A707B68C0
:101BE0005B78181C00F07AF9031C1A1C7B685A7089
:101BF0007B689B78181C00F071F9031C1A1C7B6829
:101C00009A707B681B7B181C00F068F9031C1A1C77
:101C10007B681A73BD4606B080BDC04600280040F0
:101C20008080808080B586B000AF78600A1CFB1C85
:101C30001A700023FB6000233B613B1C173300221A
:101C40001A70234BCA225A62214B53225A62FB1C40
:101C50001B78002B0AD01E4B1D4A91687A680A43F4
:101C60009A603B1C173301221A7026E0184B184A61
:101C700092687968C9430A409A60154BDB687A68B4
:101C8000120A13403B61FB680133FB60FA68802352
:101C9000DB019A4202D03B69002BEED00C4BDB6893
:101CA0007A68120A134004D13B1C173300221A70C1
:101CB00003E03B1C173301221A70054BFF225A62C6
:101CC0003B1C17331B78181CBD4606B080BDC046B0
:101CD0000028004080B584B000AF786039600023F0
:101CE000FB60064BFB607B689A00FB68D318FB60C7
:101CF000FB683A681A60BD4604B080BD50280040B9
:101D000080B584B000AF78600023FB60064BFB60B9
:101D10007B689A00FB68D318FB60FB681B68181C83
:101D2000BD4604B080BDC0465028004080B582B09A
:101D300000AF78600A1CFB1C1A70194BCA225A6249
:101D4000174B53225A62FB1C1B78002B10D0144BEC
:101D5000134A91687A68042082430A439A60104BC0
:101D60000F4A116C7868042202400A431A6411E099
:101D70000B4B0B4A9268796804208143C9430A409F
:101D80009A60074B064A126C786804210140C943E7
:101D90000A401A64024BFF225A62BD4602B080BD5F
:101DA0000028004080B582B000AF7860074B7968AA
:101DB000074A0A4080210A43D143044AD06880225E
:101DC00002400A43DA60BD4602B080BD00280040F0
:101DD0007FFF010080B586B000AF78603B1C1733F1
:101DE00000221A7000233B610023FB60184B1A6C21
:101DF000042313403B61164B9B687A681A407B684A
:101E00009B0C7968081CD840031CDB0B39690B401C
:101E10001343FB600E4BDB687A68120913403B6189
:101E2000FB68002B08D03B691B041B0C04D03B1C37
:101E3000173301221A7003E03B1C173300221A707B
:101E40003B1C17331B78181CBD4606B080BDC0462E
:101E50000028004080B584B000AF78600023FB60AC
:101E60007B681B09FB60084BFA681204120C802186
:101E70000A43D143044AD068802202400A43DA6010
:101E8000BD4604B080BDC0460028004080B584B087
:101E900000AF021CFB1D1A703B1C0F3300221A708E
:101EA0000BE03B1C0F331A783B1C0F3301321A70C6
:101EB000FB1DFA1D12780A3A1A70FB1D1B78092BBC
:101EC000EFD83B1C0F331B781B01DAB2FB1D1B78CC
:101ED0001343DBB2181CBD4604B080BD80B584B08E
:101EE00000AF021CFB1D1A703B1C0F3300221A703E
:101EF000FB1D1B781B09DBB23A1C0F32191C890031
:101F0000CB18DB181370FB1D1A780F231340DAB2BD
:101F10003B1C0F331B78D318DBB2181CBD4604B032
:101F200080BDC04680B584B000AF78600A4B1B68A6
:101F3000002B02D1084B094A1A60074B1B68FB6053
:101F4000054B1A687B68D218034B1A60FB68181C93
:101F5000BD4604B080BDC046D80800202809002036
:101F600080B582B000AF786001235B42181CBD468B
:101F700002B080BD80B582B000AF786039603B6848
:101F8000802292015A600023181CBD4602B080BD19
:101F900080B582B000AF78600123181CBD4602B046
:101FA00080BDC04680B584B000AFF860B9607A608B
:101FB0000023181CBD4604B080BDC04680B584B067
:101FC00000AFF860B9607A607B68181CBD4604B049
:101FD00080BDC04680B586B000AFF860B9607A6059
:101FE00000237B6114E07B69BA68D3181B780D4A23
:101FF000101C191C00F0F0F8C0460A4B181C4021B8
:1020000000F00AF9031C002BF7D07B6901337B61D8
:102010007A697B689A42E6DB7B68181CBD4606B08D
:1020200080BDC0460038014080B58EB000AF7860FA
:10203000396000237B6300233B630023FB627B68E2
:102040001B680122191C91430A1C7B681A607B687B
:102050005B68FB62FA6A4B4B1340FB623B689B6810
:10206000FA6A1343FB627B68FA6A5A607B681B68F2
:10207000FB62FA6A444B1340FB623B685A683B6858
:10208000DB681A433B681B691343FA6A1343FB621C
:102090007B68FA6A1A607B689B68FB62FA6A3B4B52
:1020A0001340FB623B685B69FA6A1343FB627B681F
:1020B000FA6A9A603B1C0833181CFEF761F97A68CB
:1020C000334B9A4204D13B1C08339B693B630CE0C1
:1020D0007A68304B9A4204D13B1C0833DB693B637E
:1020E00003E03B1C08339B683B637B681A688023D2
:1020F0001B02134014D03B6B5A003B681B68101C3A
:10210000191C00F06BFE031C7B633B6B5A003B68A1
:102110001B68101C191C00F0A5FE0B1CFB6210E0D4
:102120003B681B68386B191C00F058FE031C7B636E
:102130003B681B683A6B101C191C00F093FE0B1CCB
:10214000FB623B681B685A08FB6A9A4202D87B6BA9
:1021500001337B637B681A6880231B0213400AD01B
:102160007A6B0F2313405B08FB627A6B0A4B1A40B1
:10217000FB6A13437B637B6B9AB27B689A81BD4693
:102180000EB080BDFFCFFFFFF3E9FFFFFFFCFFFFB5
:102190000038014000440040F0FF000080B582B0EC
:1021A00000AF78600A1CFB1C1A70FB1C1B78002B0C
:1021B00006D07B681B6801221A437B681A6007E01F
:1021C0007B681B680122191C91430A1C7B681A60FA
:1021D000BD4602B080BDC04680B582B000AF786019
:1021E0000A1CBB1C1A80BB1C1B88DB05DB0D9AB2CA
:1021F0007B681A85BD4602B080BDC04680B582B0FE
:1022000000AF78607B689B8C9BB2DB05DB0D9BB2DB
:10221000181CBD4602B080BD80B584B000AF7860A8
:1022200039603B1C0F3300221A707B68DB693A6807
:10223000134004D03B1C0F3301221A7003E03B1CF7
:102240000F3300221A703B1C0F331B78181CBD463D
:1022500004B080BD80B584B000AF786039603B1CAD
:102260000E3300221A803B1C0E337A6812881A80C3
:102270007A682D4B9A4208D07A688023DB059A420F
:1022800003D07A68294B9A4210D13B1C0E333A1C7A
:102290000E32128870218A431A803B6859883B1C91
:1022A0000E333A1C0E3212880A431A807A68204B89
:1022B0009A4210D03B1C0E333A1C0E3211881D4A34
:1022C0000A401A803B6819893B1C0E333A1C0E32B7
:1022D00012880A431A807B683A1C0E3212881A80D0
:1022E0003B685A687B68DA623B681A887B681A85A3
:1022F0007A680D4B9A420BD07A680F4B9A4207D0FE
:102300007A680E4B9A4203D07A680D4B9A4204D1F8
:102310003B689B7A1A1C7B681A867B6801229A822A
:10232000BD4604B080BDC046002C01400004004002
:1023300000100040FFFCFFFF00400140004401404E
:102340000048014080B582B000AF78600A1CFB1CD9
:102350001A70FB1C1B78002B08D07B681B889BB273
:10236000012213439AB27B681A8007E07B681B88BE
:102370009BB2012293439AB27B681A80BD4602B099
:1023800080BDC04680B582B000AF78600A1CFB1CDF
:102390001A70FB1C1B78002B0AD07A684423D35A8E
:1023A0009BB20A4A134399B27A684423D15209E096
:1023B0007A684423D35A9BB25B045B0C99B27A6867
:1023C0004423D152BD4602B080BDC0460080FFFF0D
:1023D00080B584B000AF786039603B1C0A330022BE
:1023E0001A803B1C0E3300221A803B1C0C33002247
:1023F0001A807B681B8C9BB2012293439AB27B6844
:102400001A843B1C0E337A68128C1A803B1C0C33E6
:102410007A6892881A803B1C0A337A68128B1A8079
:102420003B1C0A333A1C0A32128870218A431A80F4
:102430003B1C0A333A1C0A32128803218A431A8051
:102440003B6819883B1C0A333A1C0A3212880A433B
:102450001A803B1C0E333A1C0E32128802218A432A
:102460001A803B6899893B1C0E333A1C0E32128845
:102470000A431A803B6859883B1C0E333A1C0E32C3
:1024800012880A431A807A68344B9A420BD07A68D1
:10249000334B9A4207D07A68324B9A4203D07A681B
:1024A000314B9A4243D13B1C0E333A1C0E321288F8
:1024B00008218A431A803B68D9893B1C0E333A1C99
:1024C0000E3212880A431A803B1C0E333A1C0E321D
:1024D000128804218A431A803B6899883B1C0E337A
:1024E0003A1C0E3212880A431A803B1C0C333A1CE9
:1024F0000C3211881D4A0A401A803B1C0C333A1CCE
:102500000C3211881A4A0A401A803B68198A3B1C0F
:102510000C333A1C0C3212880A431A803B68598AE1
:102520003B1C0C333A1C0C3212880A431A807B681D
:102530003A1C0C3212889A807B683A1C0A32128844
:102540001A833B689A687B685A637B683A1C0E3230
:1025500012881A84BD4604B080BDC046002C0140DC
:10256000004001400044014000480140FFFEFFFFE1
:10257000FFFDFFFF80B584B000AF786039603B1C81
:102580000A3300221A803B1C0E3300221A803B1CA7
:102590000C3300221A807B681B8C9BB21022934361
:1025A0009AB27B681A843B1C0E337A68128C1A80AC
:1025B0003B1C0C337A6892881A803B1C0A337A6879
:1025C000128B1A803B1C0A333A1C0A3211884D4A7E
:1025D0000A401A803B1C0A333A1C0A3211884A4AC4
:1025E0000A401A803B681B881B0299B23B1C0A33C5
:1025F0003A1C0A3212880A431A803B1C0E333A1CDA
:102600000E32128820218A431A803B689B891B0165
:1026100099B23B1C0E333A1C0E3212880A431A80C0
:102620003B685B881B0199B23B1C0E333A1C0E328F
:1026300012880A431A807A68344B9A424BD13B1C69
:102640000E333A1C0E32128880218A431A803B686E
:10265000DB891B0199B23B1C0E333A1C0E321288E7
:102660000A431A803B1C0E333A1C0E32128840215A
:102670008A431A803B689B881B0199B23B1C0E332E
:102680003A1C0E3212880A431A803B1C0C333A1C47
:102690000C3211881E4A0A401A803B1C0C333A1C2B
:1026A0000C3211881B4A0A401A803B681B8A9B0027
:1026B00099B23B1C0C333A1C0C3212880A431A8024
:1026C0003B685B8A9B0099B23B1C0C333A1C0C3272
:1026D00012880A431A807B683A1C0C3212889A804E
:1026E0007B683A1C0A3212881A833B689A687B68B6
:1026F0009A637B683A1C0E3212881A84BD4604B075
:1027000080BDC046FF8FFFFFFFFCFFFF002C014094
:10271000FFFBFFFFFFF7FFFF80B584B000AF7860DD
:1027200039603B1C0A3300221A803B1C0E33002206
:102730001A803B1C0C3300221A807B681B8C9AB2D7
:10274000584B13409AB27B681A843B1C0E337A684C
:10275000128C1A803B1C0C337A6892881A803B1CBE
:102760000A337A68928B1A803B1C0A333A1C0A326D
:10277000128870218A431A803B1C0A333A1C0A32A1
:10278000128803218A431A803B6819883B1C0A334C
:102790003A1C0A3212880A431A803B1C0E333A1C38
:1027A0000E321188404A0A401A803B689B891B02FE
:1027B00099B23B1C0E333A1C0E3212880A431A801F
:1027C0003B685B881B0299B23B1C0E333A1C0E32ED
:1027D00012880A431A807A68344B9A424BD13B1CC8
:1027E0000E333A1C0E321188314A0A401A803B6877
:1027F000DB891B0299B23B1C0E333A1C0E32128845
:102800000A431A803B1C0E333A1C0E321188294AA7
:102810000A401A803B689B881B0299B23B1C0E330E
:102820003A1C0E3212880A431A803B1C0C333A1CA5
:102830000C321188204A0A401A803B1C0C333A1C87
:102840000C3211881D4A0A401A803B681B8A1B0102
:1028500099B23B1C0C333A1C0C3212880A431A8082
:102860003B685B8A1B0199B23B1C0C333A1C0C324F
:1028700012880A431A807B683A1C0C3212889A80AC
:102880007B683A1C0A3212889A833B689A687B6894
:10289000DA637B683A1C0E3212881A84BD4604B093
:1028A00080BDC046FFFEFFFFFFFDFFFF002C014083
:1028B000FFF7FFFFFFFBFFFFFFEFFFFFFFDFFFFF64
:1028C00080B584B000AF78600A1CBB1C1A803B1C2A
:1028D0000E3300221A803B1C0E337A68128B1A804A
:1028E0003B1C0E333A1C0E32128808218A431A8090
:1028F0003B1C0E33391C0E31BA1C098812880A435E
:102900001A807B683A1C0E3212881A83BD4604B0C6
:1029100080BDC04680B584B000AF78600A1CBB1C87
:102920001A803B1C0E3300221A803B1C0E337A683F
:10293000128B1A803B1C0E333A1C0E3211880B4A44
:102940000A401A80BB1C1B881B0299B23B1C0E3329
:102950003A1C0E3212880A431A807B683A1C0E32E7
:1029600012881A83BD4604B080BDC046FFF7FFFF42
:1029700080B584B000AF78600A1CBB1C1A803B1C79
:102980000E3300221A803B1C0E337A68928B1A8019
:102990003B1C0E333A1C0E32128808218A431A80DF
:1029A0003B1C0E33391C0E31BA1C098812880A43AD
:1029B0001A807B683A1C0E3212889A83BD4604B096
:1029C00080BDC04680B500AF1B4B1B4A1268012179
:1029D0000A431A60184B184A5168184A0A405A604C
:1029E000154B154A1168164A0A401A60124B124AD2
:1029F0001168144A0A401A600F4B0F4A5168124A74
:102A00000A405A600C4B0C4AD26A0F218A43DA62A0
:102A1000094B094A116B0D4A0A401A63064B064AD4
:102A2000526B01218A435A63034B00229A6000F0E3
:102A30000FF8BD4680BDC046001002400CB8FFF83C
:102A4000FFFFF6FEFFFFFBFFFFFFC0FFACFEFFFF37
:102A500080B582B000AF00237B6000233B60314B28
:102A6000304A1268802149020A431A602D4B1A68C5
:102A700080239B0213403B607B6801337B603B6893
:102A8000002B04D17A68A023DB009A42EED1254BBB
:102A90001A6880239B02134002D001233B6001E0AF
:102AA00000233B603B68012B38D11F4B11221A6079
:102AB0001C4B1C4A52685A601A4B1A4A52685A6098
:102AC000184B184A5168194A0A405A60154B154A62
:102AD0005268882149030A435A60124B114A12680E
:102AE000802149040A431A60C0460E4B1A688023AD
:102AF0009B041340F9D00B4B0A4A526803218A43C6
:102B00005A60084B074A526802210A435A60C0467D
:102B1000044B5A680C231340082BF9D1BD4602B070
:102B200080BDC0460010024000200240FF7FC0FF71
:102B300080B584B000AF78600023FB60314BFB6050
:102B40007B689B79002B4DD02E4B2E4A11687A68FA
:102B50001268D2430A401A602A4B2A4A51687A689E
:102B60001268D2430A405A607B681B79FA68D3180E
:102B7000FB60FB68FA6811687A6812680A431A6099
:102B8000204B204A91687A681268D2430A409A60C2
:102B90001C4B1C4AD1687A681268D2430A40DA603A
:102BA0007B685B79102B0ED1164B164A91687A68B8
:102BB00012680A439A60134B124AD1687A68126805
:102BC0000A43DA601BE00F4BFB607B685B79FA68B5
:102BD000D318FB60FB68FA6811687A6812680A43C8
:102BE0001A600CE07B681B79FA68D318FB60FB68FD
:102BF000FA6811687A681268D2430A401A60BD46C2
:102C000004B080BD0004014080B584B000AF78609E
:102C10003B1C0F3300221A700A4B5B697A68134021
:102C200004D03B1C0F3301221A7003E03B1C0F330E
:102C300000221A703B1C0F331B78181CBD4604B0D1
:102C400080BDC0460004014080B582B000AF78600E
:102C5000024B7A685A61BD4602B080BD0004014053
:102C6000B0B584B000AF0A1CFB1D011C1970BB1D60
:102C70001A700023FB60BB1D1A78032313409B00CE
:102C80000F22111C99400B1CFB60184BBA1D1278C7
:102C90009208D2B21549B81D00788008C0B202303F
:102CA00080004158F868C043014002329200D15080
:102CB0000E4BBA1D12789208D2B20C49B81D00789A
:102CC0008008C0B2023080004058F91D0C78B91D50
:102CD0000D78032129408900251C8D40291C0143C2
:102CE00002329200D150BD4604B0B0BD0000014098
:102CF00080B582B000AF021CFB1D1A70FB1D1B7853
:102D0000002B07D0084B084A1268802149000A436B
:102D10001A6005E0044B044A1168044A0A401A602C
:102D2000BD4602B080BDC04600700040FFFEFFFF00
:102D300080B584B000AF78600023FB607B689B782F
:102D4000002B3CD0244B7A6812789208D2B2C03261
:102D50009200D358FB607B681B781A1C0323134036
:102D6000DB00FF22101C9840031CDA43FB68134071
:102D7000FB607B685B789A01FF231A407B681B78B5
:102D8000191C03230B40DB00111C99400B1CFA6833
:102D90001343FB60104B7A6812789208D2B2C032AB
:102DA0009200F968D1500C4B7A681278111C1F22DE
:102DB0000A400121081C9040021C1A6009E0064AE2
:102DC0007B681B78191C1F230B400121994080232D
:102DD000D150BD4604B080BD00E100E0002934D0F0
:102DE0000123002210B488422CD301242407A142DD
:102DF00004D2814202D209011B01F8E7E400A1429A
:102E000004D2814202D249005B00F8E7884201D334
:102E1000401A1A434C08A04202D3001B5C0822430C
:102E20008C08A04202D3001B9C082243CC08A0427D
:102E300002D3001BDC082243002803D01B0901D069
:102E40000909E3E7101C10BC7047002801D00020DE
:102E5000C04307B4024802A14018029003BDC04617
:102E6000190000000029F0D003B5FFF7B9FF0EBC30
:102E70004243891A1847C0467047C0460FB400B590
:102E800083B004AB04CB054A01931068049A8168AF
:102E900000F006F803B008BC04B018475004002046
:102EA000F0B5444656465F464D46F0B4C5B0804640
:102EB0008A460A921C1C119302F070FE006817905B
:102EC00003F0F2FD1A904046002803D0816B0029E0
:102ED00000D1ADE053469A89802193B289010B421B
:102EE00007D15546686EBC4B0A4303406B66AA8106
:102EF00093B2190770D552461269002A6CD01A2273
:102F000013400A2B74D034AC079427940024002576
:102F100027AF002319941D9412944446BB607B6034
:102F200018951B9534AE1C950894D3460A9D2B78B2
:102F3000002B00D17FE0252B00D17CE02C1C01E090
:102F4000252B3CD001342378002BF9D10A98251A7F
:102F5000002D0ED0B8680A9A2B18BB607B683260CF
:102F6000013375607B60072B57DC083612994919CD
:102F700012912378002B01D101F037F8651C7F20D6
:102F800001210A950023684449420025402203702C
:102F90000B916378099500241021914608250A9A1F
:102FA0001094002020248A46AC460132191C203996
:102FB000582900D9C1E2894D890069588F460A997C
:102FC000651AC5E7109D11916D421095099D042366
:102FD0001D4309951378E8E74046514601F0A2FAEF
:102FE000002811D15546AB891A2213400A2B8AD1E9
:102FF00050460E23C35E002B85DB404651460A9A9D
:10300000231C01F055FA01E00120404245B03CBCD0
:1030100090469946A246AB46F0BD089859463A1CE0
:1030200003F088FD002801D000F094FC34AE9DE749
:1030300002F0EEFB4EE70A9C9BE713782B20B4E7E7
:103040001378511C88462A2B01D101F0F8F9191C7C
:1030500030390022092901D901F039F94346804667
:1030600090008218520001338A18591E0878011CFA
:1030700030390929F4D9191C031C40468846002A16
:1030800001DA01F048F80B9242468FE7099D802152
:103090000D430995137888E7099C159310237F2524
:1030A0001C436D4409942870099D0A92AD0600D412
:1030B000A7E1119A072307329A43141C5368126838
:1030C000083411940E920F93002B01DA00F028FEC1
:1030D0007F256D442D780E9A0F98A8460123024350
:1030E0000B9C002C03DB099D80218D430995002A50
:1030F00000D049E30B9C002C00D045E3002B01D00D
:1031000000F09BFC099DED0701D400F096FC6D4694
:10311000CF353023079C2B70641B0D9413950D9BAA
:103120000B9DAB4200DA2B1C00240C9316944546F1
:10313000002D02D00C9C01340C94099D02231D40EB
:10314000AA4602D00C9C02340C94099D84231D4095
:10315000A94600D006E2109D0C982C1A002C00DC29
:1031600000E2BA687B68102C01DC00F0D0FF1C4D37
:10317000311CA8465E46102503E0103C0831102C97
:1031800017DD40461032013308604D60BA607B6045
:10319000072BF2DD0898311C3A1C03F0CBFC002809
:1031A00001D000F0AEFC103CBA687B6834A9102C4A
:1031B000E7DCB3460E1C414674600133A41831604D
:1031C000BC607B60072B01DD00F08CFC7F226A4431
:1031D000127808369046C6E1FFDFFFFF749F0008B3
:1031E000D8A0000815937F236B441870119B0A9296
:1031F0000733072293431D1C083511951C68199449
:103200005B6819981B931B9903F0C0FB012801D040
:1032100000F09AFD19981B99CE4BCD4A04F084FA20
:10322000002801D000F0F3FF7F256D442D78A846DB
:10323000159C472C01DC00F020FFC74C1394099D1E
:1032400080239D43032409950C94032500F0E9FE97
:10325000191C002510953039002380469800C318AA
:103260005B0001325B18511E0878011C30390929B6
:10327000F4D91093031C404698E6099D61460D431E
:103280000995137891E6099C159310231C43099422
:10329000099D0A92AD0600D429E1119B072207334C
:1032A00093431C1C083411941C685D680E940F95A0
:1032B000221C00232A437F2400216C44217088466D
:1032C0000EE7099C159310231C430994099D0A924B
:1032D000AD0600D421E1119B0722073393431C1C48
:1032E000083411941C685D68221C0E940F9501230C
:1032F0002A43E0E77F25099C6D440A922870A406C2
:1033000001D400F0EEFD119D129C2B68E2170435EC
:103310001C605A60119509E6119C1593119B0434A9
:103320001B680A922AAD119401247F202B706844F7
:1033300000230C940D940024037098460B9416946B
:103340001395FAE67F256D442870844C099D1593EA
:103350000A921D94AD062CD5119B07220733934387
:103360001C1C083411941C685D680E940F95099D0F
:10337000ED0700D4C7E30E9A0F98022302439AD0B8
:10338000099D159C20A930201D4308704C7009959B
:1033900091E71378002800D007E6202005E60A927E
:1033A0006F4C7F22099D6A44159310701D94AD06E1
:1033B000D2D4099DED0601D400F085FD1198119C31
:1033C0000068002104340E900F911194CFE7099DFD
:1033D00049460D4309951378E7E51378111C6C2BCA
:1033E00001D100F05AFE099D51460D430995DCE5D7
:1033F0007F21099D694415930A920870AD0600D596
:1034000057E6099DED0601D400F02DFD119C2368BF
:1034100004340E93DB170F93119455E6099D254351
:1034200009951378C1E5119D119C2D687F20159396
:10343000684400230A92043413950370002D01D1CF
:1034400000F0BAFE0B9D1398002D01DA00F038FE53
:1034500000212A1C02F09CFE002801D100F0E2FEAF
:10346000139D401B0B9D0D90A84201DD00F0E0FD77
:103470007F200D9D68440078EB43DB1780461D409C
:103480000C951194002500240B9416954FE6119B82
:10349000119D1B68099C0E93043502231C430A925C
:1034A00020AB302211952D4D1A70002078220994FE
:1034B00078245A700F901D95022315940E9AFAE6FF
:1034C000099D01231D43099513786EE5119D1199FE
:1034D0002D6804311095002D00DA73E513781191F1
:1034E00063E5099D15930A92AD0600D5D5E6099DC1
:1034F000ED0601D400F0D7FC1198119C0068002162
:1035000004340E900F9111940023021CD3E6099D00
:1035100015930A92AD0600D5DDE6099DED0601D4AE
:1035200000F0B1FC1198119C0068002104340E9049
:103530000F9111940123021CBDE67F256D44159364
:103540000A922870002B01D100F04FFD2AADEBE666
:103550000000000000000000ECA000080CA1000822
:10356000F8A00008BC684546002D0DD0012373600B
:103570007B687F206844013401333060BC607B602D
:10358000072B00DD15E20836514600290CD020AB90
:103590003360022373607B6802340133BC607B605C
:1035A000072B00DD0FE208364A46802A00D16DE184
:1035B0000B9A0D9BD51A002D34DD7B68102D01DC94
:1035C00000F0B8FCD649102292468946221C5C467F
:1035D00003E0103D0836102D17DD484651461032E5
:1035E000013330607160BA607B60072BF1DD0898B1
:1035F000211C3A1C03F09EFA002800D081E1103D06
:10360000BA687B6834AE102DE7DCA346141C4A462A
:103610006419013332607560BC607B60072B00DD8C
:10362000BDE10836099DED0500D5D4E0139D7B680A
:1036300035600D9D013364197560BC607B60072B9C
:1036400000DD96E00836099D6D073FD510980C996E
:10365000451A002D3ADD7B68102D01DC00F0A8FD35
:10366000B0481021221C804689465C4603E0103D8C
:103670000836102D17DDAB48494610320133306053
:103680007160BA607B60072BF1DD0898211C3A1C41
:1036900003F050FA002800D033E1103DBA687B688F
:1036A00034AE102DE7DCA346141C424664190133E6
:1036B00024C6BC607B60072B08DD089859463A1C7D
:1036C00003F038FA002800D044E1BC680C9B109D40
:1036D000AB4200DA2B1C129DED181295002C00D085
:1036E00030E100237B6034AEFFF720FC189D012DF4
:1036F00000DCB5E2012373607B68139D0134013364
:103700003560BC607B60072B00DDC9E20836179D81
:10371000013335601A9D984664197560BC607B6002
:10372000072B00DDC8E2083619981B997B4B7A4AB3
:1037300003F0F4FF002800D0EBE1189B139D01215A
:10374000013B88440135E418424635607360BC6033
:103750007A60072A00DDE9E0083623AB1C9D336060
:103760004346641901337560BC607B60072B00DC45
:1037700068E7089859463A1C03F0DCF9002800D0A5
:10378000E8E0BC6834AE5EE7012B00D125E1022BF6
:1037900000D0E1E01D9D6B46CF330F21A946B44612
:1037A0001C1C0E9A0F9B201C0C1C14404D462C5DBB
:1037B0001E071509321C04702A431C09231C151C02
:1037C000441E1D43EFD1079C1390241A0E920F93B1
:1037D00066460D94A3E4159D652D87DD19981B9908
:1037E0004E4B4D4A03F09AFF002800D12BE14E4B7F
:1037F00001343360012373607B68BC6001337B60FC
:10380000072B00DD9AE308362198189DA84203DBB8
:10381000099DED0700D416E7179D7B6835601A9D5A
:10382000013364197560BC607B60072B01DD00F01B
:103830003BFC0836189D013D002D00DC03E77B684A
:10384000102D01DC00F0D8FD354910229046D946F4
:10385000221C0C1C04E00836103D102D00DC57E340
:1038600040461032013334607060BA607B60072BD1
:10387000F1DD089849463A1C03F05CF9002801D0B4
:1038800000F093FCBA687B6834AEE5E7109B0C98B7
:103890001D1A002D00DC8BE67B68102D01DC00F08A
:1038A000BDFC1F4A102091468246221C5C4603E064
:1038B000103D0836102D16DD4946504610320133B2
:1038C00031607060BA607B60072BF1DD0898211CC5
:1038D0003A1C03F02FF9002813D1103DBA687B6819
:1038E00034AE102DE8DCA346141C4946641901339C
:1038F00031607560BC607B60072B00DD05E2083637
:1039000056E6A246524693895C0601D5FFF77CFB3A
:103910001298FFF77BFBC04600000000000000008B
:103920002CA10008D8A0000828A100080898594632
:103930003A1C03F0FFF800280CD17B68BC6898465D
:1039400034AE0AE7089859463A1C03F0F3F8002809
:1039500000D1C6E6DA46D5E76B46CF330720B4463A
:103960000E9C0F9D021C22403032191C1A706B07EE
:103970009946E6084C46EB0834431D1C261C4B1E9A
:103980002E43EFD10E940F95099C13916646E407E0
:1039900000D5EAE0079D6D1A0D95FFF7C0FB08986A
:1039A00059463A1C03F0C6F80028D3D1BC6834AE9F
:1039B00038E6089859463A1C03F0BCF80028C9D1EB
:1039C000BC6834AEE0E5089859463A1C03F0B2F8FA
:1039D0000028BFD1BC6834AEE6E50F98002802D1BC
:1039E0000E99092923D96B46CF33B1460E9C0F9D02
:1039F0001E1C201C291C0A22002303F0BDFE3032AD
:103A00003270201C0A220023291C03F0B5FE021C80
:103A1000041C0D1C731E0A43EAD113960E940F95D5
:103A2000079D139C4E462D1B0D95FFF778FB6D46A9
:103A30000B1CCF353033FFF76DFB002534AC0D95F3
:103A40001394FFF76CFB219B002B00DC81E21398A1
:103A50001899169A4518281A8046904200DD90461B
:103A6000404600280BDD7B681399444401333160E4
:103A70007060BC607B60072B00DD50E30836424677
:103A8000D343DB1716981340C01A8046002800DC89
:103A900089E07B68102801DC00F0B1FCA94A102005
:103AA0009146211C321C44468246A8464E465D463D
:103AB00003E00832103C102C63DD50461031013316
:103AC00016605060B9607B60072BF2DD0898291CF6
:103AD0003A1C03F02FF8002800D02BE3B9687B686C
:103AE00034AAE7E7089859463A1C03F023F800285F
:103AF00000D02FE77F236B441B78BC68984634AE18
:103B000031E5B246FEE60E9A0F9802230243FFF714
:103B1000D2FB189D013D002D00DC1EE6102D01DCBE
:103B200000F071FC8749102292468946221C4346C8
:103B30005C4604E00836103D102D00DCC9E0484624
:103B400051461032013330607160BA607B60072BE0
:103B5000F0DD0898211C3A1C02F0ECFF002800D090
:103B6000CFE6BA687B6834AEE5E7302A03D013931A
:103B7000013930230B70079C139D641B0D94FFF7D4
:103B8000CEFAAB46B1464546161CA0460C1C49462B
:103B900042464444013331607260BC607B60072B55
:103BA00000DDE7E20836139B18989846169B984468
:103BB000219B834246DB0999C90743D441466A1ACF
:103BC000189DEB1A1D1E954200DD151C002D0BDD06
:103BD0007A6840466419013230607560BC607A6072
:103BE000072A00DDD2E20836EA43D21715405D1BF2
:103BF000002D00DC27E57B68102D01DC00F030FC97
:103C0000504A102091468046221C5C4604E008364B
:103C1000103D102D00DC8AE1494640461032013348
:103C200031607060BA607B60072BF0DD0898211C62
:103C30003A1C02F07FFF002800D062E6BA687B6879
:103C400034AEE5E7179A1A9832607A682418013280
:103C50007060BC607A60072A00DD6EE20836ADE76E
:103C6000099D01232B4200D044E57868139D8046CE
:103C7000012080440134414635607360BC60796046
:103C8000072900DC68E5089859463A1C02F052FF03
:103C9000002800D05EE67A68BC68904634AE5CE5E9
:103CA000089859463A1C02F045FF002800D051E61A
:103CB000BC687B6834AE2AE5089859463A1C02F085
:103CC00039FF002800D045E67868BC68804634AEED
:103CD0002AE5A3469846141C0123984464194A46D1
:103CE000756045463260BC607D60072D00DC33E5C1
:103CF000089859463A1C02F01DFF002800D029E61A
:103D00007868BC68804634AE27E5089859463A1C66
:103D100002F010FF002800D01CE6BC6834AE47E477
:103D20000E980F99002544428D417F212D2369442F
:103D3000221C0B7098460E940F9501232A43FFF71F
:103D4000CFF9C0462CA1000819981B9902F01EFE5D
:103D5000002800D154E1159D20230B9C9D43A946CA
:103D6000013400D1C5E2472D00D1B5E28023099C82
:103D70005B001C431B9D1B9B1494A846002B00DA80
:103D8000B1E200240C94159D662D00D1C3E2462DAE
:103D900000D116E34B460B9C453B5A425341E41875
:103DA0000223009321AB029322AB039325AB049330
:103DB00001940898199A434600F0C6FCA246139055
:103DC000672D01D0472D03D1099DED0700D4E9E20D
:103DD00013984946041C5444462900D129E2DF4B7C
:103DE000DD4A1998414603F099FC221C00280BD1AA
:103DF000259B1A1C9C4207D930215A1C2592197008
:103E0000259B9C42F9D81A1C139C4D46121B1892F4
:103E1000472D00D1E7E1159C652C00DC36E3159CAD
:103E2000662C00D1C0E2219D1695189D169CA542D6
:103E300000DD61E2099DED0700D5D4E2E343DB1725
:103E400023400D94672415940C9C002C00D0D2E1E3
:103E50007F256D442D78149CA84600250C93099469
:103E60000B95FFF764F9099D119C6D0601D4FFF7CE
:103E7000CEFA0023E35E119D0E930435DB170F93FA
:103E80001195FFF721F9099D6D0600D4E9E0119C19
:103E9000002524880F950E94119C0123043411945D
:103EA0000E9AFFF708FA099D6D0600D4CDE0119C2B
:103EB000002524880F950E94119C0023043411943E
:103EC0000E9AFFF7F8F9099D6D0600D4B3E0119C36
:103ED000002524880F950E94119C04341194FFF74B
:103EE00046FA099DED060BD4099C640608D5119D80
:103EF000129C2D682C80119D04351195FFF716F842
:103F0000119C129D236804341D601194FFF70EF874
:103F1000CB46A146141C49466419013331607560D3
:103F2000BC607B60072B01DCFFF78CFB21E4A34620
:103F3000141CF0E78A488146FFF769FB0898594648
:103F40003A1C02F0F7FD002800D003E5BC6834AE4F
:103F50005AE4844A01343260012272607A68BC609B
:103F600001327A60072A00DD8BE00836181C002831
:103F700007D1189D002D04D1099DED0701D4FFF74D
:103F800062FB179D7B6835601A9D0133611975606E
:103F9000B9607B60072B00DD8BE1321C08324442A4
:103FA000002C00DCA4E0102C00DC5FE26C4D10263D
:103FB000A9465D4604E00832103C102C00DC8BE082
:103FC00048461031013310605660B9607B60072BA2
:103FD000F1DD0898291C3A1C02F0ACFD002800D045
:103FE000A8E0B9687B6834AAE6E7B9680898DA46B9
:103FF000002900D186E459463A1C02F09BFD81E479
:10400000159C472C00DDEBE0574D13957F20099D53
:104010006844802300789D430324099580460C94CE
:1040200003250D95002400250B941695FFF77FF8C6
:104030000D95FFF71DFA119D119C2D680020043489
:104040000E950F901194FFF792F9119D119C2D6818
:10405000002004340E950F90119400232A1CFFF7C2
:104060002AF9119D119C2D68002004340E950F90A3
:10407000119401232A1CFFF71EF93C4D1395FFF7FD
:10408000DEF8089859463A1C02F054FD002800D08A
:1040900060E42198BC6834AE69E7099D013225438C
:1040A00009954B78FEF781FF089859463A1C02F0B3
:1040B00041FD002800D04DE4BC6834AEFFF7BAFBE8
:1040C00002F0F2FC0D90C3437F2068440078DB17B8
:1040D00080460D9DFFF7D3F9AB464D4609190133D4
:1040E00015605460B9607B60072B00DD4DE108323C
:1040F000139C189D146001334C195560BC607B60A3
:10410000072B01DDFFF735FB161CFFF79BFA18495B
:104110008846FFF750F801225242FEF7B4FF089894
:1041200059463A1C02F006FD002800D012E4BC6893
:1041300034AEA4E4AA46FFF7E5FB089859463A1CBA
:1041400002F0F8FC002801D0FFF704FC219BBC68BA
:1041500034AE33E5C046C046000000000000000059
:104160002CA1000828A10008F0A00008E8A0000881
:10417000D8A00008089859463A1C02F0DBFC002839
:1041800001D0FFF7E7FBBC6834AE0CE50898594650
:104190003A1C02F0CFFC002801D0FFF7DBFB189C93
:1041A000219834AE231ABC681EE5CA46FFF7AAFB65
:1041B000BB4A9046FFF779FA0B99062900D90621E8
:1041C000CB43DB17119400240D910B941940B54C8F
:1041D0000C9100250021884616951394FEF7ADFF3B
:1041E000B14C139412E7219CE01C36DB0B9DA542D9
:1041F00033DB169419E6149C7F202D226844099421
:10420000002402700C9390460B94FEF793FF7F20DE
:104210002D23684403709846FFF70AF8A34989469E
:10422000FFF763FB7F20684400780C95804611946B
:10423000F7E60378302B02D0219BE418CFE51998DC
:104240004146964B944A03F069FA0028F4D10123C1
:1042500050461B1A2193E418C1E5159D023D1595A2
:10426000159823AD013C2194A8462870002C00DA53
:10427000DFE06B462B228D331A70092C5DDC6B4618
:104280008E33302230341A705C7024AB4446189D53
:104290001C1B2D191C94189C0D95012C00DCE8E0CA
:1042A0000D9C01340D94E343DB1700252340169544
:1042B000CAE5089859463A1C02F03CFC002801D097
:1042C000FFF748FB2198B9687B6834AA67E60025A8
:1042D00042460B95FEF76AFE0B9C002C00D045E58C
:1042E00001250B9542E580252D062D24A8440C942C
:1042F00049E506240B9439E5169D0123002D00DCC9
:10430000B1E0189C1B190D930D9DDB43DB1767244F
:104310002B40159498E50323009321AB0B9D02934A
:1043200022AB039325AB049301950898199A434651
:1043300000F00AFAAA4613904AE59A216944894690
:104340000B1C201C0A211D1C03F0CEF930312970F2
:10435000201C0A2103F072F96B1E041E092CF0DCEC
:1043600030346A46E4B29B321C70934200D38FE033
:104370000D3A01E05C780133147001329945F9D1AE
:104380008E227B1B6A44D31880E7089859463A1C52
:1043900002F0D0FB002801D0FFF7DCFAB9687B6897
:1043A00034AAA5E6259A2FE5219C1694002C36DD2B
:1043B0000B9D002D2AD1099CE40727D4169B0D9351
:1043C00042E50323009321AB0B9C029322AB0393A2
:1043D00025AB049301940898199A434600F0B4F968
:1043E000A2461390F4E4169D67240135EB43DB17D6
:1043F0000D952B40159427E52C4881468BE52B49DC
:104400008946FFF7C4FB2948814665E40B99169D50
:1044100001316918CB43DB170D910B4014E50B9C60
:10442000002C2CD1099DED0729D4012501230D95E0
:104430000AE56B462D228D3364421A701DE7119DEB
:1044400011992D68043153780B9511914246002D36
:1044500001DBFEF7AAFD012149420B91FEF7A5FD04
:104460001249894657E502235B1B4AE70F488146FC
:1044700033E6099DED0700D512E70D9C13E70B9C71
:104480000234E343DB170D942340DDE4219CE7E68F
:104490006B468E33FAE6C0460000000000000000C4
:1044A000D8A0000820A10008F4A000082CA1000852
:1044B00070B51B4C061CA5440C1C89890220814345
:1044C00068468181616E1991E189C181E169606A03
:1044D00007911AA9009104918021C90002910591C8
:1044E000002109900691301C6946FEF7D9FC051E93
:1044F00005DB301C694601F06DF900280CD16A46D5
:104500009389580603D5A28940231343A381281C0D
:104510008D23DB009D4470BD01256D42EFE7C04651
:1045200098FBFFFF324B70B5061C18680C1C002866
:1045300002D0816B00293BD0A589ABB21A070DD5FB
:104540002269002A15D0D80721D561690023A3600C
:104550004B42A3610020002A21D070BDD8063ED571
:10456000590728D4226908231D43A581ABB2002A2C
:10457000E9D1A02080008021184089008842E2D043
:10458000301C211C01F00EFBA3892269DBE700210E
:10459000980700D46169A1600020002ADDD1A389B9
:1045A0001906DAD5402213430120A3814042D4E703
:1045B00001F02EF9C0E7216B002909D0231C4033FC
:1045C000994203D0301C01F0F5F9A589002323633B
:1045D000242322699D43002363602260C3E70923EB
:1045E000336040231D430120A5814042B5E7C0460A
:1045F00050040020F0B544465F4656464D46F0B4A0
:1046000080468B460C694146096985B000208C4282
:1046100000DD90E05D46013C1435A300029547465D
:10462000ED1814372968FB18013118680393FEF759
:10463000D5FB061E42D000218A46029B3A1CAC469E
:10464000B9465546071C0E1CA24602CB0804000CB6
:104650007843090C79433018040C6418116800047D
:104660000904090C4D19000C281A1568260C24049D
:10467000290C240C0514091B491900040D14000C05
:104680000904014302C29C45DFD203993E1C09681C
:1046900065464F465446002910D1039B043B9F4278
:1046A0000AD21A68002A03D006E01968002903D14B
:1046B000043B013C9F42F8D34246146140465946B0
:1046C00002F076F8002835DB002189460136211CEE
:1046D000029BB4464C463A1C2E1C8946116820CBDE
:1046E0000804000C04192804000C201A090C2D0CD5
:1046F0000414491B091900040C14000C090401439B
:1047000002C29E42EAD24C46A300FB181A686646D3
:10471000002A0FD1043B9F420AD21D68002D03D00E
:1047200006E01968002903D1043B013C9F42F8D3FD
:1047300042461461301C05B03CBC90469946A246E6
:10474000AB46F0BD00000000F0B556464D465F4652
:104750004446F0B4016C9DB08246299D02920393B9
:10476000002909D0436C01229A404B608A6001F015
:104770000DFE002351460B64039E002E34DB002304
:104780002B601F4B321C1A409A421AD0029C039D88
:104790001A4B194A201C291C02F0C0FF002837D0F0
:1047A000289C2A9D01232360002D00D13AE2154860
:1047B000286001381DB03CBC90469946A246AB46E5
:1047C000F0BD114B289C029D2360002D00D10CE20E
:1047D0000E482A9C002CEDD0C278C31C002A00D0C1
:1047E00005332A9D2B60E5E77600012376082B60D0
:1047F0000396C6E7C046C046000000000000000067
:104800000000F07F29A100080F27000048A1000840
:104810001BAB00931AAB019350462B1C221C02F0D9
:1048200057F8330D834600D1E4E1201CBC4C2A0329
:10483000120B211C1143BB4A00241A9F9E1813948B
:10484000A84BA74A04F00AFAA74AA84B03F076FF40
:10485000A74AA84B02F0E6FF041C301C0D1C04F014
:1048600065FDA54AA54B03F069FF021C0B1C201C2B
:10487000291C02F0D7FF041C0D1C04F023FDA04AE4
:10488000A04B0890291C201C02F04EFF002800D0ED
:10489000BBE2089D01241194162D0FD8A24AEB000B
:1048A000D31818685968029A039B02F051FF002838
:1048B00000D1CDE3013D0024089511940024BE1BD6
:1048C0000994013EB14600D5ACE2089C002C00DA08
:1048D00092E20025A1440D940B95269C092C00D949
:1048E000A2E10125052C02DD043C26940025269C2E
:1048F000032C01D100F0FFFC01DC00F07FFC269CC2
:10490000042C01D100F0FDFB01241094269C052C01
:1049100000D08BE1279C08996418129401340A9402
:10492000002C01DC00F037FC0023524653640021C8
:10493000172C0AD9012204235B00181C1430111C07
:104940000132A042F8D953465964504601F0F6FCB2
:1049500051460C9008640E2C00D978E1002D00D14E
:1049600075E1089D002D01DC00F002FD2A1C0F23DB
:104970006D491A40D2008A180899146855680E11BA
:10498000F20601D400F0C3FC1E40684B0298039964
:104990001A6A5B6A03F068FA0E900F910323984637
:1049A000002E12D0614F201C291C444601233342A3
:1049B00004D03A687B68013403F0C0FE76100837F3
:1049C000002EF3D1A0460D1C041C0E980F99221C3A
:1049D0002B1C03F049FA061C0F1C119D002D09D059
:1049E000301C391C484A494B02F09EFE002801D079
:1049F00000F0A9FD404604F099FC021C0B1C301C81
:104A0000391C03F09BFE424A424B02F00BFF0E9012
:104A10000F910F9B464C0A9D1C190F94002D01D13C
:104A200000F044FC089C0A9D1894A846109C002C99
:104A300001D100F0DEFC43463B4A013BDB00D318CA
:104A40001A685B683448354903F00EFA0E9A0F9BDA
:104A500004F004F914901591391C301C04F032FC58
:104A6000041C04F063FC021C0B1C301C391C04F0F9
:104A7000F5F8271C30370C9D0E900F910E9A0F9B66
:104A8000149815990C9EFFB22F70013602F060FE4B
:104A9000002801D000F097FD0E9A0F9B1A481B4981
:104AA00004F0DCF8021C0B1C1498159902F050FE5F
:104AB000002801D000F0C3FD4146012900DCC6E01A
:104AC0004C46199452465C46A8441694B1460E9C36
:104AD0000F9D149E159F0E923EE0C046C046C046F4
:104AE000000000000000F83F61436F63A787D23FDA
:104AF000B3C8608B288AC63FFB799F501344D33FCD
:104B00000000000000000000000000000000F03F76
:104B10000000000000001C40000000000000E03F1A
:104B20000000F03F01FCFFFF60A1000828A2000880
:104B30000000C0FC221C2B1CBE49BD4804F08EF8AE
:104B4000321C3B1C02F0F0FD002801D000F053FDA8
:104B5000C14501D100F05BFD301C391CB64AB74B92
:104B600003F0ECFDB44AB54B061C0F1C201C291C9D
:104B700003F0E4FD0D1C041C04F0A4FB824604F0C9
:104B8000D5FB021C0B1C201C291C04F067F80D1C13
:104B900001210123494299448B4653463033CB448B
:104BA000DBB25A46041C13709A46201C291C321C86
:104BB0003B1C02F0B9FD0028BCD00E9C169BA246FF
:104BC000189C9B464E4608945046594601F0DEFB21
:104BD00000233370089B289C2A9D01332360002DFD
:104BE00000D108E32E600C98E4E5360300D0EFE531
:104BF0009548EEE51A9F1B99944B7D189D4200DA6B
:104C000020E29348934A401B029C8640AB18301C1C
:104C1000DC40204304F0C8FB8F4A012489186E1E33
:104C200013940DE68D48C5E50024269400235546CF
:104C300000216B64504601F081FB01267642002181
:104C400001240C9028640A961296279110941B9BBD
:104C5000002B00DAB2E0089D0E2D00DDAEE0804AA8
:104C6000EB00D3181C685D6804940595279D002D02
:104C700000DA50E2029C039D049A059B201C291C2B
:104C800003F0F2F804F01EFB804604F04FFB049A98
:104C9000059B03F053FD021C0B1C201C291C03F078
:104CA000DDFF43460C9A30330C9E13700A9B041CA4
:104CB0000D1C0136012B53D05F4A604B03F03EFDC3
:104CC0005F4A604B041C0D1C02F028FD002800D038
:104CD0007AE70C990C9F89460A99023752465B463F
:104CE000BA46894402930792049E059F12E0101C65
:104CF000191C514A514B03F021FD514A514B0D1CD7
:104D0000041C01218A44201C291C02F007FD0028F4
:104D100000D0B2E2321C3B1C201C291C03F0A4F87A
:104D200004F0D0FA804604F001FB321C3B1C03F077
:104D300005FD021C0B1C201C291C03F08FFF021C0C
:104D40000B1C041C0D1C4046514601393030D34623
:104D50000870CA45CBD1029A079B564693469A469D
:104D6000221C2B1C201C291C02F05CFD041C0D1CA9
:104D7000221C049805992B1C02F0D6FC00280CD1AB
:104D800004980599221C2B1C02F0C8FC002800D1B5
:104D90001AE74346DB0700D416E7741E27780C9BFE
:104DA00006E0A34200D1CAE2023E3778261C013C4D
:104DB000392FF6D00137FFB2277005E7109C002C81
:104DC00050D0269D012D00DCCCE10A9C0B9D013CBE
:104DD000A54200DA93E22C1B0A9D002D00DA99E32C
:104DE000099E0A9B099D5046ED1801210995994499
:104DF00001F076FB071C38E0089D099C641B0994B0
:104E00006C4200250B940D9567E5089804F08EFA26
:104E10002B1C221C02F082FC089D43424341ED1AE8
:104E2000089536E54D466D420995A1464DE5C046CB
:104E3000000000000000F03F0000000000002440DF
:104E400000000000000000003CA10008EFFBFFFF95
:104E50000EFCFFFF12040000000010FE28A1000855
:104E600060A100080B9C099E0027002E0DD049462A
:104E700000290ADD4B46B14500DD40E1099D494668
:104E8000ED1AC91A0995F61A89460B9D002D1ADDEF
:104E9000109D002D00D127E2002C10DD391C221CB2
:104EA000504601F0C9FB071C5A46391C504601F018
:104EB00021FB5946051C504601F068FAAB460B9D94
:104EC0002A1B00D048E15046012101F009FB0D9C4E
:104ED0008046002C05DD41465046221C01F0ACFB0B
:104EE0008046269D0024012D00DC8EE10D9D0123CE
:104EF000002D00D074E14B441F22134000D19FE0ED
:104F00002022D21A042A00DC9FE31C22D31A099D16
:104F1000F618ED1809959944099D002D05DD5946AF
:104F200050462A1C01F0E4FB83464946002905DD72
:104F3000414650464A4601F0DBFB8046119D002D5C
:104F400000D02EE10A9D002D00DC71E1109D002DA6
:104F500000D180E0002E05DD391C5046321C01F0E6
:104F6000C7FB071CB946002C00D02EE20C9C0A9D02
:104F7000231C013B5B19029D0D9301231D404246FA
:104F80000295A0465D46079254460799281CFFF7F4
:104F900031FB031C30330A90391C281C099301F0A3
:104FA00007FC079982464A46201C01F01DFCC16897
:104FB000061C002900D0E4E0281C311C01F0F8FB9D
:104FC0008346311C201C01F0E1F926995B460B4316
:104FD000514603D1029A002A00D1F8E2002900DAF2
:104FE00062E2269953460B4303D1029A002A00D16C
:104FF000FAE25946002900DD76E2099A41460A7034
:105000000D9946460136884500D17CE2291C0A22CA
:105010000023201C01F0C4F9391C051C0A22201CA5
:1050200000234F4500D1A6E001F0BAF94946071C1C
:105030000A22201C002301F0B3F9B0468146A4E700
:105040001C2364E7C6480299401B8140081CE1E527
:105050000025119532E40C9AB946002447460A9E71
:105060005D46904606E0291C50460A22002301F0C6
:1050700097F9051C391C281CFFF7BCFA031C3033B8
:1050800041460B550134A642EDDC0A9EB846099311
:10509000AB464F46002E00DC40E20C9C0025A619D2
:1050A00059465046012201F023FB4146834601F058
:1050B0007FFB002800DC32E1741E23780C9A06E0A6
:1050C000A24200D1D2E0023E3378261C013C392BAB
:1050D000F6D0013323705046414601F057F9002FB6
:1050E00000D171E5002D05D0BD4203D05046291CEA
:1050F00001F04CF95046391C01F048F964E5331CC5
:10510000BCE601241094279900293DDD0C1C129166
:105110000A91FFF709FC0A9C002C00DDAAE500D0EB
:1051200085E28C4B8A4A0498059903F007FB029AA2
:10513000039B02F017FB002800D1FCE00022904600
:105140000027279C0C9EE44308945046414601F0FA
:105150001DF9002FCED137E55946504601F06CFAC3
:105160008346B0E6139C002C00D1D9E17D4D0B9C09
:105170005B19099E36E601F013F9B046071C81461B
:1051800003E7012293461CE70123012101220124A8
:1051900012930A912792514600234B640021FFF796
:1051A000D4FB5846414601F003FB002800DBC9E66A
:1051B000089D5946013D50460A220023089501F0FA
:1051C000EFF8129D83460A95109D002D00D1B9E697
:1051D000391C50460A22002301F0E2F8071CB1E610
:1051E00041460B6903339B004344586801F02CF996
:1051F00020231B1A7FE60C98FFF7DCFA002410949A
:10520000269C022C00D17EE710E50299002900D0EF
:105210006CE6039A130300D068E6534B134200D1A7
:1052200064E6099C012501340994A94401245DE642
:10523000269D022D00DC89E60A9C002C81D1414686
:1052400050460522002301F0ABF8804641465846FF
:1052500001F0AEFA002800DC73E7089D0C9E0C9C60
:10526000312301350136237008956EE7089C312300
:10527000013408940C9C23702DE70299079A5E462E
:1052800092468B46A0E4404604F050F8021C0B1CEA
:10529000301C391C03F052FA2F4A304B02F0C2FA8C
:1052A0000E900F910F99314A8A180F92294B284A74
:1052B000301C391C03F0D2FC0E9A0F9B041C0D1CF1
:1052C00002F046FA002836D1201C291C0F9C8025AC
:1052D0002D060E9A631902F027FA002800D1B6E4D1
:1052E0000025A84600272CE7594650460B9A01F0A6
:1052F000A3F98346E7E500241094FFF70BFB0B9D11
:105300000B94631B0D9D0024ED180D9564E5029927
:10531000039A0E910F9202229046FFF741FB00285C
:1053200004D1099CE40701D5C6E61E1C731E1A7839
:10533000302AFAD0CFE60025A84600278DE7089D41
:105340003023013508950C9D31272B7027703BE4E5
:1053500000000000000014400000000000001C409D
:10536000EEFBFFFF330400000000F07F0000C0FCF4
:10537000089D6C42002C00D1D8E00F232340BC4A8A
:10538000DB00D318029803991A685B6803F0D6F91A
:105390002411061C0F1C002C00D14CE10221884670
:1053A000B44D301C391C46460122224204D02A68E2
:1053B0006B68013603F0C2F964100835002CF3D194
:1053C000B0460F1C061CFFF708FB7968504600F03A
:1053D000B5FF3A69391C0232041C92000C310C30C2
:1053E00000F018FF5046211C012201F081F981468E
:1053F000BCE54546013D9E4AEB00D3181868596844
:105400000E9A0F9B149503F099F916901791391C79
:10541000301C03F057FF0E9003F088FF0B1C021C9A
:10542000391C301C03F01AFC0E9F0D1C0C9E0C99AD
:1054300030370F70013641444346041C371C0E912F
:10544000012B1ED0B046201C291C844B824A03F03D
:1054500075F9041C0D1C03F035FF061C03F066FFF4
:10546000021C0B1C201C291C03F0F8FB30360E9C80
:105470003E700137A742E8D10D1C14994646041C22
:105480007618774A774B1698179902F0CBF9221CB9
:105490002B1C02F049F9002800D180E0189D741EF1
:1054A000277808950C9B83E4079A5E46A246AB4694
:1054B00044469046002E11DD59465046012201F027
:1054C00017F94146834601F073F9002800DCA6E095
:1054D000099D392D30D00A9D31350995099D661CED
:1054E00025703D1C4F46F6E5AB46079A099DA2463E
:1054F00044469046392D1FD0099B3D1C0133661C44
:1055000023704F46E7E5AB46079DA246A8463D1CE3
:105510004F46C5E5099900234E1B63E40126BCE50F
:105520001A9936235B1A0B9C099E5BE40223029EA8
:10553000039F9846FFF751FA39233D1C661C2370E0
:105540004F460C9AC3E50A9C002C00D19BE6129DA5
:10555000002D01DCFFF77BFB089C404B3E4A301CD2
:10556000391C013C189403F0E9F8061C4046013050
:105570000F1C03F0DBFE021C0B1C301C391C03F05B
:10558000DDF8394A394B02F04DF90E900F910F9D1D
:105590003949129A69180F919046FFF747FA169AFF
:1055A000179B2F482F4903F059FB221C2B1C02F09C
:1055B000CFF8002801D1FFF74AFB00E01E1C731E44
:1055C0001A78302AFAD0189D0895FFF7FDFAAB46F5
:1055D000079A099DA246029144469046392DABD0C8
:1055E000002900DD77E779E7079B5E46A246AB46D8
:1055F000444698465EE70E9D57461699AA46189D62
:105600005C464E468B4608950C9BFFF7D1FB199ADA
:10561000169B0E9C91469B46A246FFF718FB00285E
:1056200000D05BE7099DED0700D457E750E7002164
:105630008846002785E50224A046FFF7CEF9189C8E
:1056400008940C9C231CFFF7B3FB042A00D163E4ED
:105650003C22D31A5BE4C046000000000000244056
:10566000000000000000E03F0000000000001C40BF
:1056700060A1000828A200080000C0FCC046C04687
:10568000F0B5474680B48B8980469AB20D1C11074D
:105690003CD48022120113436A68AB81002A56DD94
:1056A000AC6A002C2ED0414600229BB20E680A60E4
:1056B000DA0450D52A6D5F0706D569682B6B521A3C
:1056C000002B01D0EF6BD21BE96940460023A047B5
:1056D000411C4BD0AA893E4B296913400022AB8163
:1056E0006A602960DA044ED4296B43461E600029A3
:1056F00008D02B1C4033994202D0404600F05AF9A2
:1057000000232B63002004BC9046F0BD2E69002EC0
:10571000F8D02F680023BC1B2E60910700D16B6965
:10572000AB60002C04DCEDE73618241A002CE9DD10
:105730004046E969321C231C6F6AB8470028F3DC35
:10574000AA89402313430120AB814042DBE7EF6B82
:10575000002FA5DCD6E700224046E9690123A047D7
:10576000021C431C1ED0AB89AC6AA4E742461368F6
:10577000002B0AD1A989164A2F690A40AA816B60B9
:105780002F60D104B0D52865AEE71D2B01D0162BB4
:1057900019D1AA890E4B1340AB8100236B602B6992
:1057A0002B60A1E747463B68002BDCD01D2B06D0C1
:1057B000162B04D0A98940230B43AB81A3E74146B4
:1057C0000E6000209FE7AA8940231343AB819AE72C
:1057D000FFF7FFFF38B5041C0D1C002802D0826BB8
:1057E000002A09D00C22AB5E0020002B03D0201C25
:1057F000291CFFF745FF38BD00F00AF8F2E7C04664
:1058000008B5024900F09EF908BDC046816C000849
:10581000F8B5564644465F464D46F0B4846B061CC8
:10582000002C62D1344B0322C363B8239B00C450C5
:10583000B9239B00C250BB239B004568C218BA2302
:105840009B00C2500423281CAB812C606C60AC60B0
:105850006C66EC812C616C61AC61002108225C30CB
:1058600000F01AFD254B264F9A462B62254BED6121
:1058700099466B62244BEF62AB62B5689846092388
:10588000AB81281C0123EB812C606C60AC606C66E2
:105890002C616C61AC61002108225C309B4600F0F9
:1058A000FBFC53462B624B466B624346AB62ED6199
:1058B000EF62F5681223AB81281C0223EB812C6078
:1058C0006C60AC606C662C616C61AC615C3000211A
:1058D000082200F0E1FC53462B624B466B624346C4
:1058E000AB625B46ED61EF62B3633CBC90469946A8
:1058F000A246AB46F8BDC04601580008116A000830
:105900009D6A0008396A0008716A00087047C0463D
:105910007047C046F8B50F1C041C00F00BFD204D6D
:10592000204AAB685E6803239E43F71BBF183F0BFA
:105930001D4B013F3F039F4207DD201C002101F06A
:1059400055F8AA689319984204D0201C00F0F4FC82
:105950000020F8BD7942201C01F048F801300DD03C
:10596000AB68F61B012216435E60104B201C1A68C0
:10597000D71B1F6000F0E0FC0120EAE7201C00219B
:1059800001F034F8AB68C21A0F2ADEDD0849096855
:10599000401A0649086001210A435A60D5E7C0460B
:1059A000B0040020EF0F0000FF0F0000E808002007
:1059B000BC080020F0B5474680B4051C0C1E55D02D
:1059C00000F0B8FC211C083948680127031CBB43C0
:1059D000CA185468804603208443201C534CA66890
:1059E000964260D00026B4464646506037420AD1FF
:1059F0000E68271C891B9B198E680837BE426BD026
:105A0000CF68F760BE601618766801273E4207D15E
:105A10001B18604600282CD09068D268C260906045
:105A20000122181C104366464860CB50002E1AD144
:105A30003F48834229D95A0A042A50D89E09383649
:105A4000700080002018826882424ED0032654687D
:105A5000B443A34202D292689042F8D1D368CB609B
:105A60008A609960D160281C00F066FC04BC9046F6
:105A7000F0BD90682F4EB042CFD11F43C16081600E
:105A8000C86088604F60CB50EDE7DB08981082401B
:105A90006068DB0002436260E418A368CC608B603E
:105AA000A160D960DFE7C3184046074206D10A6803
:105AB000891A88689B18CA68C260906001221A43DC
:105AC0004A601D4AA16012689342CCD31B4B281C2C
:105AD0001968FFF71FFFC6E70126B44693E7142AAB
