:020000040800F2
:1000000000400020BD0700080108000801080008A2
:1000100000000000000000000000000000000000E0
:1000200000000000000000000000000001080008BF
:10003000000000000000000001080008BD020008E8
:10004000010800080108000801080008010800086C
:10005000010800080108000801080008010800085C
:10006000010800080108000801080008010800084C
:10007000010800080108000801080008010800083C
:10008000010800080108000801080008010800082C
:10009000010800080108000801080008010800081C
:1000A000010800080108000801080008010800080C
:1000B00001080008010800080108000801080008FC
:1000C0005FF808F1B0B582B000AF021C3960FB1DCB
:1000D0001A70FB1D1B787F2B2FD92D4CFB1D1B7815
:1000E0001A1C0F231340083B9908294AFB1D1B7853
:1000F000181C0F230340083B9B0806339B00D318B2
:100100005B68FA1D1278101C03220240D200101CFA
:10011000FF228240D2431A403B689B01FF200340EC
:10012000F81D0078051C03202840C00083401A43B6
:100130008B1D9B00E3185A6026E0164CFB1D1B78B4
:100140005BB29B081349FA1D127852B29208C03272
:1001500092005258F91D0978081C03210140C9007A
:10016000081CFF218140C94311403A689201FF20D9
:100170000240F81D0078051C03202840C000824082
:100180000A43C0339B001A51BD4602B0B0BDC04601
:1001900000ED00E000E100E080B582B000AF7860E3
:1001A0007B680E4A934201D9012312E00C4B7A6816
:1001B0001202120A013A5A6001235B42181C032101
:1001C000FFF780FF064B00229A60054B07221A605A
:1001D0000023181CBD4602B080BDC046FFFFFF00D3
:1001E00010E000E090B585B000AF7860144B7A68FD
:1001F0001A60C046134B1C681348796800F0E0FD94
:10020000031C201C191C00F0DBFD031C181CFFF74D
:10021000C3FF031EEED10C23FB18FF221A700C2320
:10022000FB1800225A700C23FB1801229A700C2331
:10023000FB18181C00F070FDBD4605B090BDC0460F
:10024000280000201000002040420F0080B500AFC1
:10025000054B1B68002B04D0034B1B685A1E024B36
:100260001A60BD4680BDC0462400002080B500AFA6
:10027000084B1A68FA239800111C00F0A1FD031C1A
:100280001A1C054B1A60C046034B1B68002BFBD1A0
:10029000BD4680BD280000202400002080B582B02B
:1002A00000AF786001E0FFF7E1FF7B685A1E7A60DB
:1002B000002BF8D1BD4602B080BDC04680B500AF6E
:1002C000FFF7C4FF174B1B685A1C164B1A60164BDE
:1002D0001A68164B1B68D218144B1A60134B1A6815
:1002E000FA239B009A421BD9114B1B685A1C104BD6
:1002F0001A600E4B1B680F4A9A180C4B1A600C4B75
:100300001A68FA239B009A420AD90B4B1B685A1CA5
:10031000094B1A60064B1B68064A9A18044B1A6070
:10032000BD4680BD3C000020280000203000002099
:100330003800002018FCFFFF3400002080B588B092
:1003400000AF78600023FB610023BB6100237B6169
:1003500000233B610023FB608A4B5B680C22134047
:10036000FB61FB69042B0CD002D8002B05D03AE0CE
:10037000082B0AD00C2B32D035E07B68824A1A60F9
:1003800035E07B68804A1A6031E07E4B5A68F02382
:100390009B031340BB617B4B5A68C0235B02134035
:1003A0007B61BB699B0C0233BB617B69002B05D170
:1003B000BB69764A5A437B681A6018E0714BDB6A66
:1003C0000F22134001333B616F48396900F0F8FC9C
:1003D000031C1A1CBB695A437B681A6007E07B68E0
:1003E0006B4A1A6003E07B68674A1A60C046654B37
:1003F0005B68F0221340FB61FB691B09FB61654AE6
:10040000FB69D3181B78DBB2FB607B681A68FB685A
:10041000DA407B685A605B4B5A68E023DB0013408C
:10042000FB61FB691B0AFB615A4AFB69D3181B7805
:10043000DBB2FB607B685A68FB68DA407B689A60D5
:10044000504B1A6B80235B00134003D17B68524AE8
:10045000DA6010E04B4B5A688023DB01134005D172
:100460007B689B685A087B68DA6004E07B689B685D
:100470009A087B68DA60434B1B6B4022134003D120
:100480007B68464A1A6103E07B68802212021A6187
:100490003C4B1B6B1022134003D17B683A4A5A61D4
:1004A00003E07B681A687B685A61364B1B6B03223A
:1004B000134004D17B689A687B689A611EE0314BD7
:1004C0001B6B03221340012B04D17B681A687B68E5
:1004D0009A6113E02B4B1B6B03221340022B04D1B8
:1004E0007B68802212029A6108E0264B1B6B032274
:1004F0001340032B02D17B68234A9A61214B1A6B6C
:10050000C0239B02134004D17B689A687B68DA6140
:1005100027E01C4B1A6BC0239B021A4080235B020E
:100520009A4204D17B681A687B68DA6119E0154B3E
:100530001A6BC0239B021A4080239B029A4204D16B
:100540007B6880221202DA610BE00E4B1A6BC0232B
:100550009B021A40C0239B029A4202D17B680A4A3E
:10056000DA61084B1B6B8022134003D17B68084A79
:100570001A6203E07B681A687B681A62BD4608B09D
:1005800080BDC0460010024000127A0000093D0004
:10059000006CDC0200000020809FD500128000006B
:1005A00080B582B000AF78600A1CFB1C1A70FB1C7F
:1005B0001B78002B06D0084B074A51697A680A431A
:1005C0005A6106E0044B044A52697968C9430A40FB
:1005D0005A61BD4602B080BD0010024080B582B0B5
:1005E00000AF78600A1CFB1C1A70FB1C1B78002BE8
:1005F00006D0084B074AD1697A680A43DA6106E0F7
:10060000044B044AD2697968C9430A40DA61BD469D
:1006100002B080BD0010024080B500AFFA239B00FD
:10062000181CFFF7DFFD00F013F800F06DF800F084
:1006300031F8064B1B780133DAB2044B1A70FA23F7
:100640009B00181CFFF72AFEF3E7C0462C00002091
:1006500080B582B000AF80239B02181C0121FFF7F8
:100660009FFF3B1C20221A603B1C01221A713B1C7D
:1006700000229A713B1C03225A713B1C0022DA7142
:100680009023DA053B1C101C191C00F0BBF8BD467A
:1006900002B080BD80B500AF9023DB05181C20217F
:1006A00000F050F90520FFF7F9FD9023DB05181C39
:1006B000202100F039F9FA235B00181CFFF7EEFD4A
:1006C0009023DB05181C202100F03CF9FA235B0085
:1006D000181CFFF7E3FD9023DB05181C202100F018
:1006E00023F9FA235B00181CFFF7D8FD9023DB05E4
:1006F000181C202100F026F9FA235B00181CFFF7D4
:10070000CDFDBD4680BDC04680B588B000AF80231A
:100710009B02181C0121FFF743FF80239B02181C3A
:100720000121FFF75BFF1823FB1804221A6018232E
:10073000FB1802221A711823FB1800229A71182341
:10074000FB1803225A711823FB180122DA71902337
:10075000DA051823FB18101C191C00F053F890231D
:10076000DB05181C0221012200F0FAF83B1CE122F3
:1007700052021A603B1C00225A603B1C00229A6005
:100780003B1C0022DA603B1C00225A613B1C082201
:100790001A61094A3B1C101C191C00F031F9064B68
:1007A000181C012100F0E6F9FA239B00181CFFF742
:1007B00075FDBD4608B080BD00440040002103E047
:1007C0000A4B5B584350043109480A4B42189A427D
:1007D000F6D3094A02E0002313600432074B9A4221
:1007E000F9D300F0E3F9FFF717FF7047E40E0008B4
:1007F00000000020240000202400002040000020F1
:10080000FEE7000080B586B000AF78603960002355
:100810007B6100233B610023FB6000237B617CE064
:100820007B6901229A40131C3B613B681B683A6953
:100830001340FB60FA683B699A426BD13B681B79B5
:10084000012B03D03B681B79022B34D17B689B685A
:100850007A695200111C03228A40D2431A407B68F5
:100860009A607B689A683B685B79191C7B695B00BE
:1008700099400B1C1A437B689A607B689B889BB2EB
:100880007A6992B2111C01228A4092B2D24392B28A
:1008900013409AB27B689A807B689B889AB23B68C7
:1008A0009B79191C7B699BB299400B1C9BB213432B
:1008B0009AB27B689A807B681B687A695200111C27
:1008C00003228A40D2431A407B681A607B681A6808
:1008D0003B681B79191C7B695B0099400B1C1A4310
:1008E0007B681A607B68DB687A6992B252000321E8
:1008F00091400A1CD2431A407B68DA607B68DA6850
:100900003B68DB79191C7B695B0099400B1C1A431F
:100910007B68DA607B6901337B617B690F2B00D8D0
:100920007EE7BD4606B080BD80B582B000AF78607E
:100930000A1CBB1C1A80BB1C1A887B689A61BD46C6
:1009400002B080BD80B582B000AF78600A1CBB1CCD
:100950001A807B68BA1C12881A85BD4602B080BD19
:1009600080B584B000AF7860081C111CBB1C021C51
:100970001A807B1C0A1C1A700023FB600023BB60DA
:100980007B1C1B78BA1C128807210A4092009340F6
:10099000FB60BB1C1B88DB089BB2181CBB1C1B88A4
:1009A000DB089BB21A1C7B6808329200D358BA1C31
:1009B000128807210A409200111C0F228A40D2435C
:1009C0001A40111C7B68021C08329200D150BB1CDB
:1009D0001B88DB089BB21A1C7B6808329200D25835
:1009E000FB681343BB60BB1C1B88DB089BB21A1C53
:1009F0007B6808329200B968D150BD4604B080BD12
:100A000080B58EB000AF7860396000237B6300232F
:100A10003B630023FB627B681B68012293431A1C23
:100A20007B681A607B685B68FB62FB6A4B4A134019
:100A3000FB623B689B68FA6A1343FB627B68FA6A55
:100A40005A607B681B68FB62FB6A454A1340FB6285
:100A50003B685A683B68DB681A433B681B69134371
:100A6000FA6A1343FB627B68FA6A1A607B689B68C8
:100A7000FB62FB6A3B4A1340FB623B685B69FA6AB4
:100A80001343FB627B68FA6A9A600823FB18181C00
:100A9000FFF754FC7B68344A934204D10823FB18C7
:100AA0009B693B630CE07B68304A934204D1082386
:100AB000FB18DB693B6303E00823FB189B683B637F
:100AC0007B681A6880231B02134014D03B6B5A00CA
:100AD0003B681B68101C191C00F072F9031C7B6337
:100AE0003B6B5A003B681B68101C191C00F0EEF9A8
:100AF0000B1CFB6210E03B681B68386B191C00F094
:100B00005FF9031C7B633B681B683A6B101C191C64
:100B100000F0DCF90B1CFB623B681B685A08FB6A9F
:100B20009A4202D87B6B01337B637B681A6880230F
:100B30001B0213400AD07B6B0F2213405B08FB6241
:100B40007B6B0B4A1A40FB6A13437B637B6B9AB245
:100B50007B689A81BD460EB080BDC046FFCFFFFFC7
:100B6000F3E9FFFFFFFCFFFF0038014000440040B5
:100B7000F0FF000080B582B000AF78600A1CFB1C5B
:100B80001A70FB1C1B78002B06D07B681B680122A7
:100B90001A437B681A6006E07B681B680122934356
:100BA0001A1C7B681A60BD4602B080BD80B500AFDC
:100BB0001B4B1B4A126801210A431A60184B184A42
:100BC000526818490A405A60154B154A126816496E
:100BD0000A401A60124B124A126814490A401A60FD
:100BE0000F4B0F4A526812490A405A600C4B0C4A8C
:100BF000D26A0F218A43DA62094B094A126B0D4906
:100C00000A401A63064B064A526B01218A435A6313
:100C1000034B00229A6000F00FF8BD4680BDC0462D
:100C2000001002400CB8FFF8FFFFF6FEFFFFFBFFCD
:100C3000FFFFC0FFACFEFFFF80B582B000AF002316
:100C40007B6000233B60314B304A126880214902AF
:100C50000A431A602D4B1A6880239B0213403B60A5
:100C60007B6801337B603B68002B04D17A68A0234A
:100C7000DB009A42EED1254B1A6880239B02134079
:100C800002D001233B6001E000233B603B68012B65
:100C900038D11F4B11221A601C4B1C4A52685A60F3
:100CA0001A4B1A4A52685A60184B184A5268194926
:100CB0000A405A60154B154A5268882149030A4375
:100CC0005A60124B114A1268802149040A431A6083
:100CD000C0460E4B1A6880239B041340F9D00B4B7F
:100CE0000A4A526803218A435A60084B074A5268ED
:100CF00002210A435A60C046044B5B680C22134031
:100D0000082BF9D1BD4602B080BDC046001002409C
:100D100000200240FF7FC0FF80B584B000AF786044
:100D20000023FB607B689B78002B39D0234A7B68CB
:100D30001B789B08DBB2C0339B009B58FB607B6831
:100D40001B781A1C03231340DB00FF229A40131C5C
:100D5000DA43FB681340FB607B685B789B01FF22F2
:100D60001A407B681B78191C03230B40DB009A4058
:100D7000131CFA681343FB6010497B681B789B08BF
:100D8000DBB2C0339B00FA685A500C4B7A68127879
:100D9000111C1F220A40012191400A1C1A600AE01E
:100DA00006497B681B781A1C1F23134001229A40B6
:100DB000131C80228B50BD4604B080BD00E100E0D2
:100DC000002243088B4274D303098B425FD3030A8A
:100DD0008B4244D3030B8B4228D3030C8B420DD39D
:100DE000FF22090212BA030C8B4202D3121209022B
:100DF00065D0030B8B4219D300E0090AC30B8B4269
:100E000001D3CB03C01A5241830B8B4201D38B0316
:100E1000C01A5241430B8B4201D34B03C01A5241BB
:100E2000030B8B4201D30B03C01A5241C30A8B42FE
:100E300001D3CB02C01A5241830A8B4201D38B02E9
:100E4000C01A5241430A8B4201D34B02C01A52418D
:100E5000030A8B4201D30B02C01A5241CDD2C309FF
:100E60008B4201D3CB01C01A524183098B4201D37B
:100E70008B01C01A524143098B4201D34B01C01A66
:100E8000524103098B4201D30B01C01A5241C308DE
:100E90008B4201D3CB00C01A524183088B4201D34D
:100EA0008B00C01A524143088B4201D34B00C01A39
:100EB0005241411A00D20146524110467047FFE7A5
:100EC00001B5002000F00CF802BDC0460029F7D0A3
:100ED00003B5FFF775FF0EBC4243891A1847C04699
:040EE0007047C04651
:100EE40000000000010203040102030406070809CC
:100EF400006CDC020000000000000000010203049A
:040F040006070809CB
:0400000508000000EF
:00000001FF
