:020000040800F2
:1000000000400020410C0008850C0008850C000809
:1000100000000000000000000000000000000000E0
:10002000000000000000000000000000850C000837
:100030000000000000000000850C0008BD02000860
:10004000850C0008850C0008850C0008850C00084C
:10005000850C0008850C0008850C0008850C00083C
:10006000850C0008850C0008850C0008850C00082C
:10007000850C0008850C0008850C0008A508000800
:10008000850C0008850C0008850C0008850C00080C
:10009000850C0008850C0008850C0008850C0008FC
:1000A000850C0008850C0008850C0008850C0008EC
:1000B000850C0008850C0008850C0008850C0008DC
:1000C0005FF808F1B0B582B000AF021C3960FB1DCB
:1000D0001A70FB1D1B787F2B2FD92D4CFB1D1B7815
:1000E0001A1C0F231340083B9908294AFB1D1B7853
:1000F000181C0F230340083B9B0806339B00D318B2
:100100005B68FA1D1278101C03220240D200101CFA
:10011000FF228240D2431A403B689B01FF200340EC
:10012000F81D0078051C03202840C00083401A43B6
:100130008B1D9B00E3185A6026E0164CFB1D1B78B4
:100140005BB29B081349FA1D127852B29208C03272
:1001500092005258F91D0978081C03210140C9007A
:10016000081CFF218140C94311403A689201FF20D9
:100170000240F81D0078051C03202840C000824082
:100180000A43C0339B001A51BD4602B0B0BDC04601
:1001900000ED00E000E100E080B582B000AF7860E3
:1001A0007B680E4A934201D9012312E00C4B7A6816
:1001B0001202120A013A5A6001235B42181C032101
:1001C000FFF780FF064B00229A60054B07221A605A
:1001D0000023181CBD4602B080BDC046FFFFFF00D3
:1001E00010E000E090B585B000AF7860144B7A68FD
:1001F0001A60C046134B1C681348796801F08CF9EB
:10020000031C201C191C01F087F9031C181CFFF7A4
:10021000C3FF031EEED10C23FB18FF221A700C2320
:10022000FB1800225A700C23FB1801229A700C2331
:10023000FB18181C01F01CF9BD4605B090BDC04666
:10024000280000201000002040420F0080B500AFC1
:10025000054B1B68002B04D0034B1B685A1E024B36
:100260001A60BD4680BDC0462400002080B500AFA6
:10027000084B1A68FA239800111C01F04DF9031C71
:100280001A1C054B1A60C046034B1B68002BFBD1A0
:10029000BD4680BD280000202400002080B582B02B
:1002A00000AF786001E0FFF7E1FF7B685A1E7A60DB
:1002B000002BF8D1BD4602B080BDC04680B500AF6E
:1002C000FFF7C4FF174B1B685A1C164B1A60164BDE
:1002D0001A68164B1B68D218144B1A60134B1A6815
:1002E000FA239B009A421BD9114B1B685A1C104BD6
:1002F0001A600E4B1B680F4A9A180C4B1A600C4B75
:100300001A68FA239B009A420AD90B4B1B685A1CA5
:10031000094B1A60064B1B68064A9A18044B1A6070
:10032000BD4680BD3C000020280000203000002099
:100330003800002018FCFFFF3400002080B588B092
:1003400000AF78600023FB610023BB6100237B6169
:1003500000233B610023FB608A4B5B680C22134047
:10036000FB61FB69042B0CD002D8002B05D03AE0CE
:10037000082B0AD00C2B32D035E07B68824A1A60F9
:1003800035E07B68804A1A6031E07E4B5A68F02382
:100390009B031340BB617B4B5A68C0235B02134035
:1003A0007B61BB699B0C0233BB617B69002B05D170
:1003B000BB69764A5A437B681A6018E0714BDB6A66
:1003C0000F22134001333B616F48396901F0A4F8F3
:1003D000031C1A1CBB695A437B681A6007E07B68E0
:1003E0006B4A1A6003E07B68674A1A60C046654B37
:1003F0005B68F0221340FB61FB691B09FB61654AE6
:10040000FB69D3181B78DBB2FB607B681A68FB685A
:10041000DA407B685A605B4B5A68E023DB0013408C
:10042000FB61FB691B0AFB615A4AFB69D3181B7805
:10043000DBB2FB607B685A68FB68DA407B689A60D5
:10044000504B1A6B80235B00134003D17B68524AE8
:10045000DA6010E04B4B5A688023DB01134005D172
:100460007B689B685A087B68DA6004E07B689B685D
:100470009A087B68DA60434B1B6B4022134003D120
:100480007B68464A1A6103E07B68802212021A6187
:100490003C4B1B6B1022134003D17B683A4A5A61D4
:1004A00003E07B681A687B685A61364B1B6B03223A
:1004B000134004D17B689A687B689A611EE0314BD7
:1004C0001B6B03221340012B04D17B681A687B68E5
:1004D0009A6113E02B4B1B6B03221340022B04D1B8
:1004E0007B68802212029A6108E0264B1B6B032274
:1004F0001340032B02D17B68234A9A61214B1A6B6C
:10050000C0239B02134004D17B689A687B68DA6140
:1005100027E01C4B1A6BC0239B021A4080235B020E
:100520009A4204D17B681A687B68DA6119E0154B3E
:100530001A6BC0239B021A4080239B029A4204D16B
:100540007B6880221202DA610BE00E4B1A6BC0232B
:100550009B021A40C0239B029A4202D17B680A4A3E
:10056000DA61084B1B6B8022134003D17B68084A79
:100570001A6203E07B681A687B681A62BD4608B09D
:1005800080BDC0460010024000127A0000093D0004
:10059000006CDC0200000020809FD500128000006B
:1005A00080B582B000AF78600A1CFB1C1A70FB1C7F
:1005B0001B78002B06D0084B074A51697A680A431A
:1005C0005A6106E0044B044A52697968C9430A40FB
:1005D0005A61BD4602B080BD0010024080B582B0B5
:1005E00000AF78600A1CFB1C1A70FB1C1B78002BE8
:1005F00006D0084B074A91697A680A439A6106E077
:10060000044B044A92697968C9430A409A61BD461D
:1006100002B080BD0010024080B582B000AF7860AB
:100620000A1CFB1C1A70FB1C1B78002B06D0084B05
:10063000074AD1697A680A43DA6106E0044B044A42
:10064000D2697968C9430A40DA61BD4602B080BD0B
:100650000010024080B582B000AF78600A1CFB1C1D
:100660001A70FB1C1B78002B06D0084B074AD16878
:100670007A680A43DA6006E0044B044AD268796873
:10068000C9430A40DA60BD4602B080BD0010024096
:1006900080B582B000AF78607B68094A93420BD185
:1006A00080239B00181C0121FFF7D4FF80239B00AF
:1006B000181C0021FFF7CEFFBD4602B080BDC0462A
:1006C0000024014080B584B000AF78603960002319
:1006D000FB607B68DB68FB60FB680F4A1340FB60D4
:1006E0003B681A683B681B795B031A433B689B684D
:1006F0001A433B68DB681A433B681B691A433B6833
:100700005B691343FA681343FB607B68FA68DA603D
:10071000BD4604B080BDC04603D2FFFF80B582B0A5
:1007200000AF78600A1CFB1C1A70FB1C1B78002BA6
:1007300006D07B689B6801221A437B689A6005E0BB
:100740007B689B6802221A437B689A60BD4602B0B0
:1007500080BDC04680B586B000AFF860B9607A60F1
:1007600000237B61FB689A6ABB681A43FB689A6244
:100770007B69072293437B617A697B6813437B61C2
:10078000FB687A695A61BD4606B080BD80B582B00B
:1007900000AF78607B689B6804221A437B689A608C
:1007A000BD4602B080BDC04680B582B000AF786063
:1007B0000A1CFB1C1A70FB1C1B78002B06D07B68E4
:1007C000DB6801221A437B68DA6006E07B68DB683D
:1007D000012293431A1C7B68DA60BD4602B080BDDB
:1007E00080B582B000AF786039607B68DB68022238
:1007F00093431A1C7B68DA607B68DA683B681A43AB
:100800007B68DA60BD4602B080BDC04680B582B06C
:1008100000AFFA239B00181CFFF7E4FC00F062F81D
:1008200000F082F800F0DAF800F012F900F05AF95E
:10083000194B181CFFF7AAFF27E0BB1D174A1288A7
:100840001A803B1D154A52881A80BB1C134A928895
:100850001A80BB1C1B88322B07D8BB1D1B88322B70
:1008600003D83B1D1B88322B06D99023DB05181CAF
:10087000202100F0F5FA05E09023DB05181C20216B
:1008800000F0FCFA064B00221A70054B1B78DBB215
:10089000002BD2D1D0E7C046002401404000002008
:1008A0002C00002080B500AF8023DB05181C01213F
:1008B00000F0D8FC031E0FD0084B01221A70084B21
:1008C0001B78DBB20133DAB2054B1A708023DB05EB
:1008D000181C012100F006FDBD4680BD2C00002043
:1008E0002D00002080B582B000AF80239B02181C31
:1008F0000121FFF755FE3B1C20221A603B1C012200
:100900001A713B1C00229A713B1C03225A713B1C3A
:100910000022DA719023DA053B1C101C191C00F030
:100920000DFABD4602B080BD80B588B000AF80230F
:100930009B02181C0121FFF733FE80239B02181C29
:100940000121FFF769FE1823FB1804221A601823FF
:10095000FB1802221A711823FB1800229A7118231F
:10096000FB1803225A711823FB180122DA71902315
:10097000DA051823FB18101C191C00F0DFF990236E
:10098000DB05181C0221012200F086FA3B1CE12243
:1009900052021A603B1C00225A603B1C00229A60E3
:1009A0003B1C0022DA603B1C00225A613B1C0822DF
:1009B0001A61094A3B1C101C191C00F0BDFA064BB9
:1009C000181C012100F072FBFA239B00181CFFF792
:1009D00065FCBD4608B080BD0044004080B500AF56
:1009E0009023DB05181C202100F048FA0520FFF7B2
:1009F00055FC9023DB05181C202100F031FAFA2366
:100A00005B00181CFFF74AFC9023DB05181C202113
:100A100000F034FAFA235B00181CFFF73FFC902328
:100A2000DB05181C202100F01BFAFA235B00181CC0
:100A3000FFF734FC9023DB05181C202100F01EFA80
:100A4000FA235B00181CFFF729FCBD4680BDC04699
:100A500080B584B000AF0C23FB180F221A700C2352
:100A6000FB1800225A700C23FB1801229A700C23E9
:100A7000FB18181C00F0FCFC01200121FFF7CCFD45
:100A80003B1C154A5A60154B1B68181C144900F092
:100A900043FD031C9BB2013B9AB23B1C1A803B1CDA
:100AA00000221A813B1C00225A808023DA053B1C5D
:100AB000101C191C00F016FB8023DB05181C0121FB
:100AC000012200F0A7FB8023DB05181C012100F0A8
:100AD00081FBBD4604B080BD3F420F0010000020E6
:100AE00040420F0080B594B000AF01200121FFF714
:100AF00057FD80239B02181C0121FFF751FD802325
:100B00009B00181C0121FFF769FD3B1D13221A6091
:100B10003B1D03221A713B1D0022DA719023DA0576
:100B20003B1D101C191C00F009F90C23FB18404A4E
:100B30001A60404A0C23FB185A600C23FB18002251
:100B40009A600C23FB180322DA600C23FB180022A6
:100B50001A610C23FB1880225A610C23FB18802297
:100B600052009A610C23FB188022D200DA610C2318
:100B7000FB1820221A620C23FB18802292015A6271
:100B80000C23FB1800229A622B4A0C23FB18101C22
:100B9000191C00F079F8284B181C012100F0B0F85E
:100BA000264B181C0121FFF7FFFD244B181C0221C6
:100BB000FFF716FE214B181CFFF76AFD3823FB18C0
:100BC00001221A713823FB1800221A613823FB18FE
:100BD0004022DA603823FB1800229A603823FB1881
:100BE00000221A603823FB1800225A61134A382366
:100BF000FB18101C191CFFF765FD104B181C012178
:100C00000522FFF7A7FD0D4B181C02210522FFF757
:100C1000A1FD0A4B181C10210522FFF79BFD074B75
:100C2000181C0121FFF77AFDBD4614B080BDC046F7
:100C30004024014040000020080002400024014000
:100C4000002103E00A4B5B584350043109480A4B2A
:100C500042189A42F6D3094A02E000231360043294
:100C6000074B9A42F9D300F04DFBFFF7CFFD7047D9
:100C70003C16000800000020240000202400002072
:100C800048000020FEE7000080B584B000AF786027
:100C900039600023FB607B681B68FB60FB68174AB8
:100CA0001340FB603B689A683B681B6A1A433B68C9
:100CB0001B691A433B685B691A433B689B691A438B
:100CC0003B68DB691A433B685B6A1A433B689B6A73
:100CD0001343FA681343FB607B68FA681A603B6849
:100CE000DA687B685A603B681A687B689A603B6880
:100CF0005A687B68DA60BD4604B080BD0F80FFFF94
:100D000080B582B000AF78600A1CFB1C1A70FB1C17
:100D10001B78002B06D07B681B6801221A437B6876
:100D20001A6005E07B681B68034A1A407B681A60FA
:100D3000BD4602B080BDC046FEFF000080B586B053
:100D400000AF7860396000237B6100233B610023A2
:100D5000FB6000237B617CE07B6901229A40131CCD
:100D60003B613B681B683A691340FB60FA683B696A
:100D70009A426BD13B681B79012B03D03B681B79EE
:100D8000022B34D17B689B687A695200111C0322C4
:100D90008A40D2431A407B689A607B689A683B68B5
:100DA0005B79191C7B695B0099400B1C1A437B68BB
:100DB0009A607B689B889BB27A6992B2111C01226F
:100DC0008A4092B2D24392B213409AB27B689A8020
:100DD0007B689B889AB23B689B79191C7B699BB2A4
:100DE00099400B1C9BB213439AB27B689A807B6834
:100DF0001B687A695200111C03228A40D2431A40B0
:100E00007B681A607B681A683B681B79191C7B69D0
:100E10005B0099400B1C1A437B681A607B68DB6897
:100E20007A6992B25200032191400A1CD2431A40BF
:100E30007B68DA607B68DA683B68DB79191C7B6960
:100E40005B0099400B1C1A437B68DA607B690133B5
:100E50007B617B690F2B00D87EE7BD4606B080BD65
:100E600080B582B000AF78600A1CBB1C1A80BB1C26
:100E70001A887B689A61BD4602B080BD80B582B099
:100E800000AF78600A1CBB1C1A807B68BA1C1288F1
:100E90001A85BD4602B080BD80B584B000AF7860D1
:100EA000081C111CBB1C021C1A807B1C0A1C1A701B
:100EB0000023FB600023BB607B1C1B78BA1C1288DC
:100EC00007210A4092009340FB60BB1C1B88DB0893
:100ED0009BB2181CBB1C1B88DB089BB21A1C7B68CE
:100EE00008329200D358BA1C128807210A40920097
:100EF000111C0F228A40D2431A40111C7B68021C2D
:100F000008329200D150BB1C1B88DB089BB21A1C14
:100F10007B6808329200D258FB681343BB60BB1C4D
:100F20001B88DB089BB21A1C7B6808329200B968E8
:100F3000D150BD4604B080BD80B58EB000AF7860A2
:100F4000396000237B6300233B630023FB627B68E3
:100F50001B68012293431A1C7B681A607B685B68DC
:100F6000FB62FB6A4B4A1340FB623B689B68FA6A70
:100F70001343FB627B68FA6A5A607B681B68FB62FA
:100F8000FB6A454A1340FB623B685A683B68DB6872
:100F90001A433B681B691343FA6A1343FB627B687D
:100FA000FA6A1A607B689B68FB62FB6A3B4A1340E3
:100FB000FB623B685B69FA6A1343FB627B68FA6A0F
:100FC0009A600823FB18181CFFF7B8F97B68344AAD
:100FD000934204D10823FB189B693B630CE07B68B8
:100FE000304A934204D10823FB18DB693B6303E0DA
:100FF0000823FB189B683B637B681A6880231B02ED
:10100000134014D03B6B5A003B681B68101C191C22
:1010100000F082FA031C7B633B6B5A003B681B6841
:10102000101C191C00F0FEFA0B1CFB6210E03B6860
:101030001B68386B191C00F06FFA031C7B633B685C
:101040001B683A6B101C191C00F0ECFA0B1CFB62BD
:101050003B681B685A08FB6A9A4202D87B6B0133D3
:101060007B637B681A6880231B0213400AD07B6B6A
:101070000F2213405B08FB627B6B0B4A1A40FB6A32
:1010800013437B637B6B9AB27B689A81BD460EB03B
:1010900080BDC046FFCFFFFFF3E9FFFFFFFCFFFF6E
:1010A0000038014000440040F0FF000080B582B0ED
:1010B00000AF78600A1CFB1C1A70FB1C1B78002B0D
:1010C00006D07B681B6801221A437B681A6006E021
:1010D0007B681B68012293431A1C7B681A60BD461B
:1010E00002B080BD80B584B000AF786039600E2357
:1010F000FB1800221A800E23FB187A6812881A80C7
:101100007B682D4A934208D07A688023DB059A4297
:1011100003D07B68294A934210D10E23FB180E227C
:10112000BA18128870218A431A803B6859880E23A6
:10113000FB180E22BA1812880A431A807B68204ACC
:10114000934210D00E23FB180E22BA1812881D49A4
:101150000A401A803B6819890E23FB180E22BA1820
:1011600012880A431A807B680E22BA1812881A80E5
:101170003B685A687B68DA623B681A887B681A8524
:101180007B680D4A93420BD07B680F4A934207D08D
:101190007B680E4A934203D07B680D4A934204D188
:1011A0003B689B7A9AB27B681A867B6801229A8296
:1011B000BD4604B080BDC046002C01400004004084
:1011C00000100040FFFCFFFF0040014000440140D0
:1011D0000048014080B582B000AF78600A1CFB1C5B
:1011E0001A70FB1C1B78002B08D07B681B889BB2F5
:1011F000012213439AB27B681A8007E07B681B8840
:101200009BB2012293439AB27B681A80BD4602B01A
:1012100080BDC04680B582B000AF7860081C111C4C
:10122000BB1C021C1A807B1C0A1C1A707B1C1B78BE
:10123000002B09D07B689B899AB2BB1C1B88134387
:101240009AB27B689A810AE07B689B899BB2BA1C40
:101250001288D24392B213409AB27B689A81BD46FB
:1012600002B080BD80B584B000AF78600A1CBB1CA2
:101270001A800F23FB1800221A700C23FB1800227F
:101280001A800A23FB1800221A807B681B8A9AB2F4
:101290000C23FB18B91C09880A401A807B689B89BB
:1012A0009AB20A23FB18B91C09880A401A800C2339
:1012B000FB181B88002B09D00A23FB181B88002B66
:1012C00004D00F23FB1801221A7003E00F23FB1830
:1012D00000221A700F23FB181B78181CBD4604B09F
:1012E00080BDC04680B582B000AF78600A1CBB1CD0
:1012F0001A80BB1C1B88DB439AB27B681A82BD46EE
:1013000002B080BD80B500AF1B4B1B4A12680121A3
:101310000A431A60184B184A526818490A405A6022
:10132000154B154A126816490A401A60124B124AA8
:10133000126814490A401A600F4B0F4A526812494A
:101340000A405A600C4B0C4AD26A0F218A43DA6277
:10135000094B094A126B0D490A401A63064B064AAB
:10136000526B01218A435A63034B00229A6000F0BA
:101370000FF8BD4680BDC046001002400CB8FFF813
:10138000FFFFF6FEFFFFFBFFFFFFC0FFACFEFFFF0E
:1013900080B582B000AF00237B6000233B60314BFF
:1013A000304A1268802149020A431A602D4B1A689C
:1013B00080239B0213403B607B6801337B603B686A
:1013C000002B04D17A68A023DB009A42EED1254B92
:1013D0001A6880239B02134002D001233B6001E086
:1013E00000233B603B68012B38D11F4B11221A6050
:1013F0001C4B1C4A52685A601A4B1A4A52685A606F
:10140000184B184A526819490A405A60154B154A38
:101410005268882149030A435A60124B114A1268E4
:10142000802149040A431A60C0460E4B1A68802383
:101430009B041340F9D00B4B0A4A526803218A439C
:101440005A60084B074A526802210A435A60C04654
:10145000044B5B680C221340082BF9D1BD4602B047
:1014600080BDC0460010024000200240FF7FC0FF48
:1014700080B584B000AF78600023FB607B689B7808
:10148000002B39D0234A7B681B789B08DBB2C03322
:101490009B009B58FB607B681B781A1C032313403E
:1014A000DB00FF229A40131CDA43FB681340FB6009
:1014B0007B685B789B01FF221A407B681B78191CB4
:1014C00003230B40DB009A40131CFA681343FB60B4
:1014D00010497B681B789B08DBB2C0339B00FA681D
:1014E0005A500C4B7A681278111C1F220A400121B5
:1014F00091400A1C1A600AE006497B681B781A1C96
:101500001F23134001229A40131C80228B50BD469A
:1015100004B080BD00E100E0002243088B4274D398
:1015200003098B425FD3030A8B4244D3030B8B42E4
:1015300028D3030C8B420DD3FF22090212BA030CED
:101540008B4202D31212090265D0030B8B4219D3CE
:1015500000E0090AC30B8B4201D3CB03C01A5241EE
:10156000830B8B4201D38B03C01A5241430B8B4236
:1015700001D34B03C01A5241030B8B4201D30B031F
:10158000C01A5241C30A8B4201D3CB02C01A524146
:10159000830A8B4201D38B02C01A5241430A8B4209
:1015A00001D34B02C01A5241030A8B4201D30B02F2
:1015B000C01A5241CDD2C3098B4201D3CB01C01A0C
:1015C000524183098B4201D38B01C01A5241430916
:1015D0008B4201D34B01C01A524103098B4201D304
:1015E0000B01C01A5241C3088B4201D3CB00C01A71
:1015F000524183088B4201D38B00C01A52414308E9
:101600008B4201D34B00C01A5241411A00D201460D
:10161000524110467047FFE701B5002000F00CF87A
:1016200002BDC0460029F7D003B5FFF775FF0EBC19
:0C1630004243891A1847C0467047C04664
:10163C00000000000102030401020304060708096C
:10164C00006CDC020000000000000000010203043A
:04165C00060708096C
:0400000508000000EF
:00000001FF
