:020000040800F2
:10000000004000201512000859120008591200087B
:1000100000000000000000000000000000000000E0
:10002000000000000000000000000000591200085D
:10003000000000000000000059120008C90200087A
:1000400059120008591200085912000859120008E4
:1000500059120008591200085912000859120008D4
:1000600059120008591200085912000859120008C4
:10007000591200085912000859120008E50B00082F
:1000800059120008591200085912000859120008A4
:100090005912000859120008591200085912000894
:1000A0005912000859120008591200085912000884
:1000B0005912000859120008591200085912000874
:1000C0005FF808F1B0B582B000AF021C3960FB1DCB
:1000D0001A70FB1D1B787F2B32D93049FB1D1B7812
:1000E0001A1C0F231340083B98082C4AFB1D1B7851
:1000F0001C1C0F232340083B9B0806339B00D3188E
:100100005B68FA1D1278141C03222240D200FF24DF
:10011000251C95402A1CD2431A403B689C01FF23B2
:100120001C40FB1D1B781D1C03232B40DB00251CE2
:100130009D402B1C1A43831D9B00CB185A6029E05D
:10014000174BFA1D127852B292081549F81D007823
:1001500040B28008C03080004158F81D0078041C6F
:1001600003202040C000FF24251C8540281CC043DC
:10017000084039688C01FF210C40F91D09780D1CDD
:1001800003212940C900251C8D40291C0143C03290
:100190009200D150BD4602B0B0BDC04600ED00E0B7
:1001A00000E100E080B582B000AF78607A680E4B65
:1001B0009A4201D9012312E00C4B7A681202120A0A
:1001C000013A5A6001235B42181C0321FFF77AFFB2
:1001D000064B00229A60054B07221A600023181C68
:1001E000BD4602B080BDC046FFFFFF0010E000E04A
:1001F00090B585B000AF7860144B7A681A60C0463D
:10020000134B1C681348796802F04AF8031C201C41
:10021000191C02F045F8031C181CFFF7C3FF031C50
:10022000002BEDD13B1C0C33FF221A703B1C0C330E
:1002300000225A703B1C0C3301229A703B1C0C3379
:10024000181C01F0D7FFBD4605B090BDC8080020BE
:100250001000002040420F0080B500AF054B1B6826
:10026000002B04D0034B1B685A1E024B1A60BD467C
:1002700080BDC046C408002080B500AF084B1B6895
:10028000FA229000191C02F00BF8031C1A1C054BF3
:100290001A60C046034B1B68002BFBD1BD4680BDD6
:1002A000C8080020C408002080B582B000AF786084
:1002B00001E0FFF7E1FF7B685A1E7A60002BF8D15E
:1002C000BD4602B080BDC04680B500AFFFF7C4FF99
:1002D000174B1B685A1C164B1A60164B1A68164BA4
:1002E0001B68D218134B1A60124B1A68FA239B0032
:1002F0009A421BD9114B1B685A1C104B1A600D4BAC
:100300001B680F495A180B4B1A600C4B1A68FA23DA
:100310009B009A420AD90B4B1B685A1C094B1A6066
:10032000064B1B6806495A18044B1A60BD4680BD2F
:100330001409002008090020C80800201009002026
:1003400018FCFFFF0C09002080B588B000AF786072
:100350000023FB610023BB6100237B6100233B6121
:100360000023FB60894B5A680C231340FB61FB6937
:10037000042B0CD002D8002B05D039E0082B0AD072
:100380000C2B31D034E07B68814A1A6034E07B6802
:100390007F4A1A6030E07D4B5A68F0239B0313407C
:1003A000BB617A4B5A68C0235B0213407B61BB6917
:1003B0009B0C0233BB617B69002B05D1BB69754A7D
:1003C0005A437B681A6017E0704BDA6A0F231340B8
:1003D00001333B616E48396901F062FF031CBA6961
:1003E0005A437B681A6007E07B686B4A1A6003E037
:1003F0007B68674A1A60C046644B5A68F023134012
:10040000FB61FB691B09FB61644AFB69D3181B781C
:10041000DBB2FB607B681A68FB68DA407B685A6075
:100420005A4B5A68E023DB001340FB61FB691B0A4F
:10043000FB615A4AFB69D3181B78DBB2FB607B680F
:100440005A68FB68DA407B689A60504B1A6B8023CD
:100450005B00134003D17B68514ADA6010E04B4BDC
:100460005A688023DB01134005D17B689B685A08DA
:100470007B68DA6004E07B689B689A087B68DA60D6
:10048000424B1A6B4023134003D17B68454A1A61E3
:1004900003E07B68802212021A613C4B1A6B102326
:1004A000134003D17B683A4A5A6103E07B681A68BB
:1004B0007B685A61354B1A6B0323134004D17B6868
:1004C0009A687B689A611EE0304B1A6B03231340D5
:1004D000012B04D17B681A687B689A6113E02B4B6F
:1004E0001A6B03231340022B04D17B688022120273
:1004F0009A6108E0254B1A6B03231340032B02D1AA
:100500007B68234A9A61214B1A6BC0239B021340DC
:1005100004D17B689A687B68DA6127E01B4B1A6B11
:10052000C0239B021A4080235B029A4204D17B685D
:100530001A687B68DA6119E0144B1A6BC0239B02BE
:100540001A4080239B029A4204D17B6880221202C7
:10055000DA610BE00D4B1A6BC0239B021A40C023DB
:100560009B029A4202D17B68094ADA61074B1A6BF7
:100570008023134003D17B68074A1A6203E07B683B
:100580001A687B681A62BD4608B080BD0010024040
:1005900000127A0000093D00006CDC02000000201F
:1005A000809FD5001280000080B582B000AF7860D7
:1005B0000A1CFB1C1A70FB1C1B78002B06D0084B76
:1005C000074A51697A680A435A6106E0044B044AB3
:1005D00052697968C9430A405A61BD4602B080BD7C
:1005E0000010024080B582B000AF78600A1CFB1C8E
:1005F0001A70FB1C1B78002B06D0084B074A916928
:100600007A680A439A6106E0044B044A9269796861
:10061000C9430A409A61BD4602B080BD0010024045
:1006200080B582B000AF78600A1CFB1C1A70FB1CFE
:100630001B78002B06D0084B074AD1697A680A4319
:10064000DA6106E0044B044AD2697968C9430A407A
:10065000DA61BD4602B080BD0010024080B582B0B4
:1006600000AF78600A1CFB1C1A70FB1C1B78002B67
:1006700006D0084B074AD1687A680A43DA6006E078
:10068000044B044AD2687968C9430A40DA60BD461F
:1006900002B080BD0010024080B586B000AF021CE1
:1006A000FB1D1A700023FB6000237B613B1C13338E
:1006B00000221A70FB1D1B785B09DBB2FB60FB6834
:1006C000002B03D1174B1B687B6110E0FB68012BEB
:1006D00003D1144B1B6A7B6109E0FB68022B03D139
:1006E000104B5B6A7B6102E00E4B5B6B7B61FB1D19
:1006F0001A781F231340FB60FB687A69DA400123F4
:10070000134004D03B1C133301221A7003E03B1C3E
:10071000133300221A703B1C13331B78181CBD4680
:1007200006B080BD0010024080B500AF044B044A03
:10073000526A802149040A435A62BD4680BDC046C0
:100740000010024080B582B000AF78607A68094B33
:100750009A420BD180239B00181C0121FFF77EFFDA
:1007600080239B00181C0021FFF778FFBD4602B0D4
:1007700080BDC0460024014080B584B000AF7860E1
:1007800039600023FB607B68DB68FB60FA680F4B15
:100790001340FB603B681A683B681B795B031A4394
:1007A0003B689B681A433B68DB681A433B681B69DC
:1007B0001A433B685B691343FA681343FB607B6829
:1007C000FA68DA60BD4604B080BDC04603D2FFFFC0
:1007D00080B582B000AF78607B6800221A607B68C9
:1007E00000221A717B6800229A607B680022DA601E
:1007F0007B6800221A617B6800225A61BD4602B004
:1008000080BDC04680B582B000AF78600A1CFB1C7A
:100810001A70FB1C1B78002B06D07B689B6801229A
:100820001A437B689A6005E07B689B6802221A4342
:100830007B689A60BD4602B080BDC04680B586B078
:1008400000AFF860B9607A6000237B61FB689A6A48
:10085000BB681A43FB689A627B69072293437B61FA
:100860007A697B6813437B61FB687A695A61BD468C
:1008700006B080BD80B586B000AF786000237B6194
:1008800000233B610023FB607B689B68802212068B
:100890001A437B689A607B689B68DB0FDB07FB6011
:1008A0003B6901333B613A69F0231B029A4202D053
:1008B000FB68002BEFD17B689B68002B03DB7B6818
:1008C0001B6C7B6101E000237B617B69181CBD46CA
:1008D00006B080BD80B582B000AF78607B689B6851
:1008E00004221A437B689A60BD4602B080BDC046B0
:1008F00080B582B000AF78600A1CFB1C1A70FB1C2C
:100900001B78002B06D07B68DB6801221A437B68CA
:10091000DA6007E07B68DB680122191C91430A1C3E
:100920007B68DA60BD4602B080BDC04680B582B04B
:1009300000AF786039607B68DB680222191C914344
:100940000A1C7B68DA607B68DA683B681A437B685C
:10095000DA60BD4602B080BD80B584B000AF78607B
:1009600039603B1C0F3300221A700023BB603A68C9
:1009700080235B04134005D07B689A680D4B1340BD
:10098000BB6002E07B681B68BB60BB683A681340D1
:1009900004D03B1C0F3301221A7003E03B1C0F33C1
:1009A00000221A703B1C0F331B78181CBD4604B084
:1009B00080BDC046FFFFFFFE80B582B000AF021CC5
:1009C000BB1D1A80034BBA1D12881A60BD4602B0C7
:1009D00080BDC0460030004080B582B000AF021C30
:1009E000FB1D1A70034BFA1D12785A60BD4602B007
:1009F00080BDC0460030004080B582B000AF021C10
:100A0000BB1D1A80034BBA1D12889A60BD4602B006
:100A100080BDC0460030004080B500AF024B034AA5
:100A20001A60BD4680BDC04600300040AAAA000042
:100A300080B500AF024B034A1A60BD4680BDC04678
:100A400000300040CCCC000080B582B000AFFA236B
:100A50009B00181CFFF7CCFB00F0DCF800F0FCF862
:100A6000564B181C01F06CFC031C9AB2544B1A80B4
:100A700000F04CF900F0FEF9524B181C01F060FC3C
:100A8000031C9AB24E4B1A804F4B181C00210022B7
:100A900000F05AFBFA235B00181CFFF705FC4A4BD9
:100AA0000020191C002200F04FFBFA235B00181CE9
:100AB000FFF7FAFB444B002000211A1C00F044FB16
:100AC000FA235B00181CFFF7EFFB3F493E4A3E4B01
:100AD000081C111C1A1C00F037FBFA23DB00181C41
:100AE000FFF7E2FB00200021002200F02DFB00F0C8
:100AF0000BFA364B181CFFF7EDFE354B181C01F0B6
:100B00001FFC031C9AB22E4B1A8000F0C1FA314B25
:100B1000181CFFF751FF0320FFF75EFFFA235B006D
:100B2000181CFFF769FFFFF777FFFFF781FFBB1D79
:100B300000221A803BE0BB1D1A88274B9A4203D93A
:100B4000BB1D00221A8006E0BB1DBA1D1288FA21C7
:100B5000890052181A803B1DBA1D12881A80BB1CCE
:100B6000BA1D12881A803B1CBA1D12881A803B1DC0
:100B70001988BB1C1A883B1C1B88081C111C1A1CDA
:100B800000F0E2FA3B1D1988BB1C1A883B1C1B882D
:100B9000124801F0D5FB031C9AB2094B1A80C820F9
:100BA000FFF782FB0E4B00221A70FFF735FF0C4B4C
:100BB0001B78DBB2002BBED1C046F8E7949000084A
:100BC0001E090020AC900008FFFF00000024014037
:100BD000C49000085555000016FC0000D89000088D
:100BE000CC08002080B500AF8023DB05181C012154
:100BF00001F0FAF9031C002B08D0054B01221A70F2
:100C00008023DB05181C012101F02EFABD4680BDB2
:100C1000CC08002080B582B000AF80239B02181C56
:100C20000121FFF7C1FC3B1C20221A603B1C012262
:100C30001A713B1C00229A713B1C03225A713B1C07
:100C40000022DA719023DA053B1C101C191C00F0FD
:100C50005FFBBD4602B080BD80B588B000AF802389
:100C60009B02181C0121FFF79FFC80239B02181C8C
:100C70000121FFF7D5FC3B1C183304221A603B1CF2
:100C8000183302221A713B1C183300229A713B1C44
:100C9000183303225A713B1C18330122DA71902356
:100CA000DA053B1C1833101C191C00F031FB902393
:100CB000DB05181C0221012200F0E2FB3B1CE122B3
:100CC00052021A603B1C00225A603B1C00229A60B0
:100CD0003B1C0022DA603B1C00225A613B1C0822AC
:100CE0001A61094A3B1C101C191C00F099FC064BA8
:100CF000181C012100F04EFDFA239B00181CFFF781
:100D0000D3FABD4608B080BD0044004080B58AB02B
:100D100000AF80231B01181C0121FFF763FC802317
:100D20009B02181C0121FFF73FFC3B1C2033E022F3
:100D3000D2001A603B1C203302221A713B1C203364
:100D400003225A713B1C203301229A713B1C203331
:100D50000122DA719023DA053B1C2033101C191C88
:100D600000F0D6FA9023DB05181C0821022200F0BF
:100D700087FB9023DB05181C0921022200F080FB71
:100D80009023DB05181C0A21022200F079FB3B1C92
:100D9000143300221A803B1C1433344A5A603B1C23
:100DA000143300221A813B1C143300225A803B1C4E
:100DB000143300229A722E4A3B1C1433101C191C47
:100DC00000F036FD3B1C70221A803B1C01225A8029
:100DD0003B1C04229A803B1C00229A603B1C02228E
:100DE0009A813B1C0022DA813B1C802252001A822D
:100DF0003B1C00225A821E4A3B1C101C191C00F08E
:100E0000D5FD1B4B181C082101F048F83B1C0122A2
:100E10005A803B1C00229A60154A3B1C101C191C6E
:100E200000F096FE124B181C082101F061F83B1CE3
:100E300001225A803B1C00229A600D4A3B1C101C68
:100E4000191C00F057FF0A4B181C082101F07EF80E
:100E5000074B181C012100F063FD054B181C0121F4
:100E600000F07EFDBD460AB080BDC046FFFF000019
:100E7000002C014080B584B000AF3B1C0C330F2226
:100E80001A703B1C0C3300225A703B1C0C3301229D
:100E90009A703B1C0C33181C01F0ACF901200121A5
:100EA000FFF7BEFB3B1C154A5A60154B1B68181C0C
:100EB000144901F0F5F9031C9BB2013B9AB23B1CAB
:100EC0001A803B1C00221A813B1C00225A8080237E
:100ED000DA053B1C101C191C00F0AAFC8023DB0562
:100EE000181C0121012201F05BF88023DB05181C8E
:100EF000012100F015FDBD4604B080BD0F270000A4
:100F00001000002040420F0080B594B000AF0120D7
:100F10000121FFF749FB80239B02181C0121FFF7E9
:100F200043FB80239B00181C0121FFF75BFB544B04
:100F3000181CFFF707FC3B1C3833181CFFF748FC54
:100F40003B1D13221A603B1D03221A713B1D002218
:100F5000DA719023DA053B1D101C191C00F0D8F93A
:100F60003B1C0C33474A1A60474A3B1C0C335A60FF
:100F70003B1C0C3300229A603B1C0C330322DA60CA
:100F80003B1C0C3300221A613B1C0C3380225A613B
:100F90003B1C0C33802252009A613B1C0C33802294
:100FA000D200DA613B1C0C3320221A623B1C0C334A
:100FB000802292015A623B1C0C3300229A62334A0F
:100FC0003B1C0C33101C191C00F048F92F4B181C4B
:100FD000012100F07FF92A4B181C0121FFF788FC42
:100FE000274B181C0221FFF7A1FC3B1C38330122C0
:100FF0001A713B1C383300221A613B1C38338022A3
:10100000DA603B1C383300229A603B1C38330022E4
:101010001A603B1C383300225A61194A3B1C383392
:10102000101C191CFFF7A8FB154B181C01210322EB
:10103000FFF704FC124B181C02210322FFF7FEFBF2
:101040000F4B181C10210322FFF7F8FB0C4B181C48
:10105000FFF710FC0A4B181C0121FFF7D3FBC04619
:10106000074B181C0121FFF777FC031C002BF7D05E
:10107000034B181CFFF72EFCBD4614B080BDC046C4
:1010800000240140402401401809002008000240CB
:1010900080B500AF5D20FFF7FFFA031C002B0BD0DB
:1010A0009023DA05FA235B00101C2021022200F0B5
:1010B00011F8FFF739FB0AE09023DB05181C20210B
:1010C0000522642300F006F86420FFF7EDF8BD4622
:1010D00080BDC04680B586B000AFF860081C111C0A
:1010E0001A1C3B1C0A3318803B1C09331970BB1DAA
:1010F0001A8000237B6100237B611CE0FA683B1CA3
:101100000A331B88101C191C00F09EF9BB1D1B889C
:10111000181CFFF7C9F8FA683B1C0A331B88101C1F
:10112000191C00F09FF9BB1D1B88181CFFF7BCF8A9
:101130007B6901337B613B1C09331A787B699A42D6
:10114000DCDCBD4606B080BD80B588B000AFBB1DFD
:1011500018803B1D1980BB1C1A803B1C0C3370226D
:101160001A803B1C0C3301225A803B1C0C33042296
:101170009A80BB1D1A883B1C0C339A603B1C0C33B5
:1011800002229A813B1C0C330022DA813B1C0C3377
:10119000802252001A823B1C0C3300225A821C4AC5
:1011A0003B1C0C33101C191C00F000FC184B181CC5
:1011B000082100F073FE3B1C0C3301225A803B1DBA
:1011C0001A883B1C0C339A60114A3B1C0C33101CD0
:1011D000191C00F0BDFC0E4B181C082100F088FE05
:1011E0003B1C0C3301225A80BB1C1A883B1C0C335D
:1011F0009A60074A3B1C0C33101C191C00F07AFD46
:10120000034B181C082100F0A1FEBD4608B080BDAC
:10121000002C0140002103E00A4B5B58435004318D
:1012200009480A4B42189A42F6D3094A02E00023C1
:1012300013600432074B9A42F9D300F025FFFFF701
:1012400003FC70476494000800000020C4080020DC
:10125000C408002024090020FEE7000080B584B007
:1012600000AF786039600023FB607B681B68FB601F
:10127000FA68174B1340FB603B689A683B681B6A2F
:101280001A433B681B691A433B685B691A433B6816
:101290009B691A433B68DB691A433B685B6A1A43E4
:1012A0003B689B6A1343FA681343FB607B68FA68E8
:1012B0001A603B68DA687B685A603B681A687B682A
:1012C0009A603B685A687B68DA60BD4604B080BDAE
:1012D0000F80FFFF80B582B000AF78600A1CFB1C56
:1012E0001A70FB1C1B78002B06D07B681B68012240
:1012F0001A437B681A6005E07B681A68034B1A4042
:101300007B681A60BD4602B080BDC046FEFF00008B
:1013100080B586B000AF7860396000237B61002320
:101320003B610023FB6000237B6185E07B69012238
:10133000101C9840031C3B613B681B683A691340D2
:10134000FB60FA683B699A4273D13B681B79012BB9
:1013500003D03B681B79022B38D17B689B687A6984
:1013600052000321081C9040021CD2431A407B68A3
:101370009A607B689A683B685B79191C7B695B00A3
:10138000081C9840031C1A437B689A607B689B8802
:101390009BB27A6992B20121081C9040021C92B261
:1013A000D24392B213409AB27B689A807B689B8842
:1013B0009AB23B689B79191C7B699BB2081C9840C8
:1013C000031C9BB213439AB27B689A807B681B68AC
:1013D0007A6952000321081C9040021CD2431A4033
:1013E0007B681A607B681A683B681B79191C7B69EB
:1013F0005B00081C9840031C1A437B681A607B68DA
:10140000DB687A6992B252000321081C9040021CEA
:10141000D2431A407B68DA607B68DA683B68DB7924
:10142000191C7B695B00081C9840031C1A437B68ED
:10143000DA607B6901337B617B690F2B00D875E72C
:10144000BD4606B080BDC04680B582B000AF7860B2
:101450000A1CBB1C1A80BB1C1A887B689A61BD469B
:1014600002B080BD80B582B000AF78600A1CBB1CA2
:101470001A807B68BA1C12881A85BD4602B080BDEE
:1014800090B585B000AF7860BB1C19807B1C1A70CA
:101490000023FB600023BB607B1C1A78BB1C1988EF
:1014A00007230B409B00111C99400B1CFB60BB1CCD
:1014B0001B88DB089BB21A1CBB1C1B88DB089BB279
:1014C000191C7B6808318900CB58B91C0888072192
:1014D000014089000F20041C8C40211CC943194085
:1014E0007B6808329200D150BB1C1B88DB089BB282
:1014F0001A1C7B6808329200D258FB681343BB6009
:10150000BB1C1B88DB089BB21A1C7B68083292004C
:10151000B968D150BD4605B090BDC04680B584B015
:1015200000AF78600A4B1B68002B02D1084B094AB8
:101530001A60074B1B68FB60054B1A687B68D21862
:10154000034B1A60FB68181CBD4604B080BDC04642
:10155000D00800202409002080B582B000AF786058
:1015600001235B42181CBD4602B080BD80B582B02D
:1015700000AF786039603B68802292015A60002396
:10158000181CBD4602B080BD80B582B000AF786047
:101590000123181CBD4602B080BDC04680B584B092
:1015A00000AFF860B9607A600023181CBD4604B033
:1015B00080BDC04680B584B000AFF860B9607A6085
:1015C0007B68181CBD4604B080BDC04680B586B09F
:1015D00000AFF860B9607A6000237B6114E07B693A
:1015E000BA68D3181B780D4A101C191C00F0F0F8CB
:1015F000C0460A4B181C402100F0FCF8031C002BCD
:10160000F7D07B6901337B617A697B689A42E6DBBC
:101610007B68181CBD4606B080BDC0460044004033
:1016200080B58EB000AF7860396000237B63002303
:101630003B630023FB627B681B680122191C9143FA
:101640000A1C7B681A607B685B68FB62FA6A4B4B1A
:101650001340FB623B689B68FA6A1343FB627B683A
:10166000FA6A5A607B681B68FB62FA6A444B134053
:10167000FB623B685A683B68DB681A433B681B693E
:101680001343FA6A1343FB627B68FA6A1A607B6849
:101690009B68FB62FA6A3B4B1340FB623B685B69E9
:1016A000FA6A1343FB627B68FA6A9A603B1C083350
:1016B000181CFEF749FE7A68334B9A4204D13B1C52
:1016C00008339B693B630CE07A68304B9A4204D143
:1016D0003B1C0833DB693B6303E03B1C08339B681E
:1016E0003B637B681A6880231B02134014D03B6B5A
:1016F0005A003B681B68101C191C00F0D1FD031C2C
:101700007B633B6B5A003B681B68101C191C00F084
:101710000BFE0B1CFB6210E03B681B68386B191C4E
:1017200000F0BEFD031C7B633B681B683A6B101C1A
:10173000191C00F0F9FD0B1CFB623B681B685A0882
:10174000FB6A9A4202D87B6B01337B637B681A6821
:1017500080231B0213400AD07A6B0F2313405B08CF
:10176000FB627A6B0A4B1A40FB6A13437B637B6B09
:101770009AB27B689A81BD460EB080BDFFCFFFFF55
:10178000F3E9FFFFFFFCFFFF003801400044004089
:10179000F0FF000080B582B000AF78600A1CFB1C2F
:1017A0001A70FB1C1B78002B06D07B681B6801227B
:1017B0001A437B681A6007E07B681B680122191CCA
:1017C00091430A1C7B681A60BD4602B080BDC046CA
:1017D00080B582B000AF78600A1CBB1C1A80BB1CAD
:1017E0001B88DB05DB0D9AB27B681A85BD4602B00B
:1017F00080BDC04680B584B000AF786039603B1CC6
:101800000F3300221A707B68DB693A68134004D0FA
:101810003B1C0F3301221A7003E03B1C0F330022E4
:101820001A703B1C0F331B78181CBD4604B080BDDA
:1018300080B584B000AF786039603B1C0E33002265
:101840001A803B1C0E337A6812881A807A682D4BF6
:101850009A4208D07A688023DB059A4203D07A68DE
:10186000294B9A4210D13B1C0E333A1C0E3212887F
:1018700070218A431A803B6859883B1C0E333A1CFE
:101880000E3212880A431A807A68204B9A4210D08E
:101890003B1C0E333A1C0E3211881D4A0A401A8036
:1018A0003B6819893B1C0E333A1C0E3212880A43DE
:1018B0001A807B683A1C0E3212881A803B685A687C
:1018C0007B68DA623B681A887B681A857A680D4BF8
:1018D0009A420BD07A680F4B9A4207D07A680E4B27
:1018E0009A4203D07A680D4B9A4204D13B689B7AA6
:1018F0001A1C7B681A867B6801229A82BD4604B056
:1019000080BDC046002C0140000400400010004093
:10191000FFFCFFFF0040014000440140004801403F
:1019200080B582B000AF78600A1CFB1C1A70FB1CEB
:101930001B78002B08D07B681B889BB201221343C5
:101940009AB27B681A8007E07B681B889BB20122F1
:1019500093439AB27B681A80BD4602B080BDC046F0
:1019600080B582B000AF78600A1CFB1C1A70FB1CAB
:101970001B78002B0AD07A684423D35A9BB20A4AB8
:10198000134399B27A684423D15209E07A68442318
:10199000D35A9BB25B045B0C99B27A684423D15250
:1019A000BD4602B080BDC0460080FFFF80B584B058
:1019B00000AF786039603B1C0A3300221A803B1C60
:1019C0000E3300221A803B1C0C3300221A807B68E5
:1019D0001B8C9BB2012293439AB27B681A843B1CF6
:1019E0000E337A68128C1A803B1C0C337A6892880A
:1019F0001A803B1C0A337A68128B1A803B1C0A330C
:101A00003A1C0A32128870218A431A803B1C0A331E
:101A10003A1C0A32128803218A431A803B681988CB
:101A20003B1C0A333A1C0A3212880A431A803B1CB8
:101A30000E333A1C0E32128802218A431A803B6808
:101A400099893B1C0E333A1C0E3212880A431A80C5
:101A50003B6859883B1C0E333A1C0E3212880A43ED
:101A60001A807A68344B9A420BD07A68334B9A4288
:101A700007D07A68324B9A4203D07A68314B9A4247
:101A800043D13B1C0E333A1C0E32128808218A4384
:101A90001A803B68D9893B1C0E333A1C0E321288DF
:101AA0000A431A803B1C0E333A1C0E321288042162
:101AB0008A431A803B6899883B1C0E333A1C0E32CD
:101AC00012880A431A803B1C0C333A1C0C321188D2
:101AD0001D4A0A401A803B1C0C333A1C0C321188F8
:101AE0001A4A0A401A803B68198A3B1C0C333A1C7C
:101AF0000C3212880A431A803B68598A3B1C0C330B
:101B00003A1C0C3212880A431A807B683A1C0C3249
:101B100012889A807B683A1C0A3212881A833B68C2
:101B20009A687B685A637B683A1C0E3212881A8462
:101B3000BD4604B080BDC046002C014000400140BD
:101B40000044014000480140FFFEFFFFFFFDFFFF92
:101B500080B584B000AF786039603B1C0A33002246
:101B60001A803B1C0E3300221A803B1C0C330022CF
:101B70001A807B681B8C9BB2102293439AB27B68BD
:101B80001A843B1C0E337A68128C1A803B1C0C336F
:101B90007A6892881A803B1C0A337A68128B1A8002
:101BA0003B1C0A333A1C0A3211884D4A0A401A80FB
:101BB0003B1C0A333A1C0A3211884A4A0A401A80EE
:101BC0003B681B881B0299B23B1C0A333A1C0A3241
:101BD00012880A431A803B1C0E333A1C0E321288BC
:101BE00020218A431A803B689B891B0199B23B1CC8
:101BF0000E333A1C0E3212880A431A803B685B8807
:101C00001B0199B23B1C0E333A1C0E3212880A4358
:101C10001A807A68344B9A424BD13B1C0E333A1CE3
:101C20000E32128880218A431A803B68DB891B01AF
:101C300099B23B1C0E333A1C0E3212880A431A80AA
:101C40003B1C0E333A1C0E32128840218A431A8004
:101C50003B689B881B0199B23B1C0E333A1C0E3229
:101C600012880A431A803B1C0C333A1C0C32118830
:101C70001E4A0A401A803B1C0C333A1C0C32118855
:101C80001B4A0A401A803B681B8A9B0099B23B1C86
:101C90000C333A1C0C3212880A431A803B685B8A68
:101CA0009B0099B23B1C0C333A1C0C3212880A433D
:101CB0001A807B683A1C0C3212889A807B683A1C26
:101CC0000A3212881A833B689A687B689A637B6839
:101CD0003A1C0E3212881A84BD4604B080BDC0463C
:101CE000FF8FFFFFFFFCFFFF002C0140FFFBFFFF0A
:101CF000FFF7FFFF80B584B000AF786039603B1C10
:101D00000A3300221A803B1C0E3300221A803B1C2F
:101D10000C3300221A807B681B8C9AB2584B1340FC
:101D20009AB27B681A843B1C0E337A68128C1A8034
:101D30003B1C0C337A6892881A803B1C0A337A6801
:101D4000928B1A803B1C0A333A1C0A32128870218B
:101D50008A431A803B1C0A333A1C0A321288032138
:101D60008A431A803B6819883B1C0A333A1C0A32A2
:101D700012880A431A803B1C0E333A1C0E3211881B
:101D8000404A0A401A803B689B891B0299B23B1C5F
:101D90000E333A1C0E3212880A431A803B685B8865
:101DA0001B0299B23B1C0E333A1C0E3212880A43B6
:101DB0001A807A68344B9A424BD13B1C0E333A1C42
:101DC0000E321188314A0A401A803B68DB891B02B7
:101DD00099B23B1C0E333A1C0E3212880A431A8009
:101DE0003B1C0E333A1C0E321188294A0A401A80D5
:101DF0003B689B881B0299B23B1C0E333A1C0E3287
:101E000012880A431A803B1C0C333A1C0C3211888E
:101E1000204A0A401A803B1C0C333A1C0C321188B1
:101E20001D4A0A401A803B681B8A1B0199B23B1C61
:101E30000C333A1C0C3212880A431A803B685B8AC6
:101E40001B0199B23B1C0C333A1C0C3212880A431A
:101E50001A807B683A1C0C3212889A807B683A1C84
:101E60000A3212889A833B689A687B68DA637B68D7
:101E70003A1C0E3212881A84BD4604B080BDC0469A
:101E8000FFFEFFFFFFFDFFFF002C0140FFF7FFFFFC
:101E9000FFFBFFFFFFEFFFFFFFDFFFFF80B584B019
:101EA00000AF78600A1CBB1C1A803B1C0E3300225A
:101EB0001A803B1C0E337A68128B1A803B1C0E333F
:101EC0003A1C0E32128808218A431A803B1C0E33BA
:101ED000391C0E31BA1C098812880A431A807B68A3
:101EE0003A1C0E3212881A83BD4604B080BDC0462B
:101EF00080B584B000AF78600A1CBB1C1A803B1C04
:101F00000E3300221A803B1C0E337A68128B1A8023
:101F10003B1C0E333A1C0E3211880B4A0A401A80C1
:101F2000BB1C1B881B0299B23B1C0E333A1C0E32A1
:101F300012880A431A807B683A1C0E3212881A8370
:101F4000BD4604B080BDC046FFF7FFFF80B584B03A
:101F500000AF78600A1CBB1C1A803B1C0E330022A9
:101F60001A803B1C0E337A68928B1A803B1C0E330E
:101F70003A1C0E32128808218A431A803B1C0E3309
:101F8000391C0E31BA1C098812880A431A807B68F2
:101F90003A1C0E3212889A83BD4604B080BDC046FA
:101FA00080B582B000AF7860BB1C19807B1C1A70B2
:101FB0007B1C1B78002B09D07B689B899AB2BB1CC9
:101FC0001B8813439AB27B689A810AE07B689B89DD
:101FD0009BB2BA1C1288D24392B213409AB27B6869
:101FE0009A81BD4602B080BD80B584B000AF7860F4
:101FF0000A1CBB1C1A803B1C0F3300221A703B1CAE
:102000000C3300221A803B1C0A3300221A807B68A2
:102010001B8A9AB23B1C0C33B91C09880A401A80EF
:102020007B689B899AB23B1C0A33B91C09880A4019
:102030001A803B1C0C331B88002B09D03B1C0A3335
:102040001B88002B04D03B1C0F3301221A7003E0C5
:102050003B1C0F3300221A703B1C0F331B78181CDB
:10206000BD4604B080BDC04680B582B000AF786088
:102070000A1CBB1C1A80BB1C1B88DB439AB27B6802
:102080001A82BD4602B080BD80B500AF1B4B1B4A13
:10209000126801210A431A60184B184A5168184AFD
:1020A0000A405A60154B154A1168164A0A401A60D0
:1020B000124B124A1168144A0A401A600F4B0F4A19
:1020C0005168124A0A405A600C4B0C4AD26A0F21DE
:1020D0008A43DA62094B094A116B0D4A0A401A63B6
:1020E000064B064A526B01218A435A63034B002276
:1020F0009A6000F00FF8BD4680BDC0460010024057
:102100000CB8FFF8FFFFF6FEFFFFFBFFFFFFC0FF6D
:10211000ACFEFFFF80B582B000AF00237B600023E0
:102120003B60314B304A1268802149020A431A60F1
:102130002D4B1A6880239B0213403B607B68013360
:102140007B603B68002B04D17A68A023DB009A42B5
:10215000EED1254B1A6880239B02134002D0012345
:102160003B6001E000233B603B68012B38D11F4BF3
:1021700011221A601C4B1C4A52685A601A4B1A4AA8
:1021800052685A60184B184A5168194A0A405A60F6
:10219000154B154A5268882149030A435A60124B6D
:1021A000114A1268802149040A431A60C0460E4B46
:1021B0001A6880239B041340F9D00B4B0A4A5268DB
:1021C00003218A435A60084B074A526802210A4396
:1021D0005A60C046044B5A680C231340082BF9D1AF
:1021E000BD4602B080BDC046001002400020024043
:1021F000FF7FC0FF80B584B000AF78600023FB6034
:102200007B689B78002B3CD0244B7A68127892082C
:10221000D2B2C0329200D358FB607B681B781A1C84
:1022200003231340DB00FF22101C9840031CDA43F9
:10223000FB681340FB607B685B789A01FF231A40C0
:102240007B681B78191C03230B40DB00111C994091
:102250000B1CFA681343FB60104B7A6812789208E3
:10226000D2B2C0329200F968D1500C4B7A68127821
:10227000111C1F220A400121081C9040021C1A60F8
:1022800009E0064A7B681B78191C1F230B400121BB
:1022900099408023D150BD4604B080BD00E100E0EC
:1022A000002934D00123002210B488422CD3012409
:1022B0002407A14204D2814202D209011B01F8E79E
:1022C000E400A14204D2814202D249005B00F8E757
:1022D000884201D3401A1A434C08A04202D3001B83
:1022E0005C0822438C08A04202D3001B9C082243B6
:1022F000CC08A04202D3001BDC082243002803D0F4
:102300001B0901D00909E3E7101C10BC7047002825
:1023100001D00020C04307B4024802A14018029037
:1023200003BDC046190000000029F0D003B5FFF737
:10233000B9FF0EBC4243891A1847C0467047C046D1
:102340000FB400B583B004AB04CB054A0193106809
:10235000049A816800F008F803B008BC04B018477C
:102360005004002000000000F0B5444656465F4689
:102370004D46F0B4C5B080468A460A921C1C1193A3
:1023800002F070FE0068179003F0F2FD1A904046CC
:10239000002803D0816B002900D1ADE053469A8913
:1023A000802193B289010B4207D15546686EBC4B20
:1023B0000A4303406B66AA8193B2190770D552464F
:1023C0001269002A6CD01A2213400A2B74D034AC44
:1023D000079427940024002527AF002319941D9407
:1023E00012944446BB607B6018951B9534AE1C95D7
:1023F0000894D3460A9D2B78002B00D17FE0252B33
:1024000000D17CE02C1C01E0252B3CD0013423784A
:10241000002BF9D10A98251A002D0ED0B8680A9A17
:102420002B18BB607B683260013375607B60072BC3
:1024300057DC08361299491912912378002B01D1E3
:1024400001F037F8651C7F2001210A9500236844BC
:1024500049420025402203700B91637809950024BE
:102460001021914608250A9A1094002020248A46BB
:10247000AC460132191C2039582900D9C1E2894DD6
:10248000890069588F460A99651AC5E7109D119110
:102490006D421095099D04231D4309951378E8E7C3
:1024A0004046514601F0A2FA002811D15546AB89A9
:1024B0001A2213400A2B8AD150460E23C35E002BEA
:1024C00085DB404651460A9A231C01F055FA01E08B
:1024D0000120404245B03CBC90469946A246AB46DE
:1024E000F0BD089859463A1C03F088FD002801D039
:1024F00000F094FC34AE9DE702F0EEFB4EE70A9C40
:102500009BE713782B20B4E71378511C88462A2BBD
:1025100001D101F0F8F9191C30390022092901D93B
:1025200001F039F943468046900082185200013389
:102530008A18591E0878011C30390929F4D9191C48
:10254000031C40468846002A01DA01F048F80B9245
:1025500042468FE7099D80210D430995137888E74E
:10256000099C159310237F251C436D440994287002
:10257000099D0A92AD0600D4A7E1119A07230732FC
:102580009A43141C53681268083411940E920F93E6
:10259000002B01DA00F028FE7F256D442D780E9A7D
:1025A0000F98A846012302430B9C002C03DB099DD6
:1025B00080218D430995002A00D049E30B9C002C13
:1025C00000D045E3002B01D000F09BFC099DED07F6
:1025D00001D400F096FC6D46CF353023079C2B705C
:1025E000641B0D9413950D9B0B9DAB4200DA2B1CC5
:1025F00000240C9316944546002D02D00C9C013407
:102600000C94099D02231D40AA4602D00C9C023462
:102610000C94099D84231D40A94600D006E2109D1C
:102620000C982C1A002C00DC00E2BA687B68102C95
:1026300001DC00F0D0FF1C4D311CA8465E46102581
:1026400003E0103C0831102C17DD404610320133F6
:1026500008604D60BA607B60072BF2DD0898311C82
:102660003A1C03F0CBFC002801D000F0AEFC103C7B
:10267000BA687B6834A9102CE7DCB3460E1C4146CF
:1026800074600133A4183160BC607B60072B01DDEE
:1026900000F08CFC7F226A44127808369046C6E12E
:1026A000FFDFFFFFF49000085892000815937F2386
:1026B0006B441870119B0A920733072293431D1C29
:1026C000083511951C6819945B6819981B931B9920
:1026D00003F0C0FB012801D000F09AFD19981B9966
:1026E000CE4BCD4A04F084FA002801D000F0F3FF6D
:1026F0007F256D442D78A846159C472C01DC00F001
:1027000020FFC74C1394099D80239D430324099502
:102710000C94032500F0E9FE191C002510953039B2
:10272000002380469800C3185B0001325B18511EDD
:102730000878011C30390929F4D91093031C40464C
:1027400098E6099D61460D430995137891E6099C29
:10275000159310231C430994099D0A92AD0600D4D9
:1027600029E1119B0722073393431C1C0834119461
:102770001C685D680E940F95221C00232A437F2459
:1027800000216C44217088460EE7099C15931023A4
:102790001C430994099D0A92AD0600D421E1119BC6
:1027A0000722073393431C1C083411941C685D688E
:1027B000221C0E940F9501232A43E0E77F25099CF4
:1027C0006D440A922870A40601D400F0EEFD119D1C
:1027D000129C2B68E21704351C605A60119509E6BB
:1027E000119C1593119B04341B680A922AAD119415
:1027F00001247F202B70684400230C940D94002446
:10280000037098460B9416941395FAE67F256D4451
:102810002870844C099D15930A921D94AD062CD501
:10282000119B0722073393431C1C083411941C6826
:102830005D680E940F95099DED0700D4C7E30E9ACD
:102840000F98022302439AD0099D159C20A930209D
:102850001D4308704C70099591E71378002800D04B
:1028600007E6202005E60A926F4C7F22099D6A4404
:10287000159310701D94AD06D2D4099DED0601D4B8
:1028800000F085FD1198119C0068002104340E9021
:102890000F911194CFE7099D49460D43099513788F
:1028A000E7E51378111C6C2B01D100F05AFE099D4D
:1028B00051460D430995DCE57F21099D6944159337
:1028C0000A920870AD0600D557E6099DED0601D4C1
:1028D00000F02DFD119C236804340E93DB170F9339
:1028E000119455E6099D254309951378C1E5119D7D
:1028F000119C2D687F201593684400230A920434AC
:1029000013950370002D01D100F0BAFE0B9D1398B2
:10291000002D01DA00F038FE00212A1C02F09CFE96
:10292000002801D100F0E2FE139D401B0B9D0D908D
:10293000A84201DD00F0E0FD7F200D9D6844007895
:10294000EB43DB1780461D400C95119400250024B5
:102950000B9416954FE6119B119D1B68099C0E93D5
:10296000043502231C430A9220AB302211952D4DD1
:102970001A7000207822099478245A700F901D95BF
:10298000022315940E9AFAE6099D01231D43099529
:1029900013786EE5119D11992D6804311095002D65
:1029A00000DA73E51378119163E5099D15930A9296
:1029B000AD0600D5D5E6099DED0601D400F0D7FCA3
:1029C0001198119C0068002104340E900F9111940D
:1029D0000023021CD3E6099D15930A92AD0600D58B
:1029E000DDE6099DED0601D400F0B1FC1198119CC3
:1029F0000068002104340E900F9111940123021CF1
:102A0000BDE67F256D4415930A922870002B01D1F5
:102A100000F04FFD2AADEBE60000000000000000D2
:102A20006C9200088C92000878920008BC684546B9
:102A3000002D0DD0012373607B687F206844013432
:102A400001333060BC607B60072B00DD15E2083687
:102A5000514600290CD020AB3360022373607B68A1
:102A600002340133BC607B60072B00DD0FE20836C7
:102A70004A46802A00D16DE10B9A0D9BD51A002D94
:102A800034DD7B68102D01DC00F0B8FCD649102243
:102A900092468946221C5C4603E0103D0836102D04
:102AA00017DD484651461032013330607160BA601C
:102AB0007B60072BF1DD0898211C3A1C03F09EFA7D
:102AC000002800D081E1103DBA687B6834AE102D3B
:102AD000E7DCA346141C4A46641901333260756072
:102AE000BC607B60072B00DDBDE10836099DED056C
:102AF00000D5D4E0139D7B6835600D9D01336419CA
:102B00007560BC607B60072B00DD96E00836099D90
:102B10006D073FD510980C99451A002D3ADD7B685A
:102B2000102D01DC00F0A8FDB0481021221C8046C9
:102B300089465C4603E0103D0836102D17DDAB4892
:102B400049461032013330607160BA607B60072BF8
:102B5000F1DD0898211C3A1C03F050FA002800D03F
:102B600033E1103DBA687B6834AE102DE7DCA34634
:102B7000141C42466419013324C6BC607B60072BD9
:102B800008DD089859463A1C03F038FA002800D0AE
:102B900044E1BC680C9B109DAB4200DA2B1C129DDB
:102BA000ED181295002C00D030E100237B6034AE8C
:102BB000FFF720FC189D012D00DCB5E201237360B6
:102BC0007B68139D013401333560BC607B60072B4B
:102BD00000DDC9E20836179D013335601A9D98461D
:102BE00064197560BC607B60072B00DDC8E20836A5
:102BF00019981B997B4B7A4A03F0F4FF002800D008
:102C0000EBE1189B139D0121013B88440135E41839
:102C1000424635607360BC607A60072A00DDE9E0F7
:102C2000083623AB1C9D336043466419013375603D
:102C3000BC607B60072B00DC68E7089859463A1CAB
:102C400003F0DCF9002800D0E8E0BC6834AE5EE7B1
:102C5000012B00D125E1022B00D0E1E01D9D6B4648
:102C6000CF330F21A946B4461C1C0E9A0F9B201C83
:102C70000C1C14404D462C5D1E071509321C0470B7
:102C80002A431C09231C151C441E1D43EFD1079C1D
:102C90001390241A0E920F9366460D94A3E4159D8B
:102CA000652D87DD19981B994E4B4D4A03F09AFF0D
:102CB000002800D12BE14E4B0134336001237360B7
:102CC0007B68BC6001337B60072B00DD9AE308362C
:102CD0002198189DA84203DB099DED0700D416E753
:102CE000179D7B6835601A9D013364197560BC605F
:102CF0007B60072B01DD00F03BFC0836189D013D91
:102D0000002D00DC03E77B68102D01DC00F0D8FD0E
:102D1000354910229046D946221C0C1C04E0083686
:102D2000103D102D00DC57E3404610320133346073
:102D30007060BA607B60072BF1DD089849463A1C49
:102D400003F05CF9002801D000F093FCBA687B68BE
:102D500034AEE5E7109B0C981D1A002D00DC8BE6C5
:102D60007B68102D01DC00F0BDFC1F4A102091464D
:102D70008246221C5C4603E0103D0836102D16DD0D
:102D8000494650461032013331607060BA607B6052
:102D9000072BF1DD0898211C3A1C03F02FF90028BD
:102DA00013D1103DBA687B6834AE102DE8DCA34621
:102DB000141C49466419013331607560BC607B6046
:102DC000072B00DD05E2083656E6A24652469389F7
:102DD0005C0601D5FFF77CFB1298FFF77BFBC04632
:102DE0000000000000000000AC92000858920008AB
:102DF000A8920008089859463A1C03F0FFF80028EA
:102E00000CD17B68BC68984634AE0AE708985946EE
:102E10003A1C03F0F3F8002800D1C6E6DA46D5E7FD
:102E20006B46CF330720B4460E9C0F9D021C2240F8
:102E30003032191C1A706B079946E6084C46EB08AD
:102E400034431D1C261C4B1E2E43EFD10E940F95B0
:102E5000099C13916646E40700D5EAE0079D6D1AC8
:102E60000D95FFF7C0FB089859463A1C03F0C6F8C9
:102E70000028D3D1BC6834AE38E6089859463A1CCD
:102E800003F0BCF80028C9D1BC6834AEE0E508986E
:102E900059463A1C03F0B2F80028BFD1BC6834AEE2
:102EA000E6E50F98002802D10E99092923D96B462F
:102EB000CF33B1460E9C0F9D1E1C201C291C0A22DC
:102EC000002303F0BDFE30323270201C0A220023A2
:102ED000291C03F0B5FE021C041C0D1C731E0A43C2
:102EE000EAD113960E940F95079D139C4E462D1B09
:102EF0000D95FFF778FB6D460B1CCF353033FFF790
:102F00006DFB002534AC0D951394FFF76CFB219BF2
:102F1000002B00DC81E213981899169A4518281A9C
:102F20008046904200DD9046404600280BDD7B68DD
:102F300013994444013331607060BC607B60072B9F
:102F400000DD50E308364246D343DB1716981340A2
:102F5000C01A8046002800DC89E07B68102801DC6C
:102F600000F0B1FCA94A10209146211C321C4446B5
:102F70008246A8464E465D4603E00832103C102CBF
:102F800063DD50461031013316605060B9607B60DC
:102F9000072BF2DD0898291C3A1C03F02FF80028B3
:102FA00000D02BE3B9687B6834AAE7E70898594654
:102FB0003A1C03F023F8002800D02FE77F236B444E
:102FC0001B78BC68984634AE31E5B246FEE60E9AF0
:102FD0000F9802230243FFF7D2FB189D013D002DFD
:102FE00000DC1EE6102D01DC00F071FC8749102288
:102FF00092468946221C43465C4604E00836103D52
:10300000102D00DCC9E048465146103201333060D3
:103010007160BA607B60072BF0DD0898211C3A1CB8
:1030200002F0ECFF002800D0CFE6BA687B6834AE2F
:10303000E5E7302A03D01393013930230B70079C46
:10304000139D641B0D94FFF7CEFAAB46B14645467F
:10305000161CA0460C1C49464246444401333160CC
:103060007260BC607B60072B00DDE7E20836139BD3
:1030700018989846169B9844219B834246DB0999F1
:10308000C90743D441466A1A189DEB1A1D1E954282
:1030900000DD151C002D0BDD7A68404664190132F5
:1030A00030607560BC607A60072A00DDD2E20836C5
:1030B000EA43D21715405D1B002D00DC27E57B6835
:1030C000102D01DC00F030FC504A10209146804663
:1030D000221C5C4604E00836103D102D00DC8AE11D
:1030E000494640461032013331607060BA607B60FF
:1030F000072BF0DD0898211C3A1C02F07FFF002806
:1031000000D062E6BA687B6834AEE5E7179A1A9891
:1031100032607A68241801327060BC607A60072AD5
:1031200000DD6EE20836ADE7099D01232B4200D099
:1031300044E57868139D804601208044013441466F
:1031400035607360BC607960072900DC68E5089829
:1031500059463A1C02F052FF002800D05EE67A6819
:10316000BC68904634AE5CE5089859463A1C02F0BB
:1031700045FF002800D051E6BC687B6834AE2AE5E4
:10318000089859463A1C02F039FF002800D045E65D
:103190007868BC68804634AE2AE5A3469846141C7D
:1031A0000123984464194A46756045463260BC6004
:1031B0007D60072D00DC33E5089859463A1C02F083
:1031C0001DFF002800D029E67868BC68804634AE30
:1031D00027E5089859463A1C02F010FF002800D055
:1031E0001CE6BC6834AE47E40E980F9900254442B3
:1031F0008D417F212D236944221C0B7098460E942B
:103200000F9501232A43FFF7CFF9C046AC9200087F
:1032100019981B9902F01EFE002800D154E1159D5B
:1032200020230B9C9D43A946013400D1C5E2472DC4
:1032300000D1B5E28023099C5B001C431B9D1B9BB6
:103240001494A846002B00DAB1E200240C94159DDA
:10325000662D00D1C3E2462D00D116E34B460B9CF0
:10326000453B5A425341E4180223009321AB029399
:1032700022AB039325AB049301940898199A434613
:1032800000F0C6FCA2461390672D01D0472D03D154
:10329000099DED0700D4E9E213984946041C544403
:1032A000462900D129E2DF4BDD4A1998414603F057
:1032B00099FC221C00280BD1259B1A1C9C4207D983
:1032C00030215A1C25921970259B9C42F9D81A1C52
:1032D000139C4D46121B1892472D00D1E7E1159C17
:1032E000652C00DC36E3159C662C00D1C0E2219DE4
:1032F0001695189D169CA54200DD61E2099DED071B
:1033000000D5D4E2E343DB1723400D9467241594E2
:103310000C9C002C00D0D2E17F256D442D78149CAC
:10332000A84600250C9309940B95FFF764F9099DB5
:10333000119C6D0601D4FFF7CEFA0023E35E119DC8
:103340000E930435DB170F931195FFF721F9099DB3
:103350006D0600D4E9E0119C002524880F950E9499
:10336000119C0123043411940E9AFFF708FA099D69
:103370006D0600D4CDE0119C002524880F950E9495
:10338000119C0023043411940E9AFFF7F8F9099D5B
:103390006D0600D4B3E0119C002524880F950E948F
:1033A000119C04341194FFF746FA099DED060BD4E5
:1033B000099C640608D5119D129C2D682C80119DD6
:1033C00004351195FFF716F8119C129D23680434FB
:1033D0001D601194FFF70EF8CB46A146141C494618
:1033E0006419013331607560BC607B60072B01DCC0
:1033F000FFF78CFB21E4A346141CF0E78A488146C2
:10340000FFF769FB089859463A1C02F0F7FD0028BF
:1034100000D003E5BC6834AE5AE4844A013432601B
:10342000012272607A68BC6001327A60072A00DD8E
:103430008BE00836181C002807D1189D002D04D1F8
:10344000099DED0701D4FFF762FB179D7B6835608E
:103450001A9D013361197560B9607B60072B00DD2F
:103460008BE1321C08324442002C00DCA4E0102C1A
:1034700000DC5FE26C4D1026A9465D4604E0083290
:10348000103C102C00DC8BE04846103101331060FA
:103490005660B9607B60072BF1DD0898291C3A1C47
:1034A00002F0ACFD002800D0A8E0B9687B6834AA1F
:1034B000E6E7B9680898DA46002900D186E459465B
:1034C0003A1C02F09BFD81E4159C472C00DDEBE0EB
:1034D000574D13957F20099D6844802300789D43B4
:1034E0000324099580460C9403250D95002400259E
:1034F0000B941695FFF77FF80D95FFF71DFA119DB8
:10350000119C2D68002004340E950F901194FFF744
:1035100092F9119D119C2D68002004340E950F9096
:10352000119400232A1CFFF72AF9119D119C2D6884
:10353000002004340E950F90119401232A1CFFF7EC
:103540001EF93C4D1395FFF7DEF8089859463A1CD2
:1035500002F054FD002800D060E42198BC6834AE2D
:1035600069E7099D0132254309954B78FEF781FFF4
:10357000089859463A1C02F041FD002800D04DE45D
:10358000BC6834AEFFF7BAFB02F0F2FC0D90C34307
:103590007F2068440078DB1780460D9DFFF7D3F944
:1035A000AB464D460919013315605460B9607B6024
:1035B000072B00DD4DE10832139C189D1460013388
:1035C0004C195560BC607B60072B01DDFFF735FBB4
:1035D000161CFFF79BFA18498846FFF750F801229E
:1035E0005242FEF7B4FF089859463A1C02F006FD15
:1035F000002800D012E4BC6834AEA4E4AA46FFF769
:10360000E5FB089859463A1C02F0F8FC002801D066
:10361000FFF704FC219BBC6834AE33E5C046C046CE
:103620000000000000000000AC920008A892000812
:10363000709200086892000858920008089859464D
:103640003A1C02F0DBFC002801D0FFF7E7FBBC6866
:1036500034AE0CE5089859463A1C02F0CFFC00281D
:1036600001D0FFF7DBFB189C219834AE231ABC680D
:103670001EE5CA46FFF7AAFBBB4A9046FFF779FA58
:103680000B99062900D90621CB43DB17119400249E
:103690000D910B941940B54C0C91002500218846E2
:1036A00016951394FEF7ADFFB14C139412E7219CCD
:1036B000E01C36DB0B9DA54233DB169419E6149C07
:1036C0007F202D2268440994002402700C939046B8
:1036D0000B94FEF793FF7F202D23684403709846D8
:1036E000FFF70AF8A3498946FFF763FB7F20684488
:1036F00000780C9580461194F7E60378302B02D0C1
:10370000219BE418CFE519984146964B944A03F063
:1037100069FA0028F4D1012350461B1A2193E418BA
:10372000C1E5159D023D1595159823AD013C2194E9
:10373000A8462870002C00DADFE06B462B228D3380
:103740001A70092C5DDC6B468E33302230341A70CF
:103750005C7024AB4446189D1C1B2D191C94189CAE
:103760000D95012C00DCE8E00D9C01340D94E34341
:10377000DB17002523401695CAE5089859463A1CE0
:1037800002F03CFC002801D0FFF748FB2198B96803
:103790007B6834AA67E6002542460B95FEF76AFE71
:1037A0000B9C002C00D045E501250B9542E58025BA
:1037B0002D062D24A8440C9449E506240B9439E5E4
:1037C000169D0123002D00DCB1E0189C1B190D9300
:1037D0000D9DDB43DB1767242B40159498E50323ED
:1037E000009321AB0B9D029322AB039325AB049373
:1037F00001950898199A434600F00AFAAA461390D0
:103800004AE59A21694489460B1C201C0A211D1C8B
:1038100003F0CEF930312970201C0A2103F072F92F
:103820006B1E041E092CF0DC30346A46E4B29B3275
:103830001C70934200D38FE00D3A01E05C780133B5
:10384000147001329945F9D18E227B1B6A44D3183A
:1038500080E7089859463A1C02F0D0FB002801D0B6
:10386000FFF7DCFAB9687B6834AAA5E6259A2FE54C
:10387000219C1694002C36DD0B9D002D2AD1099C2D
:10388000E40727D4169B0D9342E50323009321AB55
:103890000B9C029322AB039325AB049301940898ED
:1038A000199A434600F0B4F9A2461390F4E4169D29
:1038B00067240135EB43DB170D952B40159427E565
:1038C0002C4881468BE52B498946FFF7C4FB2948E4
:1038D000814665E40B99169D01316918CB43DB17CE
:1038E0000D910B4014E50B9C002C2CD1099DED078C
:1038F00029D4012501230D950AE56B462D228D3330
:1039000064421A701DE7119D11992D680431537896
:103910000B9511914246002D01DBFEF7AAFD012116
:1039200049420B91FEF7A5FD1249894657E502234E
:103930005B1B4AE70F48814633E6099DED0700D53A
:1039400012E70D9C13E70B9C0234E343DB170D9445
:103950002340DDE4219CE7E66B468E33FAE6C04661
:10396000000000000000000058920008A09200082B
:1039700074920008AC92000870B51B4C061CA5445C
:103980000C1C89890220814368468181616E1991EE
:10399000E189C181E169606A07911AA900910491E6
:1039A0008021C90002910591002109900691301CE7
:1039B0006946FEF7D9FC051E05DB301C694601F09F
:1039C0006DF900280CD16A469389580603D5A2895F
:1039D00040231343A381281C8D23DB009D4470BD2D
:1039E00001256D42EFE7C04698FBFFFF324B70B5F3
:1039F000061C18680C1C002802D0816B00293BD0E3
:103A0000A589ABB21A070DD52269002A15D0D807AF
:103A100021D561690023A3604B42A3610020002AE5
:103A200021D070BDD8063ED5590728D42269082375
:103A30001D43A581ABB2002AE9D1A02080008021DE
:103A4000184089008842E2D0301C211C01F00EFB96
:103A5000A3892269DBE70021980700D46169A1608E
:103A60000020002ADDD1A3891906DAD540221343AC
:103A70000120A3814042D4E701F02EF9C0E7216B79
:103A8000002909D0231C4033994203D0301C01F097
:103A9000F5F9A58900232363242322699D4300238C
:103AA00063602260C3E70923336040231D43012084
:103AB000A5814042B5E7C04650040020F0B5444619
:103AC0005F4656464D46F0B480468B460C694146EB
:103AD000096985B000208C4200DD90E05D46013C24
:103AE0001435A30002954746ED1814372968FB18D2
:103AF000013118680393FEF7D3FB061E42D0002164
:103B00008A46029B3A1CAC46B9465546071C0E1C19
:103B1000A24602CB0804000C7843090C7943301804
:103B2000040C6418116800040904090C4D19000CF8
:103B3000281A1568260C2404290C240C0514091BCA
:103B4000491900040D14000C0904014302C29C45EC
:103B5000DFD203993E1C096865464F46544600294A
:103B600010D1039B043B9F420AD21A68002A03D05B
:103B700006E01968002903D1043B013C9F42F8D3B9
:103B8000424614614046594602F076F8002835DB7B
:103B9000002189460136211C029BB4464C463A1C42
:103BA0002E1C8946116820CB0804000C0419280437
:103BB000000C201A090C2D0C0414491B09190004CF
:103BC0000C14000C0904014302C29E42EAD24C4686
:103BD000A300FB181A686646002A0FD1043B9F42D7
:103BE0000AD21D68002D03D006E01968002903D110
:103BF000043B013C9F42F8D342461461301C05B09F
:103C00003CBC90469946A246AB46F0BD0000000081
:103C1000F0B556464D465F464446F0B4016C9DB043
:103C20008246299D02920393002909D0436C012208
:103C30009A404B608A6001F00DFE002351460B64F0
:103C4000039E002E34DB00232B601F4B321C1A40D6
:103C50009A421AD0029C039D1A4B194A201C291C17
:103C600002F0C0FF002837D0289C2A9D0123236042
:103C7000002D00D13AE21548286001381DB03CBC47
:103C800090469946A246AB46F0BD114B289C029D3A
:103C90002360002D00D10CE20E482A9C002CEDD0B0
:103CA000C278C31C002A00D005332A9D2B60E5E7AB
:103CB0007600012376082B600396C6E7C046C0460F
:103CC00000000000000000000000F07FA992000842
:103CD0000F270000C89200081BAB00931AAB01939A
:103CE00050462B1C221C02F057F8330D834600D19E
:103CF000E4E1201CBC4C2A03120B211C1143BB4ADB
:103D000000241A9F9E181394A84BA74A04F00AFA9D
:103D1000A74AA84B03F076FFA74AA84B02F0E6FF9C
:103D2000041C301C0D1C04F065FDA54AA54B03F0D6
:103D300069FF021C0B1C201C291C02F0D7FF041C6D
:103D40000D1C04F023FDA04AA04B0890291C201C48
:103D500002F04EFF002800D0BBE2089D0124119420
:103D6000162D0FD8A24AEB00D31818685968029A8A
:103D7000039B02F051FF002800D1CDE3013D002458
:103D8000089511940024BE1B0994013EB14600D54C
:103D9000ACE2089C002C00DA92E20025A1440D94CC
:103DA0000B95269C092C00D9A2E10125052C02DDEA
:103DB000043C26940025269C032C01D100F0FFFC36
:103DC00001DC00F07FFC269C042C01D100F0FDFBFF
:103DD00001241094269C052C00D08BE1279C089987
:103DE0006418129401340A94002C01DC00F037FCB2
:103DF0000023524653640021172C0AD901220423C0
:103E00005B00181C1430111C0132A042F8D9534633
:103E10005964504601F0F6FC51460C9008640E2C93
:103E200000D978E1002D00D175E1089D002D01DC5D
:103E300000F002FD2A1C0F236D491A40D2008A1897
:103E40000899146855680E11F20601D400F0C3FCFD
:103E50001E40684B029803991A6A5B6A03F068FA7D
:103E60000E900F9103239846002E12D0614F201C14
:103E7000291C44460123334204D03A687B6801344C
:103E800003F0C0FE76100837002EF3D1A0460D1CBB
:103E9000041C0E980F99221C2B1C03F049FA061CD7
:103EA0000F1C119D002D09D0301C391C484A494B6C
:103EB00002F09EFE002801D000F0A9FD404604F06B
:103EC00099FC021C0B1C301C391C03F09BFE424A5F
:103ED000424B02F00BFF0E900F910F9B464C0A9D38
:103EE0001C190F94002D01D100F044FC089C0A9D80
:103EF0001894A846109C002C01D100F0DEFC43462B
:103F00003B4A013BDB00D3181A685B6834483549EB
:103F100003F00EFA0E9A0F9B04F004F91490159119
:103F2000391C301C04F032FC041C04F063FC021C3D
:103F30000B1C301C391C04F0F5F8271C30370C9D85
:103F40000E900F910E9A0F9B149815990C9EFFB22C
:103F50002F70013602F060FE002801D000F097FDBE
:103F60000E9A0F9B1A481B4904F0DCF8021C0B1C2C
:103F70001498159902F050FE002801D000F0C3FDFE
:103F80004146012900DCC6E04C46199452465C4685
:103F9000A8441694B1460E9C0F9D149E159F0E9238
:103FA0003EE0C046C046C046000000000000F83FAA
:103FB00061436F63A787D23FB3C8608B288AC63F2F
:103FC000FB799F501344D33F000000000000000025
:103FD000000000000000F03F0000000000001C4056
:103FE000000000000000E03F0000F03F01FCFFFF88
:103FF000E0920008A89300080000C0FC221C2B1CC3
:10400000BE49BD4804F08EF8321C3B1C02F0F0FDA6
:10401000002801D000F053FDC14501D100F05BFD47
:10402000301C391CB64AB74B03F0ECFDB44AB54B13
:10403000061C0F1C201C291C03F0E4FD0D1C041C95
:1040400004F0A4FB824604F0D5FB021C0B1C201CD0
:10405000291C04F067F80D1C0121012349429944F1
:104060008B4653463033CB44DBB25A46041C1370A4
:104070009A46201C291C321C3B1C02F0B9FD00286A
:10408000BCD00E9C169BA246189C9B464E4608949C
:104090005046594601F0DEFB00233370089B289CF4
:1040A0002A9D01332360002D00D108E32E600C9877
:1040B000E4E5360300D0EFE59548EEE51A9F1B993D
:1040C000944B7D189D4200DA20E29348934A401BAE
:1040D000029C8640AB18301CDC40204304F0C8FB37
:1040E0008F4A012489186E1E13940DE68D48C5E58C
:1040F000002426940023554600216B64504601F0AD
:1041000081FB01267642002101240C9028640A9646
:104110001296279110941B9B002B00DAB2E0089DA9
:104120000E2D00DDAEE0804AEB00D3181C685D6800
:1041300004940595279D002D00DA50E2029C039D12
:10414000049A059B201C291C03F0F2F804F01EFBC6
:10415000804604F04FFB049A059B03F053FD021CBC
:104160000B1C201C291C03F0DDFF43460C9A303346
:104170000C9E13700A9B041C0D1C0136012B53D09E
:104180005F4A604B03F03EFD5F4A604B041C0D1C10
:1041900002F028FD002800D07AE70C990C9F894690
:1041A0000A99023752465B46BA46894402930792FF
:1041B000049E059F12E0101C191C514A514B03F03C
:1041C00021FD514A514B0D1C041C01218A44201C25
:1041D000291C02F007FD002800D0B2E2321C3B1C73
:1041E000201C291C03F0A4F804F0D0FA804604F047
:1041F00001FB321C3B1C03F005FD021C0B1C201CA8
:10420000291C03F08FFF021C0B1C041C0D1C4046D4
:10421000514601393030D3460870CA45CBD1029A95
:10422000079B564693469A46221C2B1C201C291C91
:1042300002F05CFD041C0D1C221C049805992B1C2B
:1042400002F0D6FC00280CD104980599221C2B1CE6
:1042500002F0C8FC002800D11AE74346DB0700D46F
:1042600016E7741E27780C9B06E0A34200D1CAE231
:10427000023E3778261C013C392FF6D00137FFB2B9
:10428000277005E7109C002C50D0269D012D00DCE6
:10429000CCE10A9C0B9D013CA54200DA93E22C1B69
:1042A0000A9D002D00DA99E3099E0A9B099D50465C
:1042B000ED1801210995994401F076FB071C38E0BF
:1042C000089D099C641B09946C4200250B940D9574
:1042D00067E5089804F08EFA2B1C221C02F082FC81
:1042E000089D43424341ED1A089536E54D466D421F
:1042F0000995A1464DE5C046000000000000F03FD2
:104300000000000000002440000000000000000049
:10431000BC920008EFFBFFFF0EFCFFFF1204000041
:10432000000010FEA8920008E09200080B9C099E75
:104330000027002E0DD0494600290ADD4B46B14525
:1043400000DD40E1099D4946ED1AC91A0995F61AA2
:1043500089460B9D002D1ADD109D002D00D127E20E
:10436000002C10DD391C221C504601F0C9FB071C33
:104370005A46391C504601F021FB5946051C50464F
:1043800001F068FAAB460B9D2A1B00D048E150466D
:10439000012101F009FB0D9C8046002C05DD414602
:1043A0005046221C01F0ACFB8046269D0024012DC6
:1043B00000DC8EE10D9D0123002D00D074E14B4403
:1043C0001F22134000D19FE02022D21A042A00DCD1
:1043D0009FE31C22D31A099DF618ED1809959944FC
:1043E000099D002D05DD594650462A1C01F0E4FBCD
:1043F00083464946002905DD414650464A4601F0BC
:10440000DBFB8046119D002D00D02EE10A9D002D82
:1044100000DC71E1109D002D00D180E0002E05DD53
:10442000391C5046321C01F0C7FB071CB946002C52
:1044300000D02EE20C9C0A9D231C013B5B19029DBF
:104440000D9301231D4042460295A0465D4607920A
:1044500054460799281CFFF731FB031C30330A90A0
:10446000391C281C099301F007FC079982464A462B
:10447000201C01F01DFCC168061C002900D0E4E0EE
:10448000281C311C01F0F8FB8346311C201C01F074
:10449000E1F926995B460B43514603D1029A002A63
:1044A00000D1F8E2002900DA62E2269953460B4374
:1044B00003D1029A002A00D1FAE25946002900DD10
:1044C00076E2099A41460A700D99464601368845BA
:1044D00000D17CE2291C0A220023201C01F0C4F92F
:1044E000391C051C0A22201C00234F4500D1A6E0E0
:1044F00001F0BAF94946071C0A22201C002301F0EA
:10450000B3F9B0468146A4E71C2364E7C648029984
:10451000401B8140081CE1E50025119532E40C9A0E
:10452000B946002447460A9E5D46904606E0291C8F
:1045300050460A22002301F097F9051C391C281C5B
:10454000FFF7BCFA031C303341460B550134A64239
:10455000EDDC0A9EB8460993AB464F46002E00DCC0
:1045600040E20C9C0025A61959465046012201F054
:1045700023FB4146834601F07FFB002800DC32E14B
:10458000741E23780C9A06E0A24200D1D2E0023ECB
:104590003378261C013C392BF6D00133237050466A
:1045A000414601F057F9002F00D171E5002D05D0EB
:1045B000BD4203D05046291C01F04CF95046391C2D
:1045C00001F048F964E5331CBCE6012410942799F6
:1045D00000293DDD0C1C12910A91FFF709FC0A9C91
:1045E000002C00DDAAE500D085E28C4B8A4A0498B5
:1045F000059903F007FB029A039B02F017FB0028C2
:1046000000D1FCE0002290460027279C0C9EE4434A
:1046100008945046414601F01DF9002FCED137E5F0
:104620005946504601F06CFA8346B0E6139C002CC4
:1046300000D1D9E17D4D0B9C5B19099E36E601F056
:1046400013F9B046071C814603E7012293461CE795
:10465000012301210122012412930A91279251463C
:1046600000234B640021FFF7D4FB5846414601F07C
:1046700003FB002800DBC9E6089D5946013D504672
:104680000A220023089501F0EFF8129D83460A954F
:10469000109D002D00D1B9E6391C50460A22002396
:1046A00001F0E2F8071CB1E641460B6903339B00B9
:1046B0004344586801F02CF920231B1A7FE60C981C
:1046C000FFF7DCFA00241094269C022C00D17EE730
:1046D00010E50299002900D06CE6039A130300D07C
:1046E00068E6534B134200D164E6099C012501346E
:1046F0000994A94401245DE6269D022D00DC89E68B
:104700000A9C002C81D1414650460522002301F02D
:10471000ABF880464146584601F0AEFA002800DC6E
:1047200073E7089D0C9E0C9C3123013501362370E4
:1047300008956EE7089C3123013408940C9C237083
:104740002DE70299079A5E4692468B46A0E44046C2
:1047500004F050F8021C0B1C301C391C03F052FAF8
:104760002F4A304B02F0C2FA0E900F910F99314A46
:104770008A180F92294B284A301C391C03F0D2FCAE
:104780000E9A0F9B041C0D1C02F046FA002836D12D
:10479000201C291C0F9C80252D060E9A631902F0FF
:1047A00027FA002800D1B6E40025A84600272CE708
:1047B000594650460B9A01F0A3F98346E7E50024D9
:1047C0001094FFF70BFB0B9D0B94631B0D9D0024B6
:1047D000ED180D9564E50299039A0E910F9202224D
:1047E0009046FFF741FB002804D1099CE40701D55E
:1047F000C6E61E1C731E1A78302AFAD0CFE60025B2
:10480000A84600278DE7089D3023013508950C9DAB
:1048100031272B7027703BE400000000000014409B
:104820000000000000001C40EEFBFFFF330400000E
:104830000000F07F0000C0FC089D6C42002C00D1FD
:10484000D8E00F232340BC4ADB00D3180298039919
:104850001A685B6803F0D6F92411061C0F1C002CA3
:1048600000D14CE102218846B44D301C391C46462B
:104870000122224204D02A686B68013603F0C2F993
:1048800064100835002CF3D1B0460F1C061CFFF74E
:1048900008FB7968504600F0B5FF3A69391C0232CE
:1048A000041C92000C310C3000F018FF5046211C03
:1048B000012201F081F98146BCE54546013D9E4A51
:1048C000EB00D318186859680E9A0F9B149503F0E3
:1048D00099F916901791391C301C03F057FF0E9070
:1048E00003F088FF0B1C021C391C301C03F01AFC5F
:1048F0000E9F0D1C0C9E0C9930370F7001364144F1
:104900004346041C371C0E91012B1ED0B046201CC0
:10491000291C844B824A03F075F9041C0D1C03F01A
:1049200035FF061C03F066FF021C0B1C201C291C13
:1049300003F0F8FB30360E9C3E700137A742E8D1F9
:104940000D1C14994646041C7618774A774B169826
:10495000179902F0CBF9221C2B1C02F049F9002810
:1049600000D180E0189D741E277808950C9B83E485
:10497000079A5E46A246AB4644469046002E11DD9D
:1049800059465046012201F017F94146834601F08D
:1049900073F9002800DCA6E0099D392D30D00A9D6E
:1049A00031350995099D661C25703D1C4F46F6E57D
:1049B000AB46079A099DA24644469046392D1FD022
:1049C000099B3D1C0133661C23704F46E7E5AB464F
:1049D000079DA246A8463D1C4F46C5E50999002300
:1049E0004E1B63E40126BCE51A9936235B1A0B9C27
:1049F000099E5BE40223029E039F9846FFF751FA4B
:104A000039233D1C661C23704F460C9AC3E50A9C53
:104A1000002C00D19BE6129D002D01DCFFF77BFBF3
:104A2000089C404B3E4A301C391C013C189403F052
:104A3000E9F8061C404601300F1C03F0DBFE021CA7
:104A40000B1C301C391C03F0DDF8394A394B02F0DD
:104A50004DF90E900F910F9D3949129A69180F91D7
:104A60009046FFF747FA169A179B2F482F4903F0F5
:104A700059FB221C2B1C02F0CFF8002801D1FFF7B4
:104A80004AFB00E01E1C731E1A78302AFAD0189DCB
:104A90000895FFF7FDFAAB46079A099DA2460291D9
:104AA00044469046392DABD0002900DD77E779E701
:104AB000079B5E46A246AB46444698465EE70E9D7F
:104AC00057461699AA46189D5C464E468B46089551
:104AD0000C9BFFF7D1FB199A169B0E9C91469B46A7
:104AE000A246FFF718FB002800D05BE7099DED0701
:104AF00000D457E750E700218846002785E50224C7
:104B0000A046FFF7CEF9189C08940C9C231CFFF7D5
:104B1000B3FB042A00D163E43C22D31A5BE4C04611
:104B20000000000000002440000000000000E03F02
:104B30000000000000001C40E0920008A89300085C
:104B40000000C0FCC046C046F0B5474680B48B8923
:104B500080469AB20D1C11073CD4802212011343E7
:104B60006A68AB81002A56DDAC6A002C2ED0414623
:104B700000229BB20E680A60DA0450D52A6D5F07E6
:104B800006D569682B6B521A002B01D0EF6BD21B34
:104B9000E96940460023A047411C4BD0AA893E4BFF
:104BA000296913400022AB816A602960DA044ED47F
:104BB000296B43461E60002908D02B1C40339942C4
:104BC00002D0404600F05AF900232B63002004BCB9
:104BD0009046F0BD2E69002EF8D02F680023BC1B34
:104BE0002E60910700D16B69AB60002C04DCEDE70F
:104BF0003618241A002CE9DD4046E969321C231CD2
:104C00006F6AB8470028F3DCAA89402313430120C8
:104C1000AB814042DBE7EF6B002FA5DCD6E700223B
:104C20004046E9690123A047021C431C1ED0AB8902
:104C3000AC6AA4E742461368002B0AD1A989164A38
:104C40002F690A40AA816B602F60D104B0D5286516
:104C5000AEE71D2B01D0162B19D1AA890E4B13409C
:104C6000AB8100236B602B692B60A1E747463B6853
:104C7000002BDCD01D2B06D0162B04D0A989402395
:104C80000B43AB81A3E741460E6000209FE7AA8952
:104C900040231343AB819AE7FFF7FFFF38B5041CAD
:104CA0000D1C002802D0826B002A09D00C22AB5EBA
:104CB0000020002B03D0201C291CFFF745FF38BD26
:104CC00000F00AF8F2E7C04608B5024900F09EF984
:104CD00008BDC04649610008F8B5564644465F46DF
:104CE0004D46F0B4846B061C002C62D1344B032279
:104CF000C363B8239B00C450B9239B00C250BB239D
:104D00009B004568C218BA239B00C2500423281C8C
:104D1000AB812C606C60AC606C66EC812C616C616A
:104D2000AC61002108225C3000F01AFD254B264FB3
:104D30009A462B62254BED6199466B62244BEF62DC
:104D4000AB62B56898460923AB81281C0123EB812F
:104D50002C606C60AC606C662C616C61AC61002195
:104D600008225C309B4600F0FBFC53462B624B460E
:104D70006B624346AB62ED61EF62F5681223AB8173
:104D8000281C0223EB812C606C60AC606C662C618B
:104D90006C61AC615C300021082200F0E1FC5346FC
:104DA0002B624B466B624346AB625B46ED61EF6242
:104DB000B3633CBC90469946A246AB46F8BDC0469C
:104DC000C94C0008D95E0008655F0008015F000853
:104DD000395F00087047C0467047C046F8B50F1CE1
:104DE000041C00F00BFD204D204AAB685E680323D5
:104DF0009E43F71BBF183F0B1D4B013F3F039F42D4
:104E000007DD201C002101F055F8AA68931998428B
:104E100004D0201C00F0F4FC0020F8BD7942201CD6
:104E200001F048F801300DD0AB68F61B01221643A3
:104E30005E60104B201C1A68D71B1F6000F0E0FC5E
:104E40000120EAE7201C002101F034F8AB68C21A07
:104E50000F2ADEDD08490968401A06490860012169
:104E60000A435A60D5E7C046B0040020EF0F0000A7
:104E7000FF0F0000E0080020BC080020F0B5474606
:104E800080B4051C0C1E55D000F0B8FC211C08395C
:104E900048680127031CBB43CA1854688046032096
:104EA0008443201C534CA668964260D00026B4462A
:104EB0004646506037420AD10E68271C891B9B1951
:104EC0008E680837BE426BD0CF68F760BE60161898
:104ED000766801273E4207D11B18604600282CD077
:104EE0009068D268C26090600122181C1043664628
:104EF0004860CB50002E1AD13F48834229D95A0A24
:104F0000042A50D89E093836700080002018826824
:104F100082424ED003265468B443A34202D2926820
:104F20009042F8D1D368CB608A609960D160281C28
:104F300000F066FC04BC9046F0BD90682F4EB04275
:104F4000CFD11F43C1608160C86088604F60CB5083
:104F5000EDE7DB08981082406068DB000243626086
:104F6000E418A368CC608B60A160D960DFE7C31848
:104F70004046074206D10A68891A88689B18CA68A1
:104F8000C260906001221A434A601D4AA160126803
:104F90009342CCD31B4B281C1968FFF71FFFC6E7B1
:104FA0000126B44693E7142A0CD8161C5B36700011
:104FB000ABE7B6100123B3401E1C63681E43666056
:104FC000131CB0E7542A03D81E0B6E3670009CE702
:104FD000AA204000824203D8DE0B7736700094E7A7
:104FE0000948824203D89E0C7C3670008DE7FC2075
:104FF0007E268AE7B0040020FF010000B8040020EC
:10500000B8080020DC08002054050000F0B5B822E4
:105010004746920080B4871888460026002F13D098
:105020007D68BC68013D0CD4A389012B06D90E22F2
:10503000A35E013302D0201CC04706436834013D03
:10504000F2D23F68002FEBD1301C04BC9046F0BD7B
:10505000004870478C040020014B18687047C04618
:10506000AC0400200048704754040020F0B58B8940
:1050700091B09AB2051C0C1C900740D40E20095E1A
:1050800000291BDB281C01AA01F0CAF8002813DB49
:10509000029AF0231B021340294A9F187A42574173
:1050A00080221202934234D0A28980231B01134331
:1050B0008026A381F60009E0A3899AB24026110652
:1050C00024D5802212011343A3810027281C311C00
:1050D00000F03CF800280CD01A4BEB63A289802327
:1050E0001343A381206020616661002F1CD111B0A1
:1050F000F0BDA3899905FAD402221343A381231C8E
:1051000043332360236101236361F0E78026F600C7
:10511000D7E70D4BA06A9842C6D1A3898026F60036
:105120003343A381E664D1E70E22A15E281C01F07F
:1051300017FA0028DBD0A28901231343A381D6E705
:1051400000E0FFFFC94C0008395F0008F0B5564683
:1051500044465F464D46F0B40C1C0B3483B0061C2D
:10516000162C2BD907239C432BD4A14229D8301CC1
:1051700000F044FBF823FF339C4226D8E208CA4DD6
:10518000D300EB18DF689F4200D1BBE178680323AE
:10519000FA68B96898433B18CA609160596801225F
:1051A0000A43301C5A6000F02BFB381C083003B057
:1051B0003CBC90469946A246AB46F0BD1024A142A5
:1051C000D5D90C2333600020F1E7630A00D18EE0CB
:1051D000042B00D93DE1A30938339C465900B24D58
:1051E00089006918CF68B94215D07A6803239A43B9
:1051F000101B0F2800DD8DE000287CDA032007E07B
:105200007A688243131B0F2B00DD83E0002B72DAD8
:10521000FF68B942F4D1012294442B1C2F69083352
:105220009F4200D163E1786803229043021C011B76
:105230000F2900DD4AE16B612B6100295FDA9B4B8E
:10524000984200D90FE1C3089A100121DB00EB1846
:10525000914068680A1C99680243FB60B9606A6003
:105260009F60CF6061468B1001219940914255D8D3
:1052700011420DD1032360469843031C04334900B7
:105280009C46114204D1042349009C441142FAD0A7
:10529000032080466246D3005B199A46181CE146FB
:1052A000C768B84207D124E1002B00DB33E1FF6877
:1052B000B84200D11DE17A6843469A43131B0F2B75
:1052C000F2DD01213A190C437C60F868BC680835AE
:1052D000E06019438460EA60AA60301CD560956084
:1052E0005160D35000F08CFA381C08305FE73F2241
:1052F0007E21944673E7FB68B968CB609960BA1861
:10530000516801230B43301C536000F079FA381CBC
:1053100008304CE70120404284447CE7AF68032317
:10532000786898438146A04203D3031B0F2B00DD0E
:1053300081E05F4A5F4B49461B681068791801910C
:10534000E3189346013000D147E15B495B181B0B22
:105350001B030093301C009900F0ACFD021C80463A
:1053600001325DD0019B834200D9EBE053480099A4
:10537000026882468B1801990360414500D135E1EE
:105380005A461268013200D143E1019841460A1A97
:105390009B1851460B6007234246134000D104E19D
:1053A000D21A08329046464AD31A0098021C424448
:1053B0001205120D9A1A111C301C934600F07AFD4A
:1053C000411C00D121E14246801A58440123184370
:1053D000524611680B1C5B444146A960136048604B
:1053E000AF4213D04A460F2A00D8E9E04A4678680F
:1053F00007210C3A8A4301210140114379600520BD
:10540000B918486088600F2A00D906E12D4A106853
:10541000834200D913602C4A11688B4200D9136073
:10542000AF6803237A689A43131B944200D9AEE015
:105430000F2B00DCABE00122211C11433C1913436C
:105440007960301CAC60636000F0DAF9381C083019
:10545000ADE6142B6ED9542B00D99DE0230B6E338F
:105460009C465900BBE6430A042B67D9142B00D98C
:10547000B6E0191C5B314800800040198368814602
:10548000834200D194E00321884659684046814315
:105490008A4202D29B689945F7D1D9686A68F96057
:1054A000BB608F60DF60DDE6B0040020FF0100001C
:1054B000BC080020DC0800200F100000E0080020DD
:1054C00008100000D8080020D408002001203A1954
:1054D000044308437C606A612A615060D360936032
:1054E000301C515000F08CF9381C08305FE66A68B7
:1054F000B8E60122914443464A460830134200D0A0
:10550000CEE62CE03B1C7F69023208339446BB4256
:1055100000D182E63AE6BA1850680123034353608B
:10552000FB68BA68301CD3609A6000F069F9381CD7
:1055300008303CE65B339C46590050E6810938311F
:10554000480099E7AF4200D06AE70FE75346186872
:1055500001225242083B94448246984277D1434606
:1055600060460342F2D16B688B436B6049009942FD
:1055700000D9D3E6002900D1D0E6CC46194200D0AC
:1055800088E60422490094441942FAD082E6301C8D
:1055900000F036F900200AE6AA225200934214D8FD
:1055A000E30B77339C46590019E680235B01FCE648
:1055B0008910686801228A4002436A60191C6EE7FC
:1055C00001234B60474600222EE7224A934218D817
:1055D000A30C7C339C46590001E610330093B9E6D6
:1055E000542B22D8010B6E31480045E70A0500D044
:1055F000C6E60099AA68081C48440121014351608D
:1056000004E77E23FC219C46E9E5002301209B461C
:10561000DEE6434658460360BDE6391C0831301CBF
:10562000FFF72CFC51460B68F0E6AA2149008B429B
:1056300003D8C10B773148001EE706498B4203D8D7
:10564000810C7C31480017E7FC207E2114E76B6851
:105650008CE7C04654050000F0B5CCB2830737D0C4
:10566000531E002A1FD00278A2421DD0032505E058
:10567000002B18D00278013BA24215D001302842FD
:10568000F6D1032B11D8002B0DD00278A2420BD0FB
:10569000421CC31804E00132511E0978A14203D014
:1056A000101E9842F7D10020F0BDFF2631400E02B7
:1056B00031430E04074D0E430268074F7240D11963
:1056C00091432942DFD1043B0430032BF4D8DAE7BD
:1056D000131CD6E780808080FFFEFEFEF0B50F2A07
:1056E00035D9031C0B439C0735D1161C103E3609D7
:1056F0003501451910350C1C031C27681F606768AD
:105700005F60A7689F60E7681034DF601033AB42CA
:10571000F3D1731C1B01C518C9180F231340032BA9
:105720001BD91C1FA4080134A4000023CE58EE503E
:105730000433A342FAD1ED18C91803231A4005D047
:105740000023CC5CEC5401339342FAD1F0BD051C2C
:10575000002AF5D1FAE7051CF2E71A1CF8E7C04663
:10576000F0B5830746D0541E002A42D0CEB2031CA7
:10577000032503E0621E002C3BD0141C01335A1E8B
:1057800016702B42F6D1032C2BD9FF250D402A028F
:1057900015432A0415430F2C15D9271C103F3F0928
:1057A0001E1C3A011036B6181A1C1560556095601B
:1057B000D5601032B242F8D101373F010F22DB1918
:1057C0001440032C0DD9271FBF08BA001E1DB618A0
:1057D0001A1C20C2B242FCD10137BF000322DB19E0
:1057E0001440002C05D01C19C9B219700133A34212
:1057F000FBD1F0BD141C031CC5E7C0467047C04672
:105800007047C046C36C70B5041C0D1C002B0AD039
:10581000AA009A18106800280ED0036813600022AE
:105820000261C26070BD0421212200F005FCE06429
:10583000031EEDD10020F5E70126AE40721D920057
:10584000201C012100F0F8FB0028F3D045608660A1
:10585000E5E7C046002906D04A689300C26CD31819
:105860001A680A6019607047F8B54D4644465F46AD
:10587000564698460B69F0B40D1C83468A469946F5
:10588000143500242E68013437043F0C5743360C7E
:10589000564347443B0C9E193F04310C3F0C3604E1
:1058A000F619884640C5A145ECDC00290DD05246CA
:1058B0009268914510DA4B4604339B0053444246AC
:1058C0005A604B46013351460B6150463CBC9046F2
:1058D0009946A246AB46F8BD534659685846013131
:1058E000FFF790FF53461A6951460232041C0C31EF
:1058F00092000C30FFF7F2FE514649688B00594682
:10590000CA6C5146D3181A68A2460A601960D2E7D9
:10591000031C010C0022002901D103041022190EDE
:1059200001D108321B02190F01D104321B01990F5A
:1059300001D102329B00002B05DB2020590000D44E
:105940007047501CFCE7101CFAE7C0460368011CB6
:10595000580708D00020DA0704D4980720D49B0801
:105960000B600220704718040022002801D11B0C94
:105970001022FF20184201D108321B0A180701D15A
:1059800004321B09980701D102329B08D80704D4BE
:105990005B082020002BE5D001320B60101CE1E7F2
:1059A0005B080B600120DDE710B50C1C0121FFF73F
:1059B00029FF01234461036110BDC046F0B55F4675
:1059C00056464D464446F0B40F69146985B00E1C26
:1059D000151CA74204DA3B1C161C271C0D1C1C1CA2
:1059E000B3683A19716890469A4200DD0131FFF7B9
:1059F00009FF1421424683468B4493005B44191CE3
:105A0000039302905B4600228B4503D2039904C3A3
:105A10009942FCD81435AA46A4001436BF00544459
:105A20000096F7190194A5424CD251460D682C04FA
:105A3000240C1FD0009A5B460025196840CA080450
:105A4000010C3004000C6043360C08186643401902
:105A50001D689946290C8919050C491900040D0C7B
:105A6000000C0904014302C39742E6D849464D6041
:105A7000524615682D0C1FD05B4619680026009A07
:105A8000081C341C1688000C6E433618361909049D
:105A90003004090C0143196010CA5868240C6C4387
:105AA0000104090C6118360C89199C460C0C04334E
:105AB0009742E7D8654669600421019A8A448B447D
:105AC0005245B2D84346002B0EDD039B043B1D68B4
:105AD000002D09D1424603E0043B1968002902D198
