:020000040800F2
:10000000004000205D0B0008A10B0008A10B0008B8
:1000100000000000000000000000000000000000E0
:10002000000000000000000000000000A10B00081C
:100030000000000000000000A10B0008BD02000845
:10004000A10B0008A10B0008FD0A0008A10B000885
:10005000A10B0008A10B0008A10B0008310B000840
:10006000A10B0008A10B0008A10B0008A10B0008C0
:10007000A10B0008A10B0008A10B0008A10B0008B0
:10008000A10B0008A10B0008A10B0008A10B0008A0
:10009000A10B0008A10B0008A10B0008A10B000890
:1000A000A10B0008A10B0008A10B0008A10B000880
:1000B000A10B0008A10B0008A10B0008A10B000870
:1000C0005FF808F1B0B582B000AF021C3960FB1DCB
:1000D0001A70FB1D1B787F2B2FD92D4CFB1D1B7815
:1000E0001A1C0F231340083B9908294AFB1D1B7853
:1000F000181C0F230340083B9B0806339B00D318B2
:100100005B68FA1D1278101C03220240D200101CFA
:10011000FF228240D2431A403B689B01FF200340EC
:10012000F81D0078051C03202840C00083401A43B6
:100130008B1D9B00E3185A6026E0164CFB1D1B78B4
:100140005BB29B081349FA1D127852B29208C03272
:1001500092005258F91D0978081C03210140C9007A
:10016000081CFF218140C94311403A689201FF20D9
:100170000240F81D0078051C03202840C000824082
:100180000A43C0339B001A51BD4602B0B0BDC04601
:1001900000ED00E000E100E080B582B000AF7860E3
:1001A0007B680E4A934201D9012312E00C4B7A6816
:1001B0001202120A013A5A6001235B42181C032101
:1001C000FFF780FF064B00229A60054B07221A605A
:1001D0000023181CBD4602B080BDC046FFFFFF00D3
:1001E00010E000E090B585B000AF7860144B7A68FD
:1001F0001A60C046134B1C681348796802F064FE0D
:10020000031C201C191C02F05FFE031C181CFFF7C6
:10021000C3FF031EEED10C23FB18FF221A700C2320
:10022000FB1800225A700C23FB1801229A700C2331
:10023000FB18181C02F0F4FDBD4605B090BDC04689
:10024000C80800201000002040420F0080B500AF19
:10025000054B1B68002B04D0034B1B685A1E024B36
:100260001A60BD4680BDC046C408002080B500AFFE
:10027000084B1A68FA239800111C02F025FE031C93
:100280001A1C054B1A60C046034B1B68002BFBD1A0
:10029000BD4680BDC8080020C408002080B582B0DB
:1002A00000AF786001E0FFF7E1FF7B685A1E7A60DB
:1002B000002BF8D1BD4602B080BDC04680B500AF6E
:1002C000FFF7C4FF174B1B685A1C164B1A60164BDE
:1002D0001A68164B1B68D218144B1A60134B1A6815
:1002E000FA239B009A421BD9114B1B685A1C104BD6
:1002F0001A600E4B1B680F4A9A180C4B1A600C4B75
:100300001A68FA239B009A420AD90B4B1B685A1CA5
:10031000094B1A60064B1B68064A9A18044B1A6070
:10032000BD4680BD1C090020C8080020100900201F
:100330001809002018FCFFFF1409002080B582B0C6
:1003400000AF78600A4B0A4A126A01218A431A6296
:10035000074B074A126A04218A431A62044B044A73
:10036000116A7A680A431A62BD4602B080BDC0466F
:100370000010024080B588B000AF78600023FB61B8
:100380000023BB6100237B6100233B610023FB60F2
:100390008A4B5B680C221340FB61FB69042B0CD079
:1003A00002D8002B05D03AE0082B0AD00C2B32D013
:1003B00035E07B68824A1A6035E07B68804A1A60C3
:1003C00031E07E4B5A68F0239B031340BB617B4BAB
:1003D0005A68C0235B0213407B61BB699B0C0233EC
:1003E000BB617B69002B05D1BB69764A5A437B68A8
:1003F0001A6018E0714BDB6A0F22134001333B6136
:100400006F48396902F060FD031C1A1CBB695A432E
:100410007B681A6007E07B686B4A1A6003E07B68C0
:10042000674A1A60C046654B5B68F0221340FB6167
:10043000FB691B09FB61654AFB69D3181B78DBB2BA
:10044000FB607B681A68FB68DA407B685A605B4B2C
:100450005A68E023DB001340FB61FB691B0AFB6168
:100460005A4AFB69D3181B78DBB2FB607B685A6879
:10047000FB68DA407B689A60504B1A6B80235B0004
:10048000134003D17B68524ADA6010E04B4B5A6844
:100490008023DB01134005D17B689B685A087B6889
:1004A000DA6004E07B689B689A087B68DA60434BFB
:1004B0001B6B4022134003D17B68464A1A6103E05C
:1004C0007B68802212021A613C4B1B6B1022134086
:1004D00003D17B683A4A5A6103E07B681A687B68FB
:1004E0005A61364B1B6B0322134004D17B689A6818
:1004F0007B689A611EE0314B1B6B03221340012B7A
:1005000004D17B681A687B689A6113E02B4B1B6BE4
:1005100003221340022B04D17B68802212029A61CD
:1005200008E0264B1B6B03221340032B02D17B6890
:10053000234A9A61214B1A6BC0239B02134004D1BA
:100540007B689A687B68DA6127E01C4B1A6BC023D2
:100550009B021A4080235B029A4204D17B681A688E
:100560007B68DA6119E0154B1A6BC0239B021A40B5
:1005700080239B029A4204D17B6880221202DA61B6
:100580000BE00E4B1A6BC0239B021A40C0239B0248
:100590009A4202D17B680A4ADA61084B1B6B8022BF
:1005A000134003D17B68084A1A6203E07B681A682B
:1005B0007B681A62BD4608B080BDC046001002408C
:1005C00000127A0000093D00006CDC0200000020EF
:1005D000809FD5001280000080B582B000AF7860A7
:1005E000044B044A116A7A680A431A62BD4602B093
:1005F00080BDC0460010024080B582B000AF021C32
:10060000FB1D1A70FB1D1B78002B07D0084B084AF6
:10061000126A802109020A431A6205E0044B044A67
:10062000126A04490A401A62BD4602B080BDC04643
:1006300000100240FF7FFFFF80B582B000AF7860FE
:100640000A1CFB1C1A70FB1C1B78002B06D0084BE5
:10065000074A51697A680A435A6106E0044B044A22
:1006600052697968C9430A405A61BD4602B080BDEB
:100670000010024080B582B000AF78600A1CFB1CFD
:100680001A70FB1C1B78002B06D0084B074A916997
:100690007A680A439A6106E0044B044A92697968D1
:1006A000C9430A409A61BD4602B080BD00100240B5
:1006B00080B582B000AF78600A1CFB1C1A70FB1C6E
:1006C0001B78002B06D0084B074AD1697A680A4389
:1006D000DA6106E0044B044AD2697968C9430A40EA
:1006E000DA61BD4602B080BD0010024080B586B020
:1006F00000AF021CFB1D1A700023FB6000237B610E
:100700001323FB1800221A70FB1D1B785B09DBB258
:10071000FB60FB68002B03D1184B1B687B6110E06A
:10072000FB68012B03D1154B1B6A7B6109E0FB6859
:10073000022B03D1114B5B6A7B6102E00F4B5B6BB9
:100740007B61FB1D1B781F221340FB60FB687A69ED
:10075000DA40131C0122134004D01323FB1801229A
:100760001A7003E01323FB1800221A701323FB18DE
:100770001B78181CBD4606B080BDC0460010024064
:1007800080B500AF044B044A526A802149040A43F1
:100790005A62BD4680BDC0460010024080B588B098
:1007A00000AF8023DB02181C0121FFF745FF8023E7
:1007B000DB01181C0121FFF75DFF1823FB18C02285
:1007C0001A601823FB1802221A711823FB18002242
:1007D0009A711823FB1803225A711823FB1801225F
:1007E000DA711C4A1823FB18101C191C00F0DAFEE1
:1007F000184B181C0621002200F082FF154B181C14
:100800000721002200F07CFF3B1CE12252021A600B
:100810003B1C00225A603B1C00229A603B1C0022B9
:10082000DA603B1C00225A613B1C0C221A610A4A06
:100830003B1C101C191C01F06DFC074B181C0121FE
:1008400001F022FDFA239B00181CFFF727FDBD468F
:1008500008B080BD000400480038014090B587B062
:1008600000AF786000237B610C23FB1800221A6024
:100870000C23FB1800225A602DE001E000F088F8FC
:10088000274B181C202101F03BFD031EF6D07C698C
:10089000631C7B61224B181C01F024FD031C191CF6
:1008A0000C23FB18A200D1507B695A1E0C23FB18A5
:1008B0009200D3582F2B07D97B695A1E0C23FB18A3
:1008C0009200D358392B06D9164B181C02F08EFB18
:1008D0007B69013B7B617B69012BCED90C23FB1823
:1008E00059680C23FB181A68131C9B009B185B00AB
:1008F000CB180D4A944663447B617A697B689A42BF
:1009000007D90A4A7B68101C191C02F06FFBFF23F1
:1009100001E07B69DBB2181CBD4607B090BDC04644
:1009200000380140349B0008F0FDFFFF649B000885
:1009300080B582B000AF021CBB1D1A80034BBA1DEC
:1009400012881A60BD4602B080BDC046003000402B
:1009500080B582B000AF021CFB1D1A70034BFA1D5C
:1009600012785A60BD4602B080BDC04600300040DB
:1009700080B582B000AF021CBB1D1A80034BBA1DAC
:1009800012889A60BD4602B080BDC046003000406B
:1009900080B500AF024B034A1A60BD4680BDC04619
:1009A00000300040AAAA000080B500AF024B034A05
:1009B0001A60BD4680BDC04600300040CCCC00006F
:1009C00080B500AFFA239B00181CFFF70BFC00F06A
:1009D0009DF900F0BDF9FFF7E1FE404B181C02F055
:1009E00005FB031C9AB23E4B1A8000F0F9FA00F0A6
:1009F000D7F900F0D7F83B4B181C02F0F7FA031CAC
:100A00009AB2374B1A80384B181C802100F05CFEDC
:100A1000364B181C0021002200F076FAFA235B0006
:100A2000181CFFF73BFC314B0020191C002200F082
:100A30006BFAFA235B00181CFFF730FC2B4B0020ED
:100A400000211A1C00F060FAFA235B00181CFFF763
:100A500025FC2649254A254B081C111C1A1C00F0B0
:100A600053FAFA23DB00181CFFF718FC00200021C2
:100A7000002200F049FA1C4B181C802100F032FEC5
:100A800000F0E4F91A4B181CFFF752FF0320FFF7A0
:100A90005FFFFA235B00181CFFF76AFFFFF778FF80
:100AA000FFF782FF134B1B78DBB2002B05D000F061
:100AB0009DFC104B00221A7009E00F4B1B78DBB233
:100AC000002B04D000F04CFB0B4B00221A70C82006
:100AD000FFF7E4FBFFF75CFFE4E7C046989B0008E4
:100AE00020090020B09B000800080048FFFF00001C
:100AF00055550000CC080020CD08002080B500AF7F
:100B000080235B01181C01F0DDF9031E0CD080234B
:100B10005B01181C01F014FA80239B02181C02F0E0
:100B20000BF9024B01221A70BD4680BDCC08002093
:100B300080B500AF80239B01181C02F0DDF8031E76
:100B400007D080239B01181C02F0F6F8024B01220B
:100B50001A70BD4680BDC046CD080020002103E0CC
:100B60000A4B5B584350043109480A4B42189A42D9
:100B7000F6D3094A02E0002313600432074B9A427D
:100B8000F9D301F093FFFFF71BFF704750A2000855
:100B900000000020C4080020C4080020280900200C
:100BA000FEE7000080B58AB000AF80231B01181C4F
:100BB0000121FFF75FFD80239B02181C0121FFF735
:100BC0003BFD2023FB18E022D2001A602023FB18F3
:100BD00002221A712023FB1803225A712023FB18CA
:100BE00001229A712023FB180122DA719023DA0581
:100BF0002023FB18101C191C00F0D4FC9023DB05EB
:100C0000181C0821022200F07BFD9023DB05181C34
:100C10000921022200F074FD9023DB05181C0A2133
:100C2000022200F06DFD1423FB1800221A80142309
:100C3000FB18344A5A601423FB1800221A8114232B
:100C4000FB1800225A801423FB1800229A722E4AA5
:100C50001423FB18101C191C01F070FB3B1C7022A4
:100C60001A803B1C01225A803B1C04229A803B1CA8
:100C700000229A603B1C02229A813B1C0022DA81EE
:100C80003B1C802252001A823B1C00225A821E4AC0
:100C90003B1C101C191C01F00FFC1B4B181C0821DD
:100CA00001F082FE3B1C01225A803B1C00229A600C
:100CB000154A3B1C101C191C01F0D0FC124B181CCF
:100CC000082101F09BFE3B1C01225A803B1C0022A4
:100CD0009A600D4A3B1C101C191C01F091FD0A4B37
:100CE000181C082101F0B8FE074B181C012101F067
:100CF0009DFB054B181C012101F0B8FBBD460AB055
:100D000080BDC046FFFF0000002C014080B582B0CE
:100D100000AF80239B02181C0121FFF78DFC3B1CB8
:100D200020221A603B1C01221A713B1C00229A717E
:100D30003B1C03225A713B1C0022DA719023DA0516
:100D40003B1C101C191C00F02DFCBD4602B080BDE0
:100D500080B582B000AF80231B03181C0121FFF770
:100D60006BFC3B1C80221A603B1C01221A713B1C4D
:100D700000229A713B1C02225A713B1C0022DA713C
:100D8000064A3B1C101C191C00F00CFC034B181CE1
:100D9000802100F0A7FCBD4602B080BD00080048DD
:100DA00080B586B000AF80231B03181C0121FFF71C
:100DB00043FC01200121FFF75DFC1023FB180022FA
:100DC0001A711023FB1800229A711023FB1880223D
:100DD00092011A601023FB180122DA711023FB180C
:100DE00002225A71184A1023FB18101C191C00F01B
:100DF000D9FB02200D2101F0ABFF0823FB18802254
:100E000092011A600823FB1801229A710823FB182B
:100E100000221A710823FB1810225A710823FB18AC
:100E2000181C01F0F9FE3B1D07221A703B1D002221
:100E30005A703B1D01229A703B1D181C01F0F0FFF7
:100E4000BD4606B080BDC0460008004880B500AF72
:100E50005D20FFF74BFC031E0BD09023DA05FA232D
:100E60005B00101C2021022200F010F8FFF788FC24
:100E70000AE09023DB05181C20210522642300F0E2
:100E800005F86420FFF70AFABD4680BD90B587B02B
:100E900000AFF8600C1C101C191C0A23FB18221C44
:100EA0001A800923FB18021C1A70BB1D0A1C1A8029
:100EB00000237B6100237B611CE0FA680A23FB1896
:100EC0001B88101C191C00F0FFFBBB1D1B88181C85
:100ED000FFF7E4F9FA680A23FB181B88101C191C99
:100EE00000F000FCBB1D1B88181CFFF7D7F97B69BD
:100EF00001337B610923FB181A787B699A42DCDC99
:100F0000BD4607B090BDC04690B589B000AF041C87
:100F1000081C111CBB1D221C1A803B1D021C1A80C0
:100F2000BB1C0A1C1A800C23FB1870221A800C238D
:100F3000FB1801225A800C23FB1804229A80BB1D47
:100F40001A880C23FB189A600C23FB1802229A8142
:100F50000C23FB180022DA810C23FB18802252009C
:100F60001A820C23FB1800225A821C4A0C23FB18FD
:100F7000101C191C01F0A0FA184B181C082101F0D4
:100F800013FD0C23FB1801225A803B1D1A880C23E9
:100F9000FB189A60114A0C23FB18101C191C01F055
:100FA0005DFB0E4B181C082101F028FD0C23FB18DB
:100FB00001225A80BB1C1A880C23FB189A60074A2E
:100FC0000C23FB18101C191C01F01AFC034B181CF5
:100FD000082101F041FDBD4609B090BD002C014043
:100FE00080B586B000AF414B181C01F0FFFF002018
:100FF00000F0FEFE021E3E4B9A421DD000F086F825
:101000003C4B1A680C23FB185A603B4B1A680C23A4
:10101000FB189A600C23FB1800221A600C23FB18A3
:10102000181C00F0BDFB031E03D1344B181C01F04B
:10103000DDFF00F095F82FE05B20FFF757FB031E64
:1010400004D02F4B181C01F0D1FF08E05A20FFF705
:101050004DFB031E03D02B4B181C01F0C7FF2A4B7E
:10106000181C01F0C3FF80235B05181C0121FFF74A
:101070001FFB012001F0B4FE00F020FC80235B0088
:10108000181C00F007FF80239B02181C01F054FE7F
:1010900000F072F900F08CF980239B02181C01F01B
:1010A0004BFE3B1C802292021A603B1C00221A71EC
:1010B0003B1C08225A713B1C01229A713B1C181CD4
:1010C00001F0AAFD0823FB1802221A700823FB185E
:1010D00000225A700823FB1801229A700823FB187B
:1010E000181C01F09DFEBD4606B080BDC89B0008DF
:1010F0002F030000D0080020D40800200C9C00081A
:101100004C9C0008709C0008949C000880B500AFBF
:1011100080235B05181C0121FFF7CAFA012001F0AA
:101120005FFE0120FFF70AF9C0462120FFF7DEFA33
:10113000031EFAD080235B00181CFFF74DFA064B04
:10114000FF221A60054B7F221A600120FFF754FA34
:1011500000F0B4FBBD4680BDD4080020D0080020BC
:1011600080B588B000AFFF23FB61FF23BB61FF2385
:101170007B61734B181C01F039FF1023FB18002210
:10118000DA70704B181C01F031FF09E01720FFF7EF
:1011900065FB031CFB61FB69DAB21023FB181A70B4
:1011A000FB69FF2BF2D0684AFB69101C191C01F087
:1011B0001DFF664B181C01F019FF09E03B20FFF7EB
:1011C0004DFB031CBB61BB69DAB21023FB185A70DC
:1011D000BB69FF2BF2D05C4ABB69101C191C01F0E3
:1011E00005FF5B4B181C01F001FF09E03B20FFF7F6
:1011F00035FB031C7B617B69DAB21023FB189A7004
:101200007B69FF2BF2D0504A7B69101C191C01F03E
:10121000EDFE1023FB180020191C00F09BFB031EA1
:1012200004D14C4B181C01F0E1FE0AE04A4B181C9B
:1012300001F0DCFE00F0A0F8484B0020191C00F083
:10124000C1FDFF23FB61FF23BB61FF237B61802383
:101250005B00181C002100F05DFD414B181C01F0E3
:10126000C5FE3B1C0022DA703E4B181C01F0BEFE8E
:1012700008E01720FFF7F2FA031CFB61FB69DAB202
:101280003B1C1A70FB69FF2BF3D02F4AFB69101C23
:10129000191C01F0ABFE344B181C01F0A7FE08E04E
:1012A0003B20FFF7DBFA031CBB61BB69DAB23B1CD6
:1012B0005A70BB69FF2BF3D0234ABB69101C191C61
:1012C00001F094FE294B181C01F090FE08E03B2031
:1012D000FFF7C4FA031C7B617B69DAB23B1C9A708E
:1012E0007B69FF2BF3D0224A7B69101C191C01F08B
:1012F0007DFE3B1C00229A603B1C01221A733B1CA2
:10130000802212065A6080235A003B1C0020111CC8
:101310001A1C00F001FC174B181C01F067FE00F0CE
:1013200047F880235B01181C012100F077FD802322
:101330005B00181C012100F0EDFCBD4608B080BD2B
:10134000B89C0008009D0008189D0008249D000816
:101350003C9D0008549D00087C9D00082F03000060
:10136000A49D0008EC9D0008089E0008289E000827
:10137000489E0008509E000890B583B000AF3B1D0A
:101380000020191C00F078FB3B1D1B78191C3B1D2D
:101390005B781A1C3B1D9B781C1C044B181C231CDF
:1013A00001F024FEBD4603B090BDC046789E000803
:1013B00090B585B000AF80235A003B1C0020111C63
:1013C0001A1C00F03BFC3B1C1B78191C3B1C5B7877
:1013D0001A1C3B1C9B781C1C034B181C231C01F083
:1013E00005FEBD4605B090BDA89E000880B584B03E
:1013F00000AF0E23FB1800221A800E23FB180022D8
:101400001A8029E00A23FB180E22BA1812881A80C3
:101410000823FB180E22BA1812881A80BB1D0E2250
:10142000BA1812881A800A23FB1819880823FB1897
:101430001A88BB1D1B88081C111C1A1CFFF764FDB1
:101440001C20FEF72BFFFFF7A3FA0E23FB181A88C8
:101450000E23FB1801321A800E23FB181B884E4AFC
:101460009342CFD10C23FB1800221A804B4B181C3F
:10147000802100F029F90C23FB1800221A800DE0CE
:1014800096235B00181CFEF709FFFFF781FA0C2377
:10149000FB181A880C23FB1801321A800C23FB1846
:1014A0001B88632BECD93D4B181C802100F01AF9E6
:1014B0000C23FB1800221A800DE096235B00181CF9
:1014C000FEF7ECFEFFF764FA0C23FB181A880C23D6
:1014D000FB1801321A800C23FB181B88632BECD9F4
:1014E0002E4B181C802100F0EFF80C23FB18002273
:1014F0001A800DE096235B00181CFEF7CFFEFFF765
:1015000047FA0C23FB181A880C23FB1801321A80A7
:101510000C23FB181B88632BECD9204B181C802153
:1015200000F0E0F80C23FB1800221A800DE096234F
:101530005B00181CFEF7B2FEFFF72AFA0C23FB181B
:101540001A880C23FB1801321A800C23FB181B8805
:10155000632BECD9114B181C802100F0B5F80C233B
:10156000FB1800221A800DE096235B00181CFEF782
:1015700095FEFFF70DFA0C23FB181A880C23FB18B5
:1015800001321A800C23FB181B88054A9342EBD9C1
:10159000BD4604B080BDC046FFFF00000008004803
:1015A000E703000080B586B000AF786039600023A3
:1015B0007B6100233B610023FB6000237B617CE0B7
:1015C0007B6901229A40131C3B613B681B683A69A6
:1015D0001340FB60FA683B699A426BD13B681B7908
:1015E000012B03D03B681B79022B34D17B689B68AD
:1015F0007A695200111C03228A40D2431A407B6848
:101600009A607B689A683B685B79191C7B695B0010
:1016100099400B1C1A437B689A607B689B889BB23D
:101620007A6992B2111C01228A4092B2D24392B2DC
:1016300013409AB27B689A807B689B889AB23B6819
:101640009B79191C7B699BB299400B1C9BB213437D
:101650009AB27B689A807B681B687A695200111C79
:1016600003228A40D2431A407B681A607B681A685A
:101670003B681B79191C7B695B0099400B1C1A4362
:101680007B681A607B68DB687A6992B2520003213A
:1016900091400A1CD2431A407B68DA607B68DA68A2
:1016A0003B68DB79191C7B695B0099400B1C1A4372
:1016B0007B68DA607B6901337B617B690F2B00D823
:1016C0007EE7BD4606B080BD80B582B000AF7860D1
:1016D0000A1CBB1C1A80BB1C1A887B689A61BD4619
:1016E00002B080BD80B582B000AF78600A1CBB1C20
:1016F0001A807B68BA1C12881A85BD4602B080BD6C
:1017000080B584B000AF7860081C111CBB1C021CA3
:101710001A807B1C0A1C1A700023FB600023BB602C
:101720007B1C1B78BA1C128807210A409200934048
:10173000FB60BB1C1B88DB089BB2181CBB1C1B88F6
:10174000DB089BB21A1C7B6808329200D358BA1C83
:10175000128807210A409200111C0F228A40D243AE
:101760001A40111C7B68021C08329200D150BB1C2D
:101770001B88DB089BB21A1C7B6808329200D25887
:10178000FB681343BB60BB1C1B88DB089BB21A1CA5
:101790007B6808329200B968D150BD4604B080BD64
:1017A00080B584B000AF78600F23FB1800221A7058
:1017B0001B4BCA225A621A4B53225A6200F032F86B
:1017C000031E04D10F23FB1800221A701EE0144BD5
:1017D000134A926840218A439A60114A104B9968D3
:1017E0007B681B680B4393600D4A7B689B681361A1
:1017F0000B4A0B4B19697B685B681B040B43136135
:1018000000F050F80F23FB1801221A70044BFF223E
:101810005A620F23FB181B78181CBD4604B080BD0C
:101820000028004080B584B000AF00237B600F2308
:10183000FB1800221A700023BB60194BDB684022A2
:10184000134022D1164B01225242DA60144BDB685E
:1018500040221340BB607B6801337B607A68802341
:10186000DB019A4202D0BB68002BEFD00C4BDB6847
:101870004022134004D00F23FB1801221A7008E005
:101880000F23FB1800221A7003E00F23FB1801221C
:101890001A700F23FB181B78181CBD4604B080BDBE
:1018A0000028004080B500AF034B034AD268802176
:1018B0008A43DA60BD4680BD0028004080B584B010
:1018C00000AF00237B600F23FB1800221A70002357
:1018D000BB601F4B9B682022134004D00F23FB18D2
:1018E00001221A702CE01A4BCA225A62184B53225A
:1018F0005A62174B164AD268A0218A43DA60144B09
:10190000DB6820221340BB607B6801337B607A6810
:1019100080231B029A4202D0BB68002BEFD00C4BF5
:10192000DB682022134004D00F23FB1801221A7019
:1019300003E00F23FB1800221A70054BFF225A62A6
:101940000F23FB181B78181CBD4604B080BDC04691
:101950000028004090B585B000AF78603960002362
:10196000FB600B23FB1800221A707B68002B08D148
:101970003F4B9B684022134013D13B680022DA7032
:101980000FE03B4B9B684022134007D03B681B781D
:10199000181C00F019FB031CFB6002E03B680022EE
:1019A000DA707B68002B0FD03B681B781A043B6809
:1019B0005B781B0213433A6892781A433B68DB78E2
:1019C0001B041343FB601BE03B681B78181C00F0F2
:1019D000D3FA031C1C043B685B78181C00F0CCFA9B
:1019E000031C1B021C433B689B78181C00F0C4FAC4
:1019F000031C221C1A433B68DB781B041343FB6067
:101A00001B4BCA225A621A4B53225A62FFF70AFF33
:101A1000031E04D10B23FB1800221A701DE0144B87
:101A2000FA6814490A401A60FFF73CFF104B9B68A4
:101A3000202213400DD1FFF741FF031E04D10B23D9
:101A4000FB1800221A7008E00B23FB1801221A7001
:101A500003E00B23FB1801221A70054BFF225A6288
:101A60000B23FB181B78181CBD4605B090BDC04663
:101A7000002800407F7F7F0080B584B000AF786091
:101A800039600023FB60224B1B68224A1340FB6035
:101A9000FA68FC239B0313401B0CDAB23B681A70F4
:101AA000FA68FE23DB0113401B0ADAB23B685A7066
:101AB000FB68DBB27F221340DAB23B689A70FA68A7
:101AC0008023DB0313401B0CDAB23B68DA707B68BF
:101AD000002B1AD13B681B78181C00F075FA031C08
:101AE0001A1C3B681A703B685B78181C00F06CFA93
:101AF000031C1A1C3B685A703B689B78181C00F04A
:101B000063FA031C1A1C3B689A70BD4604B080BD82
:101B1000002800407F7F7F0090B587B000AFF8605D
:101B2000B9607A6000237B61FB68002B08D1424BCF
:101B30009B684022134026D17B680022DA7022E0A5
:101B40003D4B9B684022134007D07B681B78181CD4
:101B500000F03AFA031C7B6102E07B680022DA7035
:101B60007B689B68002B07D17B681B7B181C00F0EF
:101B70002BFA031C7B6106E07B681B7B181C00F0C2
:101B800023FA031C7B61FB68002B19D07B681B7850
:101B90001A047B685B781B0213437A6892781A43B5
:101BA0007B68DB781B041A437B681B7B1B061A438C
:101BB0007B689B681A437B685B6813437B612BE0FF
:101BC0007B681B78181C00F0D7F9031C1C047B6889
:101BD0005B78181C00F0D0F9031C1B021C437B68C7
:101BE0009B78181C00F0C8F9031C221C1A437B6860
:101BF000DB781B041A43141C7B681B7B181C00F049
:101C0000BBF9031C1B06221C1A437B689B681A4302
:101C10007B685B6813437B61074BCA225A62064BA1
:101C200053225A62044B7A69DA61034BFF225A62EB
:101C3000BD4607B090BDC0460028004080B586B0C4
:101C400000AFF860B9607A6000237B612F4BDB69DD
:101C50007B617A69FC239B0313401B0CDAB27B681F
:101C60001A707A69FE23DB0113401B0ADAB27B6823
:101C70005A707B69DBB27F221340DAB27B689A70BC
:101C80007A698023DB0313401B0CDAB27B68DA70BD
:101C90007A69FC239B0513401B0EDAB27B681A732A
:101CA0007A698023DB051A407B689A607B69184A51
:101CB0001A407B685A60FB68002B23D17B681B7835
:101CC000181C00F081F9031C1A1C7B681A707B68D1
:101CD0005B78181C00F078F9031C1A1C7B685A709A
:101CE0007B689B78181C00F06FF9031C1A1C7B683A
:101CF0009A707B681B7B181C00F066F9031C1A1C89
:101D00007B681A73BD4606B080BDC04600280040FF
:101D10008080808080B586B000AF78600A1CFB1C94
:101D20001A700023FB6000233B611723FB1800227D
:101D30001A70234BCA225A62214B53225A62FB1C4F
:101D40001B78002B0AD01E4B1D4A91687A680A4303
:101D50009A601723FB1801221A7026E0184B184AC4
:101D600092687968C9430A409A60154BDB687A68C3
:101D7000120A13403B61FB680133FB60FA68802361
:101D8000DB019A4202D03B69002BEED00C4BDB68A2
:101D90007A68120A134004D11723FB1800221A7024
:101DA00003E01723FB1801221A70054BFF225A6229
:101DB0001723FB181B78181CBD4606B080BDC04613
:101DC0000028004080B584B000AF786039600023FF
:101DD000FB60064BFB607B689A00FB68D318FB60D6
:101DE000FB683A681A60BD4604B080BD50280040C8
:101DF00080B584B000AF78600023FB60064BFB60C9
:101E00007B689A00FB68D318FB60FB681B68181C92
:101E1000BD4604B080BDC0465028004080B582B0A9
:101E200000AF78600A1CFB1C1A70194BCA225A6258
:101E3000174B53225A62FB1C1B78002B10D0144BFB
:101E4000134A91687A68042082430A439A60104BCF
:101E50000F4A116C7A68042002400A431A6411E0A8
:101E60000B4B0B4A9268796804208143C9430A40AE
:101E70009A60074B064A126C796804200140C943F6
:101E80000A401A64024BFF225A62BD4602B080BD6E
:101E90000028004080B582B000AF7860074B7A68B8
:101EA00007490A4080210A43D143044AD26880206E
:101EB00002400A43DA60BD4602B080BD00280040FF
:101EC0007FFF010080B586B000AF78601723FB1854
:101ED00000221A7000233B610023FB60174B1B6C30
:101EE000042213403B61154B9B687A681A407B685B
:101EF0009B0C191C7B68CB40DB0B39690B401343EF
:101F0000FB600E4BDB687A68120913403B61FB688B
:101F1000002B08D03B691B041B0C04D01723FB18B3
:101F200001221A7003E01723FB1800221A701723EE
:101F3000FB181B78181CBD4606B080BD0028004069
:101F400080B584B000AF78600023FB607B681B091C
:101F5000FB60084BFA681204120C80210A43D1433B
:101F6000044AD268802002400A43DA60BD4604B0C9
:101F700080BDC0460028004080B584B000AF021C80
:101F8000FB1D1A700F23FB1800221A700BE00F23A1
:101F9000FB181A780F23FB1801321A70FB1DFA1D6B
:101FA00012780A3A1A70FB1D1B78092BEFD80F2301
:101FB000FB181B781B01DAB2FB1D1B781343DBB245
:101FC000181CBD4604B080BD80B584B000AF021CB3
:101FD000FB1D1A700F23FB1800221A70FB1D1B78C3
:101FE0001B09DBB20F22BA18191C8900CB18DB18A9
:101FF0001370FB1D1B780F221340DAB20F23FB185E
:102000001B78D318DBB2181CBD4604B080BDC04697
:1020100080B584B000AF78600A4B1B68002B02D1FA
:10202000084B094A1A60074B1B68FB60054B1A688E
:102030007B68D218034B1A60FB68181CBD4604B0BD
:1020400080BDC046D80800202809002080B582B095
:1020500000AF786001235B42181CBD4602B080BD12
:1020600080B582B000AF786039603B688022920111
:102070005A600023181CBD4602B080BD80B582B0F6
:1020800000AF78600123181CBD4602B080BDC04679
:1020900080B584B000AFF860B9607A600023181C86
:1020A000BD4604B080BDC04680B584B000AFF860C6
:1020B000B9607A607B68181CBD4604B080BDC0461C
:1020C00080B586B000AFF860B9607A6000237B61AC
:1020D00014E07B69BA68D3181B789BB20C4A101CB9
:1020E000191C00F0EDF8C046094B181C402100F007
:1020F00007F9031EF8D07B6901337B617A697B683D
:102100009A42E6DB7B68181CBD4606B080BDC0461F
:102110000038014080B58EB000AF78603960002390
:102120007B6300233B630023FB627B681B68012207
:1021300093431A1C7B681A607B685B68FB62FB6ACE
:102140004B4A1340FB623B689B68FA6A1343FB628D
:102150007B68FA6A5A607B681B68FB62FB6A454AC7
:102160001340FB623B685A683B68DB681A433B6874
:102170001B691343FA6A1343FB627B68FA6A1A60AD
:102180007B689B68FB62FB6A3B4A1340FB623B68CF
:102190005B69FA6A1343FB627B68FA6A9A600823F8
:1021A000FB18181CFEF7E6F87B68344A934204D10A
:1021B0000823FB189B693B630CE07B68304A934221
:1021C00004D10823FB18DB693B6303E00823FB18F9
:1021D0009B683B637B681A6880231B02134014D002
:1021E0003B6B5A003B681B68101C191C00F06CFE0E
:1021F000031C7B633B6B5A003B681B68101C191C5B
:1022000000F0E8FE0B1CFB6210E03B681B68386BBB
:10221000191C00F059FE031C7B633B681B683A6B7A
:10222000101C191C00F0D6FE0B1CFB623B681B68DF
:102230005A08FB6A9A4202D87B6B01337B637B6846
:102240001A6880231B0213400AD07B6B0F221340B5
:102250005B08FB627B6B0B4A1A40FB6A13437B6390
:102260007B6B9AB27B689A81BD460EB080BDC0463A
:10227000FFCFFFFFF3E9FFFFFFFCFFFF0038014046
:1022800000440040F0FF000080B582B000AF7860ED
:102290000A1CFB1C1A70FB1C1B78002B06D07B68E9
:1022A0001B6801221A437B681A6006E07B681B6882
:1022B000012293431A1C7B681A60BD4602B080BDA0
:1022C00080B582B000AF78600A1CBB1C1A80BB1CB2
:1022D0001B88DB05DB0D9AB27B681A85BD4602B010
:1022E00080BDC04680B582B000AF78607B689B8CB3
:1022F0009BB2DB05DB0D9BB2181CBD4602B080BD56
:1023000080B584B000AF786039600F23FB180022DD
:102310001A707B68DB693A68134004D00F23FB18FE
:1023200001221A7003E00F23FB1800221A700F23FA
:10233000FB181B78181CBD4604B080BD80B584B066
:1023400000AF786039600E23FB1800221A800E233C
:10235000FB187A6812881A807B682D4A934208D04D
:102360007A688023DB059A4203D07B68294A93422E
:1023700010D10E23FB180E22BA18128870218A433E
:102380001A803B6859880E23FB180E22BA1812884F
:102390000A431A807B68204A934210D00E23FB1810
:1023A0000E22BA1812881D490A401A803B68198902
:1023B0000E23FB180E22BA1812880A431A807B6873
:1023C0000E22BA1812881A803B685A687B68DA6253
:1023D0003B681A887B681A857B680D4A93420BD04C
:1023E0007B680F4A934207D07B680E4A934203D022
:1023F0007B680D4A934204D13B689B7A9AB27B6812
:102400001A867B6801229A82BD4604B080BDC04610
:10241000002C01400004004000100040FFFCFFFFC2
:1024200000400140004401400048014080B582B0B6
:1024300000AF78600A1CFB1C1A70FB1C1B78002B79
:1024400008D07B681B889BB2012213439AB27B6839
:102450001A8007E07B681B889BB2012293439AB2E3
:102460007B681A80BD4602B080BDC04680B582B090
:1024700000AF78600A1CFB1C1A70FB1C1B78002B39
:102480000AD07B6844229B5A9BB20A4A134399B2F2
:102490007B684422995209E07B6844229B5A9BB294
:1024A0005B045B0C99B27B6844229952BD4602B032
:1024B00080BDC0460080FFFF80B584B000AF78606B
:1024C00039600A23FB1800221A800E23FB18002211
:1024D0001A800C23FB1800221A807B681B8C9BB28D
:1024E000012293439AB27B681A840E23FB187A6800
:1024F000128C1A800C23FB187A6892881A800A239F
:10250000FB187A68128B1A800A23FB180A22BA1861
:10251000128870218A431A800A23FB180A22BA18EB
:10252000128803218A431A803B6819880A23FB1802
:102530000A22BA1812880A431A800E23FB180E22A8
:10254000BA18128802218A431A803B6899890E239F
:10255000FB180E22BA1812880A431A803B68598861
:102560000E23FB180E22BA1812880A431A807B68C1
:10257000344A93420BD07B68334A934207D07B683E
:10258000324A934203D07B68314A934243D10E23AF
:10259000FB180E22BA18128808218A431A803B6859
:1025A000D9890E23FB180E22BA1812880A431A8002
:1025B0000E23FB180E22BA18128804218A431A80AF
:1025C0003B6899880E23FB180E22BA1812880A431A
:1025D0001A800C23FB180C22BA1812881D490A40D5
:1025E0001A800C23FB180C22BA1812881A490A40C8
:1025F0001A803B68198A0C23FB180C22BA1812881F
:102600000A431A803B68598A0C23FB180C22BA181B
:1026100012880A431A807B680C22BA1812889A80A2
:102620007B680A22BA1812881A833B689A687B680A
:102630005A637B680E22BA1812881A84BD4604B009
:1026400080BDC046002C01400040014000440140D4
:1026500000480140FFFEFFFFFFFDFFFF80B584B093
:1026600000AF786039600A23FB1800221A800E231D
:10267000FB1800221A800C23FB1800221A807B68AA
:102680001B8C9BB2102293439AB27B681A840E2350
:10269000FB187A68128C1A800C23FB187A689288CF
:1026A0001A800A23FB187A68128B1A800A23FB18F7
:1026B0000A22BA1812884D490A401A800A23FB18C8
:1026C0000A22BA1812884A490A401A803B681B88B5
:1026D0001B0299B20A23FB180A22BA1812880A436D
:1026E0001A800E23FB180E22BA18128820218A4362
:1026F0001A803B689B891B0199B20E23FB180E229E
:10270000BA1812880A431A803B685B881B0199B289
:102710000E23FB180E22BA1812880A431A807B680F
:10272000344A93424BD10E23FB180E22BA1812885A
:1027300080218A431A803B68DB891B0199B20E23F2
:10274000FB180E22BA1812880A431A800E23FB18AF
:102750000E22BA18128840218A431A803B689B884F
:102760001B0199B20E23FB180E22BA1812880A43D5
:102770001A800C23FB180C22BA1812881E490A4032
:102780001A800C23FB180C22BA1812881B490A4025
:102790001A803B681B8A9B0099B20C23FB180C2201
:1027A000BA1812880A431A803B685B8A9B0099B268
:1027B0000C23FB180C22BA1812880A431A807B6873
:1027C0000C22BA1812889A807B680A22BA181288DA
:1027D0001A833B689A687B689A637B680E22BA18F2
:1027E00012881A84BD4604B080BDC046FF8FFFFF2B
:1027F000FFFCFFFF002C0140FFFBFFFFFFF7FFFF87
:1028000080B584B000AF786039600A23FB180022DD
:102810001A800E23FB1800221A800C23FB180022BA
:102820001A807B681B8C9BB2584A13409AB27B6813
:102830001A840E23FB187A68128C1A800C23FB185A
:102840007A6892881A800A23FB187A68928B1A8019
:102850000A23FB180A22BA18128870218A431A80A8
:102860000A23FB180A22BA18128803218A431A8005
:102870003B6819880A23FB180A22BA1812880A43EF
:102880001A800E23FB180E22BA18128840490A40FB
:102890001A803B689B891B0299B20E23FB180E22FB
:1028A000BA1812880A431A803B685B881B0299B2E7
:1028B0000E23FB180E22BA1812880A431A807B686E
:1028C000344A93424BD10E23FB180E22BA181288B9
:1028D00031490A401A803B68DB891B0299B20E23FA
:1028E000FB180E22BA1812880A431A800E23FB180E
:1028F0000E22BA18128829490A401A803B689B8820
:102900001B0299B20E23FB180E22BA1812880A4332
:102910001A800C23FB180C22BA18128820490A408E
:102920001A800C23FB180C22BA1812881D490A4081
:102930001A803B681B8A1B0199B20C23FB180C22DE
:10294000BA1812880A431A803B685B8A1B0199B245
:102950000C23FB180C22BA1812880A431A807B68D1
:102960000C22BA1812889A807B680A22BA18128838
:102970009A833B689A687B68DA637B680E22BA1890
:1029800012881A84BD4604B080BDC046FFFEFFFF1A
:10299000FFFDFFFF002C0140FFF7FFFFFFFBFFFFE4
:1029A000FFEFFFFFFFDFFFFF80B584B000AF78606F
:1029B0000A1CBB1C1A800E23FB1800221A800E234F
:1029C000FB187A68128B1A800E23FB180E22BA1895
:1029D000128808218A431A800E23FB180E22B91888
:1029E000BA1C098812880A431A807B680E22BA181A
:1029F00012881A83BD4604B080BDC04680B584B03D
:102A000000AF78600A1CBB1C1A800E23FB18002242
:102A10001A800E23FB187A68128B1A800E23FB187B
:102A20000E22BA1812880B490A401A80BB1C1B8858
:102A30001B0299B20E23FB180E22BA1812880A4301
:102A40001A807B680E22BA1812881A83BD4604B019
:102A500080BDC046FFF7FFFF80B584B000AF78604F
:102A60000A1CBB1C1A800E23FB1800221A800E239E
:102A7000FB187A68928B1A800E23FB180E22BA1864
:102A8000128808218A431A800E23FB180E22B918D7
:102A9000BA1C098812880A431A807B680E22BA1869
:102AA00012889A83BD4604B080BDC04680B500AF91
:102AB0001B4B1B4A126801210A431A60184B184A23
:102AC000526818490A405A60154B154A126816494F
:102AD0000A401A60124B124A126814490A401A60DE
:102AE0000F4B0F4A526812490A405A600C4B0C4A6D
:102AF000D26A0F218A43DA62094B094A126B0D49E7
:102B00000A401A63064B064A526B01218A435A63F4
:102B1000034B00229A6000F00FF8BD4680BDC0460E
:102B2000001002400CB8FFF8FFFFF6FEFFFFFBFFAE
:102B3000FFFFC0FFACFEFFFF80B582B000AF0023F7
:102B40007B6000233B60314B304A12688021490290
:102B50000A431A602D4B1A6880239B0213403B6086
:102B60007B6801337B603B68002B04D17A68A0232B
:102B7000DB009A42EED1254B1A6880239B0213405A
:102B800002D001233B6001E000233B603B68012B46
:102B900038D11F4B11221A601C4B1C4A52685A60D4
:102BA0001A4B1A4A52685A60184B184A5268194907
:102BB0000A405A60154B154A5268882149030A4356
:102BC0005A60124B114A1268802149040A431A6064
:102BD000C0460E4B1A6880239B041340F9D00B4B60
:102BE0000A4A526803218A435A60084B074A5268CE
:102BF00002210A435A60C046044B5B680C22134012
:102C0000082BF9D1BD4602B080BDC046001002407D
:102C100000200240FF7FC0FF80B584B000AF786025
:102C20000023FB60334BFB607B689B79002B4FD00C
:102C3000304A304B19687B681B68DB430B401360DC
:102C40002C4A2C4B59687B681B68DB430B40536054
:102C50007B681B791A1CFB689B18FB60FB68FA6891
:102C600011687A6812680A431A60224A214B9968EF
:102C70007B681B68DB430B4093601E4A1D4BD96881
:102C80007B681B68DB430B40D3607B685B79102B50
:102C90000ED1184A174B99687B681B680B439360E9
:102CA000144A144BD9687B681B680B43D3601DE042
:102CB000104BFB607B685B791A1CFB689B18FB6000
:102CC000FB68FA6811687A6812680A431A600DE0B6
:102CD0007B681B791A1CFB689B18FB60FB68FA6811
:102CE00011687A681268D2430A401A60BD4604B07F
:102CF00080BDC0460004014080B584B000AF78605C
:102D00000F23FB1800221A700A4B5B697A68134084
:102D100004D00F23FB1801221A7003E00F23FB18C5
:102D200000221A700F23FB181B78181CBD4604B034
:102D300080BDC0460004014080B582B000AF78601D
:102D4000024B7A685A61BD4602B080BD0004014062
:102D5000B0B584B000AF021CFB1D1A70BB1D0A1C6D
:102D60001A700023FB60BB1D1B78032213409B00DD
:102D70000F229A40131CFB601849BB1D1B789B084F
:102D8000DBB2181C154ABB1D1B789B08DBB2023353
:102D90009B009B58FA68D2431A40831C9B005A50F0
:102DA0000E48BB1D1B789B08DBB21D1C0B4ABB1DCC
:102DB0001B789B08DBB202339B009A58FB1D1978E5
:102DC000BB1D1B78032423409B0099400B1C1A4316
:102DD000AB1C9B001A50BD4604B0B0BD00000140C2
:102DE00080B582B000AF021CFB1D1A70FB1D1B7862
:102DF000002B07D0084B084A1268802149000A437B
:102E00001A6005E0044B044A126804490A401A603B
:102E1000BD4602B080BDC04600700040FFFEFFFF0F
:102E200080B584B000AF78600023FB607B689B783E
:102E3000002B39D0234A7B681B789B08DBB2C03358
:102E40009B009B58FB607B681B781A1C0323134074
:102E5000DB00FF229A40131CDA43FB681340FB603F
:102E60007B685B789B01FF221A407B681B78191CEA
:102E700003230B40DB009A40131CFA681343FB60EA
:102E800010497B681B789B08DBB2C0339B00FA6853
:102E90005A500C4B7A681278111C1F220A400121EB
:102EA00091400A1C1A600AE006497B681B781A1CCC
:102EB0001F23134001229A40131C80228B50BD46D1
:102EC00004B080BD00E100E0002243088B4274D3CF
:102ED00003098B425FD3030A8B4244D3030B8B421B
:102EE00028D3030C8B420DD3FF22090212BA030C24
:102EF0008B4202D31212090265D0030B8B4219D305
:102F000000E0090AC30B8B4201D3CB03C01A524124
:102F1000830B8B4201D38B03C01A5241430B8B426C
:102F200001D34B03C01A5241030B8B4201D30B0355
:102F3000C01A5241C30A8B4201D3CB02C01A52417C
:102F4000830A8B4201D38B02C01A5241430A8B423F
:102F500001D34B02C01A5241030A8B4201D30B0228
:102F6000C01A5241CDD2C3098B4201D3CB01C01A42
:102F7000524183098B4201D38B01C01A524143094C
:102F80008B4201D34B01C01A524103098B4201D33A
:102F90000B01C01A5241C3088B4201D3CB00C01AA7
:102FA000524183088B4201D38B00C01A524143081F
:102FB0008B4201D34B00C01A5241411A00D2014644
:102FC000524110467047FFE701B5002000F00CF8B1
:102FD00002BDC0460029F7D003B5FFF775FF0EBC50
:102FE0004243891A1847C0467047C0460FB400B51F
:102FF000064983B004AB086804CB8168019300F0F4
:1030000007F803B008BC04B01847C04650040020BD
:10301000F0B544464D465F465646F0B4C3B08146CF
:10302000884609921C1C0D9302F020FE0368181CB0
:10303000199303F0C1FD4B461A90002B03D09B6BF4
:10304000002B00D1A6E0434680219A89890193B2E2
:103050000B4209D10A43434641469A81496EBD4B12
:103060000B4041464B6693B21A075AD54246126945
:10307000002A56D01A2213400A2B5ED032AB259379
:103080000023CA46C34625AEB360736016931793F8
:10309000189332AF10931B930B93099C2378002B4A
:1030A00000D17BE0252B02D178E0252B03D0013421
:1030B0002378002BF9D1099BE51A10D0099B7D607C
:1030C0003B60B368EB18B360736801337360072B20
:1030D00048DC08370B9B9C46AC4463460B93237833
:1030E000002B01D100F0EFFF01200023082516A9D5
:1030F0004042CB77804600210020AC467835621CE8
:103100006378A94640240A90079008912030511C0A
:103110001A1C203A582A00D904E38F4D9200AA586D
:1031200097464846414601F00BFA002811D1434624
:103130001A229B8913400A2BA0D143460E229B5E84
:10314000002B9BDB48464146099A231C01F0BEF93F
:1031500001E00120404243B03CBC90469946A24663
:10316000AB46F0BD50465946321C03F097FD00288F
:1031700009D132AFAEE750465946321C03F08EFDFE
:10318000002800D1A5E3D84643469B895B06E0D4DE
:103190000B98E0E7484602F003FC54E7099C9EE7E1
:1031A0000A1C0423079D1D4307950B78AFE70B7896
:1031B0004A1C2A2B01D101F060F91D1C303D111C65
:1031C0000022092D12D8131C2A1C9D00EB185B004D
:1031D0000131D3184A1E15782A1C303A092AF4D92D
:1031E0001A1C2B1C002A01DA00F09EFF90468FE784
:1031F0004A46079B134307930B780A1C87E7002274
:103200001D1C131C303D9A000131D3184A1E127840
:103210005B005B19151C303D092DF4D90A93131C72
:1032200076E709910899149316ABD9771023079A7A
:103230001A430792079B9B0600D48CE107230D9A43
:1032400007329A4301339C46944463460D93536876
:1032500012680F930E92002B01DA00F00AFE0E980E
:103260000F9916ABDD7F4346021C139301230A43DB
:103270004146002903DB8021079888430790002AF4
:1032800000D078E34246002A01D100F06CFC012B0B
:1032900000D1A1E332AA022B01D100F099FC0E98D3
:1032A0000F9907239C464346A946B84608934F0703
:1032B000C5086346CC082F43211C3C1C0340013A3F
:1032C00030331370381C0C43F1D10E900F911192D2
:1032D0000899079A47464D468846D20701D400F020
:1032E000DFFC302B01D100F0DBFC119B32A9013B4C
:1032F0001A1C1193302313708B1A0C930C9A131E03
:10330000434500DA4346089300231593002D02D06D
:10331000089B013308930223079A1A40914602D072
:10332000089B023308938423079A1A40129200D014
:103330000AE20A9B089A9C1A002C00DC04E2B2689C
:103340007368064D102C28DD10218846391C57461D
:103350000AE0C046FFDFFFFFDC9E000894A00008E3
:10336000103C0831102C16DD4046103201330D6040
:103370004860B2607360072BF2DD381C5946321C7E
:1033800003F08CFC002800D0FDE6103CB2687368A6
:1033900032A9102CE8DCBA460F1C7C600133A4185B
:1033A0003D60B4607360072B01DD00F07FFC16AB5D
:1033B0000837DD7FC9E1072209910899149316ABFC
:1033C000D9770D9B454607339343013294469C447D
:1033D00062460D921A6817925B68179818931899AD
:1033E00003F05EFB012801D000F058FD17981899F2
:1033F0000022002304F00AFB002801D000F070FF37
:1034000016ABDD7F149B472B01DC00F089FECB4B14
:1034100011938023079A9A43079200F06DFE62464B
:10342000079B134307930B780A1C70E61493102331
:10343000079A09911A430792079B9B0600D45FE104
:1034400007220D9B07339343013294469C44624606
:103450005C681B68181C211C0D92021C00230E9036
:103460000F912243002116A8C177414600251391F0
:10347000FEE614931023079A09911A430792079BBB
:103480009B0600D424E107220D9B073393430132AE
:1034900094469C4462465C681B68181C0D92211C73
:1034A000021C0E900F9101232243DBE7099108993A
:1034B000149316ABD977A24B1093079B9B0600D4AD
:1034C000D6E007220D9B07339343013294469C4478
:1034D00062465C681B680E930F94079B0D92DB0796
:1034E00000D4D8E00E9B0F9C1A1C02232243B9D0B3
:1034F00030201EA9087050246846001900784870D2
:10350000079919430791ADE709910D990B1C0433F5
:103510000D9300230A680F930E92079A02331A4301
:10352000079230221EAB1A7048325A70854B1492A3
:1035300010930E9A022395E7079B0A1C03430793F7
:103540000B78E4E509910899149316ABD977079B9A
:103550009B0600D572E6079BDB0601D400F027FD31
:103560000D9A136808930E930432DB170F930D9294
:1035700071E6079B0A1C234307930B78C7E50B787A
:103580006C2B01D100F0E9FD1025079A2A43079220
:103590000A1CBCE50991089916ABD977079B9B06D5
:1035A00001D400F011FD0D990B9A0B681A60D21727
:1035B0005A600B1C04330D936FE509910D99149318
:1035C0000B68043128AA0D911370002316A9CB773C
:1035D000013308930C930023002513931593119244
:1035E00099E6089B002B01D000F007FD0B780A1C20
:1035F000202108918BE50123079A1A4307920B7843
:103600000A1C84E514930D9B09911C1D1B6816A9C7
:103610001A1C11930023CB77002A01D100F032FE4F
:1036200043461198002B01DA00F0C4FD0021424608
:1036300002F03CFE002801D100F0ADFE119BC31A40
:103640001A1C0C93DB43DB171A40002316A9CD7F0D
:1036500008920D941393159358E6099108991493C1
:1036600016ABD977374B1093079B9B0600D528E7FD
:10367000079BDB0604D4079B5B0601D500F048FDE1
:103680000D9B1A680E92002204330D93079B0F9234
:10369000DB0700D526E70E980F99021C02230A4388
:1036A000E0E60D9B1D1D1B680A93002B01DA00F05C
:1036B0004DFD0B780D950A1C29E50B780A1C2B2172
:1036C000089124E51493079B09919B0600D5DAE63F
:1036D000079BDB0604D4079B5B0601D500F01CFDAD
:1036E0000D9B1A680E92002204330F920D930E9ACE
:1036F0000123B7E61493079B09919B0600D59FE62B
:10370000079BDB0604D4079B5B0601D500F0FCFC9D
:103710000D9B1A680E92002204330F920D930E9A9D
:1037200000239FE60991089916AA1493D177002BDC
:1037300001D100F0C8FC28AA46E7C04654A0000802
:1037400060A0000874A00008B468002D0FD016AA6D
:103750001F23944663443B6001237B6073680134FC
:103760000133B4607360072B00DD13E208374B466A
:10377000002B0CD01EAB3B6002237B6073680234CD
:103780000133B4607360072B00DD0FE20837129B32
:10379000802B00D189E1139B0C9A9D1A002D31DDFD
:1037A000CA4A73689046102D21DD10229146221CD2
:1037B000444603E0103D0837102D16DD494610320F
:1037C00001333C607960B2607360072BF2DD5046D4
:1037D0005946321C03F062FA002800D0D3E4103DB1
:1037E000B268736832AF102DE8DCA046141C424664
:1037F000641901333A607D60B4607360072B00DDAB
:10380000BCE10837079BDB0500D5F3E0119B3B606B
:103810000C9B9C467B60736864440133B4607360A6
:10382000072B00DD9BE00837079B5B0744D50A9B0D
:10383000089A9B1A9846002B3EDD102B01DC00F005
:1038400034FD1022A24D91467368221C4446A846BE
:10385000554603E0103C0837102C17DD9C49103208
:103860003960494601337960B2607360072BF1DD3E
:10387000281C5946321C03F011FA002800D082E4BB
:10388000103CB268736832AF102CE7DCAA4645469C
:10389000A046141C4246444401333D607A60B46043
:1038A0007360072B08DD50465946321C03F0F6F9C9
:1038B000002800D067E4B468089B0A9A934200DAB3
:1038C000131C0B9A94469C4463460B93002C00D027
:1038D00051E4002332AF7360FFF7DFFB169B012B2F
:1038E00000DC23E1119B01343B6001237B607368A2
:1038F000B4605D1C7560072D00DD86E20837199BFA
:1039000001353B601A9B75609C4664447B60B460E3
:10391000072D00DD86E2083717981899002200234A
:1039200004F06EF8002800D0CEE1169B119A013BFE
:103930000132E41801353A607B60B4607560072D90
:1039400000DD03E1083721AB3B601B9B01359C4642
:1039500064447B60B4607560072D00DC63E750460B
:103960005946321C03F09AF9002801D0FFF70BFCEE
:10397000B46832AF58E7012B00D08BE40F9B002BCB
:1039800002D10E9B092B27D9434632AC0893B84687
:10399000A946271C0E9C0F9D201C291C0A220023CF
:1039A00004F05CF8013F30323A70201C291C0023DF
:1039B0000A2204F053F8031C041C0D1C0B43EBD12A
:1039C0000E940F953C1C089B4746984632AB1B1B38
:1039D0004D4611940C9391E427220E9B28A9303375
:1039E0008B54483216AB9C4632AB62449B1A0C9304
:1039F000119283E4149B652B00DC6FE717981899EC
:103A00000022002303F0FCFF002800D1FEE0314B30
:103A100001343B6001237B607368B46001337360E1
:103A2000072B00DDFBE208371F9B169A934203DB4E
:103A3000079BDB0700D4F7E6199B3B601A9B9C466B
:103A40007B60736864440133B4607360072B00DDEE
:103A50008AE30837169B5D1E002D00DCE4E61B4A56
:103A600073689046102D00DC5CE110229146221C08
:103A7000444604E00837103D102D00DC50E1494673
:103A8000103201333C607960B2607360072BF1DD66
:103A900050465946321C03F001F9002801D0FFF7C7
:103AA00072FBB268736832AFE5E70A9B089A9D1A09
:103AB000002D00DC6FE6054A73689046102D29DD65
:103AC00010229146221C44460AE0C04640A000084D
:103AD00094A0000890A00008103D0837102D17DDB5
:103AE0004946103201333C607960B2607360072B45
:103AF000F2DD50465946321C03F0D0F8002801D0C0
:103B0000FFF741FB103DB268736832AF102DE7DC60
:103B1000A046141C4246641901333A607D60B460CB
:103B20007360072B00DD98E1083734E60123079A1C
:103B3000134200D0D6E67B607368119A01345D1C95
:103B40003A60B4607560072D00DCFBE650465946CC
:103B5000321C03F0A3F8002801D0FFF714FBB4686F
:103B6000756832AFEFE6002B2CD1079BDB0729D518
:103B70003021272328AAD1546F2233E750465946D3
:103B8000321C03F08BF8002801D0FFF7FCFAB46870
:103B900032AF37E650465946321C03F07FF8002812
:103BA00001D0FFF7F0FAB46832AFE0E5504659466D
:103BB000321C03F073F8002801D0FFF7E4FAB46870
:103BC00032AFE4E500230C9332AB1193FFF796FB81
:103BD0000F20BC46A9460E9C0F9D031C1099234044
:103BE000CB5C2F072109013A0F4313702B091D1CD1
:103BF0003B1C3C1C2B43F0D132AB9B1A0E940F950F
:103C000067464D4611920C93FFF778FB1F9D002DE0
:103C100000DC10E2119B169A191C9446159B614416
:103C20000C91151E9D4200DD1D1C002D0BDD119B0E
:103C300064193B6073687D600133B4607360072B67
:103C400000DDECE20837EB43DB171D40159B5D1BE5
:103C5000002D7DDDDB4A73689046102D00DCD2E13B
:103C600010229146221C444604E00837103D102DD6
:103C700000DCC6E14946103201333C607960B26035
:103C80007360072BF1DD50465946321C03F006F8ED
:103C9000002801D0FFF777FAB268736832AFE5E722
:103CA000119A32AB9B1A0C93FFF728FB50465946EA
:103CB000321C02F0F3FF002801D0FFF764FA16ABC4
:103CC000DD7FB46832AF40E5169B013B9946002B7F
:103CD00000DC38E6102B00DCB1E0BA4B984608E077
:103CE000083710235B429C46E1444B46102B00DC16
:103CF000A7E043463B601023103401357B60B4607D
:103D00007560072DECDD50465946321C02F0C6FFA7
:103D1000002801D0FFF737FAB468756832AFE0E7E2
:103D2000A046141C4246641901333A607D60B460B9
:103D30007360072B00DC76E511E650465946321CCD
:103D400002F0ACFF002801D0FFF71DFAB46832AFD3
:103D5000159A119B944663449846169A1F9B93426A
:103D600044DB079AD20741D441460C9A521A16995D
:103D7000CB1A1D1E954200DD151C002D0BDD4246A1
:103D80003A607268641901327D60B4607260072A1B
:103D900000DD68E20837EA43D21715405D1B002DAD
:103DA00000DC41E5874A73689046102DBADD102289
:103DB0009146221C444603E00837103D102DAFDD2C
:103DC0004946103201333C607960B2607360072B62
:103DD000F2DD50465946321C02F060FF002801D047
:103DE000FFF7D1F9B268736832AFE6E7199A3A6023
:103DF0001A9A94467A60726864440132B4607260C0
:103E0000072A00DD22E20837AEE750465946321C49
:103E100002F044FF002801D0FFF7B5F9B4687568D7
:103E200032AF6CE550465946321C02F037FF00288D
:103E300001D0FFF7A8F9B468756832AF6CE5614B43
:103E4000984643463B604B464C4401357B60B4602A
:103E50007560072D00DC75E578E650465946321C42
:103E600002F01CFF002801D0FFF78DF9B46832AFD3
:103E700091E40E990F9A00244B429441191C2D2372
:103E800016A8221CC377081C43460E910F92021CF1
:103E900013932D2501232243FFF7EAF91798189968
:103EA00002F0FEFD002800D11AE14346013300D1A3
:103EB000B7E22023149A9A430C92472A00D175E264
:103EC0008023079A5B001A43189B1292002B00DA9A
:103ED0008EE2179A9846002391461393149C662C01
:103EE00000D16EE1462C00D16BE10C9B5046453B66
:103EF000594259416B181A1C0893022300931FABB7
:103F0000029320AB039323AB019204934A464346AA
:103F100000F02AFC1190672C02D0472C00D060E101
:103F2000119A089B944663441C1C079BDB0700D432
:103F30008AE2002348464146002203F061FD231C2B
:103F4000002809D1239B9C4206D930215A1C239278
:103F50001970239B9C42F9D8119A9B1A16930C9BBB
:103F6000472B00D1A5E1149B652B00DCA4E2149B38
:103F7000662B00D15BE21F9B1593169B159A93420B
:103F800000DD40E2079BDB0700D56AE2D343DB1785
:103F900013400C92139A002A00D096E10893129BCA
:103FA00016AA07930023D57F1393FFF7AFF9079B5A
:103FB0000D9A5B0601D4FFF7D4FA0021535EFFF798
:103FC000D2FAC04640A00008079BDB060CD4079B32
:103FD0005B0609D569460D9B898D1A6804330792E3
:103FE00011800D93FFF759F80D9A0B99136819601A
:103FF000131C04330D93FFF750F80B780A1CFFF7DE
:1040000086F8A046141C4246641901333A607D606C
:10401000B4607360072B00DD8FE6083798E65046E2
:104020005946321C02F03AFE002801D0FFF7ABF8E7
:10403000B46832AFF8E4E04B01343B6001237B60AD
:104040007368B46001337360072B72DC0837002D8E
:1040500007D1169B002B04D1079BDB0701D4FFF788
:10406000E3FB199B3B601A9BE2187B607368B260AC
:1040700001337360072B00DDACE108376D42002D82
:1040800000DC89E0CD4910248846102D05DCD2E003
:104090000837103D102D00DCCDE0414610320133D1
:1040A00039607C60B2607360072BF1DD5046594681
:1040B000321C02F0F3FD002801D0FFF764F8B2686B
:1040C000736832AFE5E7B368D846002B01D1FFF73C
:1040D0005BF850465946321C02F0E0FDFFF754F8F9
:1040E000149B472B00DDEDE0B54B11938023079A1D
:1040F0009A4316ABDD7F0792032308930C930023AA
:1041000013931593FFF702F90D9B1A88FFF702FB33
:104110000D9B1A88FFF7B6FA0D9B1A88FFF7E2FA93
:10412000A84B1193FFF775F9012252429046FEF712
:10413000EFFF50465946321C02F0B0FD002801D076
:10414000FFF721F81F9DB46832AF80E70A9B0A1C75
:104150005B420A930D95FFF724F8079B4A1C034323
:1041600007934B78FEF7D3FF50465946321C02F0B6
:1041700095FD002801D0FFF706F8B46832AF69E476
:1041800050465946321C02F089FD002801D0FEF746
:10419000FAFFB268736832AF11990133396016992A
:1041A000736054187960B460072B01DCFFF73BFBA8
:1041B000FFF7D5FB02F000FD021C0C90031CFFF77B
:1041C00041FA032300931FAB029320AB039323AB6D
:1041D0000493019550464A46434600F0C5FA0895B7
:1041E0001190089A119B944663441C1C0C9B462B0F
:1041F00000D09EE6119B1B78302B02D01F9BE41849
:1042000097E6484641460022002303F0F9FB0028C8
:10421000F4D10123089A9B1A1F93E41889E65046AB
:104220005946321C02F03AFD002801D0FEF7ABFFE0
:10423000B46832AF07E541465219013339607D60F9
:10424000B2607360072B9BDC0837A5E750465946E0
:10425000321C02F023FD002801D0FEF794FF1F9BC3
:10426000B46832AF80E550465946321C02F016FD64
:10427000002801D0FEF787FF169B1F9AB4689B1A8F
:1042800032AF88E54046062800D90620C343021C09
:10429000DB171A400023139315934B4B0C90089295
:1042A0000D9400251193FFF736F87368474DFFF71B
:1042B000F1FA1F9CE31C19DBA54217DB6723159459
:1042C00014935AE6424B119310E70893129B2D2248
:1042D0000793002316A9CA772D251393FFF718F823
:1042E0002D2316AAD3772D25FFF78CF8149B023BBC
:1042F00014936A4650215218127821AB013C1F9446
:1043000098461A70002C00DACAE02B2342465370FC
:10431000092C00DC9AE016AA3B2394466344994694
:104320001D1C201C0A2103F051FB013D3031297076
:10433000201C0A2103F064FA041E092CF1DC30343D
:104340006A1EE4B214704A4500D3B0E0711B4346C4
:10435000414400E014789C70013301328B42F9D162
:1043600016AA94462E2363449C46751B6544434617
:104370001699EB1A0A1C9C4662441B930C92012965
:1043800072DD0C9B01331A1C0C93DB43DB171340CB
:1043900000221592FEE516ABDD7F434608930C9391
:1043A00000230D9413931593FEF7B0FF002D00D05A
:1043B00086E5012584E5C04690A0000840A00008DD
:1043C00058A0000850A0000888A0000894A0000889
:1043D0005CA0000850465946321C02F05FFC0028E1
:1043E00001D0FEF7D0FE1F9DB268736832AF45E67C
:1043F000802212069446179B9946189B6344984660
:104400002D2313936AE5159B0120002B32DD031C3D
:10441000169A944663441A1C0C93DB43DB17134033
:10442000B8E52023149A06259A430C9248E51F9B71
:104430001593002B2BDD002D0FD1079BDB070CD430
:10444000159A131C0C92A5E5239B85E54246302363
:1044500030349370D47022AD89E701352B1C159A46
:10446000D7E7159B0133D6E7079BDB0789D40C9A66
:10447000131C8AE70130C01AC9E70D9B1D1D1B687C
:104480009846002B1ADB4B780D95FEF740FE002D69
:104490000BD1079BDB0708D4012201230C9279E59D
:1044A0002D2342466442537032E7AB1CB3E716AB90
:1044B0002E259C4665445AE71F9C1AE74B7801213C
:1044C00049420D958846FEF722FEC04670B5061C8F
:1044D00002201A4CA5440C1C8989814368468181BD
:1044E000616E1991E189C181E169301C0791616AAE
:1044F00009911AA9009104918021C90002910591A6
:10450000002106916946FEF783FD051E05DB301C80
:10451000694601F0AFF900280CD16B469B895B0618
:1045200003D54023A2891343A381281C8D23DB00DC
:104530009D4470BD01256D42EFE7C04698FBFFFF2B
:1045400038B5324B051C18680C1C002802D0836B50
:10455000002B3BD0A08983B21A070DD52169002911
:1045600016D0DA0722D50023A360636900205B42DE
:10457000A361002922D038BDDA063ED55B0728D4D6
:1045800021690822031C1343A3819BB20029E8D1AF
:10459000A022802092001A4080008242E1D0211C9B
:1045A000281C01F067FBA3892169DAE700229B0739
:1045B00000D46269A26000200029DCD1A3891A0618
:1045C000D9D540221343A3810138D4E701F0E8F99B
:1045D000C0E7216B002909D0231C4033994203D046
:1045E000281C01F039FAA08900232363242398436F
:1045F0000023216963602160C3E709232B60402306
:1046000003430120A3814042B5E7C0465004002087
:10461000F0B54D4644465F465646F0B403690C6912
:1046200085B000259C4200DD95E00B1C1422013C66
:104630001433A6009F1902939446031C63449846C2
:104640003B68464403910190591C3068FEF73CFCDE
:10465000B346051E45D0029B002699460020231C28
:10466000BC46041C2F1C4846351C9946464604C8C7
:104670001104090C7943120C7A4369180B0C9A182F
:10468000336809041B041B0C1C19090C631A3168DC
:10469000150C1204090C120C8A1A191452181B0456
:1046A00014141B0C1204134308C68445DFD25B4666
:1046B0001B683D1C4C466746002B12D15E46043EEB
:1046C000B0450CD23368002B09D1434602E0326872
:1046D000002A03D1043E013CB342F8D39846019B23
:1046E0001C610198039902F0EBF8002833DB029B70
:1046F00000209C466646A4463C1C47460135396866
:1047000004CE0B041B0C181813041B0CC31A090C41
:10471000120C18148A1A12181B0410141B0C120401
:10472000134308C7B442EAD26446A30043441A685C
:10473000002A10D1043B98450BD21A68002A08D1F0
:10474000424602E01968002903D1043B013C9A4229
:10475000F8D3019B1C61281C05B03CBC90469946CF
:10476000A246AB46F0BDC046F0B556465F464D4644
:104770004446F0B4016C99B082461D1C161C1F1CE7
:10478000002909D00123426C93404A608B6001F0FC
:104790007FFE002352461364B846002F32DB00230D
:1047A000259A13604246D84B1A409A4218D0301CC2
:1047B000391C0022002303F023F900282AD001230A
:1047C000249A1360269B002B00D13FE2CF4818604B
:1047D000013819B03CBC90469946A246AB46F0BDA4
:1047E000CB4B249A1360002E00D10BE2C948269BC4
:1047F000002BEED0C278C31C002A00D00533269AC5
:104800001360E6E70123259A13606B005B08984666
:104810001F1CC7E717AB009316AB019350463B1C18
:10482000321C02F0DFF843468346180D00D1EFE159
:104830003903B94C090B0C43B849321C8846169908
:10484000231C8946002180440991101C191C002258
:10485000B34B04F059FBB34AB34B04F0BBF8B34A73
:10486000B34B03F051F9041C40460D1C04F0FCFE50
:10487000B04AB14B04F0AEF8021C0B1C201C291CE2
:1048800003F042F9041C0D1C04F0B8FE291C03902F
:104890000022201C002303F0B9F8002800D0CBE24E
:1048A00001230C93039B162B11D8A44ADB00D318C9
:1048B00018685968321C3B1C03F0BCF8002801D171
:1048C00000F0F9FB039B013B039300230C9342464A
:1048D0004B469B1A00220692013B049300D5B8E296
:1048E000039B002B00DA9EE2049A9C46111C0D9358
:1048F0000023614404910A93229B092B00D9A7E16C
:104900000124052B02DD0024043B2293229B032B70
:1049100001D100F02EFD01DC00F0ACFC229B042B49
:1049200001D100F03FFC01230B93229B052B01D00A
:1049300000F0A5FC039A239B944663441293013331
:1049400007939846002B01DC00F08BFC079B1D1C95
:1049500098460023524600215364172D0AD901229C
:1049600004335B00181C1430111C01328542F8D24C
:1049700053465964504601F063FD5346186443465C
:1049800008900E2B00D975E1002C00D172E103983C
:1049900010961197031E01DC00F042FD0F226749BB
:1049A0001340DB00CB1806111C685D68F30601D4C8
:1049B00000F0EDFC10981199614B16401A6A5B6A81
:1049C00003F0CAFB032398460E900F91002E14D0DB
:1049D0000123291C9946201C4546594F4B4633421A
:1049E00004D03A687B68013503F0F4FF761008378D
:1049F000002EF3D1A846041C0D1C0E980F99221C02
:104A00002B1C03F0A9FB061C0F1C0C9B002B09D0D0
:104A1000301C391C0022404B02F0F8FF002801D066
:104A200000F0E1FD404604F01FFE321C3B1C03F089
:104A3000D1FF0022434B03F067F8434A0B1C944616
:104A400063440E900F910F93079B002B01D100F050
:104A500065FC039B1493079B13930B9B002B01D1C5
:104A600000F02EFD139B354A013BDB00D3181A687A
:104A70005B680020354903F06FFB0E9A0F9B04F032
:104A800043FA0E900F91391C301C04F0B7FD051C41
:104A900004F0EAFD021C0B1C301C391C04F034FA33
:104AA000061C0F1C089A3035E9B21170541C884658
:104AB0000E980F99151C3B1C321C02F0BBFF0028FE
:104AC00001D000F0CDFD321C3B1C0020124904F047
:104AD0001BFA021C0B1C0E980F9902F0ABFF00286A
:104AE00001D000F002FE139B012B01DC00F089FCD9
:104AF000AC46634499465B4613935346A2460E9CCC
:104B00000F9D159336E0C0460000F07F91A000088D
:104B10000F270000B0A000080000F03F01FCFFFFDD
:104B20000000F83F61436F63A787D23FB3C8608B33
:104B3000288AC63FFB799F501344D33FC8A0000882
:104B4000A0A1000800001C400000C0FC0000E03FE5
:104B5000321C3B1C0020C24904F0D6F9221C2B1C3D
:104B600002F054FF002801D000F093FDCA4501D1A6
:104B700000F043FC201C291C0022BA4B03F02AFF42
:104B80000022B84B041C0D1C301C391C03F022FF02
:104B90000F1C061C04F032FD804604F065FD021C6B
:104BA0000B1C301C391C04F0AFF901239C46434612
:104BB0003033DBB2984601234246E2445B42534421
:104BC0001A709B46221C2B1C061C0F1C02F01EFF99
:104BD0000028BDD0139B54469B46159B9A46149BB8
:104BE00003935046594601F053FC00232370039B66
:104BF000249A01331360269B002B00D137E31C60FD
:104C00000898E6E543461B0300D0EFE59648EEE53D
:104C1000169B9946179B4B441C1E944B9C4200DAF2
:104C200044E24246924B1B1B9A40131C914AA01827
:104C3000321CC240101C184304F052FD8E4D021C61
:104C40004B19611E884601210991FEE58B48C0E59C
:104C50000023524650465364002101F0F1FB5346B5
:104C6000186401230B93002322932393013B0890A4
:104C700007931293179B002B00DAAFE0039A0E2ADA
:104C800000DDABE0D3007E4AD3185C681B68049358
:104C90000594239B002B00DA8FE2341C3D1C301C52
:104CA000391C049E059F321C3B1C03F055FA04F08E
:104CB000A5FC804604F0D8FC321C3B1C03F08AFEA5
:104CC000021C0B1C201C291C454604F01DF9089EE3
:104CD0003035341C3570079D021C0B1C0134012D2E
:104CE0004ED000225F4B03F075FE00220023061C0D
:104CF0000F1C02F085FE002800D072E7089B079A7F
:104D00009D1C9C465B46069353466244AA46049CFF
:104D1000059D914607930FE00022524B03F05AFE87
:104D200001239C4600220023061C0F1CE24402F0D3
:104D300067FE002800D0D9E2221C2B1C301C391C35
:104D400003F00AFA04F05AFC804604F08DFC221CA1
:104D50002B1C03F03FFE021C0B1C301C391C56465A
:104D6000474604F0D1F8013E3037021C0B1CD346F5
:104D70003770CA45D0D1069954468B4607998A4662
:104D8000101C191C02F0C0FE061C0F1C049805998B
:104D9000321C3B1C02F03AFE00280CD10498059905
:104DA000321C3B1C02F02CFE002800D119E74346C0
:104DB000DB0700D415E7651E2B78089906E0A942A9
:104DC00000D15AE3023C23782C1C013D2A1C392BCC
:104DD000F5D01D1C0135EBB2137002E70B9A002AC7
:104DE00050D0229A012A00DC22E2079B5C1E0A9B1B
:104DF000A34200DAC1E21C1B079B002B00DAD5E3BB
:104E0000069B0993079B069A504694469C4462462B
:104E10000692049A012194469C446346049301F04F
:104E2000D3FB814633E0069A039BD21A5B420A9376
:104E3000002306920D935FE5039804F015FC221CF5
:104E40002B1C02F0DDFD43424341039AD31A039326
:104E500026E5049B5B4206930023049340E5C0468D
:104E60000000F03F00002440A4A00008EFFBFFFF7B
:104E70000EFCFFFF12040000000010FE90A00008CE
:104E8000C8A00008069B0A9C099300239946099A2A
:104E9000002A0ED004990B1E0BDD914200DD7FE14C
:104EA000069AD21A0692099AD21A0992049AD31A29
:104EB00004930A9B002B1ADD0B9B002B00D151E2BF
:104EC000002C10DD4946221C504601F035FC81467D
:104ED0005A464946504601F081FB051C594650464A
:104EE00001F0D6FAAB460A9B1A1B00D086E1504669
:104EF000012101F069FB0D9B8046002B15DD414629
:104F00001A1C504601F018FC229B8046012B00DC45
:104F10007AE1002443461B6903339B0043445868ED
:104F200001F006FB2023181A08E0229B0024012B25
:104F300000DCD0E10D9B0120002BEBD1049B9C46B3
:104F40001F236044184000D1AEE001331B1A042B2C
:104F500000DCD1E31C23181A069B9C46844463465C
:104F60000693099B9C46844463460993049B9C4694
:104F7000844463460493069B002B05DD5946504646
:104F80001A1C01F037FC8346049B002B05DD4146CB
:104F900050461A1C01F02EFC80460C9B002B00D0C2
:104FA0008DE0079B002B00DC7AE10B9B002B00D1EE
:104FB000A3E0099B002B05DD494650461A1C01F071
:104FC00019FC81464B460B93002C00D05FE2079CF6
:104FD000089A013C231C94466344099343460124E8
:104FE00006930B9B34404D465E4690469946D34609
:104FF0000794069F301C391CFFF70AFB031C0A901C
:105000003033291C301C049301F05AFC391C041C59
:105010004A46584601F070FCC368071C002B00D0BC
:1050200017E1301C391C01F04BFC82465846391CF4
:1050300001F02EFA5346229A134303D1079B002B0B
:1050400000D111E3002C00DAA9E1229B1C4303D11B
:10505000079B002B00D1A2E15346002B00DD8AE222
:105060006A464346127C5F1C1A70099B3C1C98459B
:1050700000D192E2311C0A220023584601F012FAB4
:10508000291C061C0A22584600234D4500D1DAE0AF
:1050900001F008FA4946051C0A225846002301F08F
:1050A00001FAB8468146A4E71C2055E7301CD64BD0
:1050B0001B1B9840C0E500230C93FFF708FC5846E3
:1050C000414601F0FDFB002800DB6AE7039B5946DF
:1050D000013B0393504600230A2201F0E3F90B9BA6
:1050E0008346002B00D0E7E2129B002B04DC229BBE
:1050F000022B00DDF2E2129B0793089B4746002437
:10510000079E5D46984606E0291C50460A22002369
:1051100001F0C8F9051C281C391CFFF779FA434631
:10512000303018550134B442EEDB079C061CAB4608
:10513000B846002C00DC3FE2089B00279C466444F4
:1051400059465046012201F055FB4146834601F085
:10515000B7FB002800DC45E1651E2B78089A06E0C5
:10516000AA4200D1BBE0023C23782C1C013D392B24
:10517000F6D001332B705046414601F089F94B4679
:10518000002B00D12DE5002F05D04F4503D0504610
:10519000391C01F07DF95046494601F079F920E5C6
:1051A000131C7DE601230B93239B002B54DD1D1C58
:1051B000984612930793FFF7CCFB079B002B00DD6B
:1051C0006BE500D0CAE00498059900228F4B03F0EC
:1051D00001FC3B1C321C02F037FC00239846994628
:1051E000002870D0239B089CDB4303935046414624
:1051F00001F04EF94B46002BCDD1F2E45946504612
:1052000001F09AFA834672E6002E00D081E63B0355
:105210000024002B00D08DE67D4B3B4200D189E677
:10522000069B013401330693049B0133049381E60A
:10523000099A002A00D1C1E1764A0A9C9446069A4E
:1052400063440992DFE501F02DF9B846051C81465B
:10525000CFE601239A46E9E6012398461293079385
:1052600023930023524600215364FFF783FB0898E1
:10527000FFF7AFFA00230B93229B022B94D000245C
:10528000534650465C64211C01F0DAF8534618641A
:1052900001230B93023B0890239407931293E9E4B4
:1052A000229B022B00DC80E6079B002B9AD1414613
:1052B0005046052201F0F6F880465846414601F076
:1052C000FFFA00288EDD3123089A1370039B541CCB
:1052D000013303938AE7002E00D02BE697E7039B68
:1052E000089A013303933123137044E7069B5C460D
:1052F0009B46079B9A4674E4404604F0B5F9321C7D
:105300003B1C03F067FB0022434B02F0FDFB434ACA
:105310000B1C944663440E900F910F93301C391C64
:1053200000223A4B03F0F0FD0E9E0F9F321C3B1CF7
:10533000041C0D1C02F07EFB002800D0BCE0201CE9
:10534000291C0E9C0F9D221C2C1C80252D06AC4672
:105350006444231C02F05AFB002852D000239846D4
:1053600099463FE7594650460A9A01F0E5F98346C7
:10537000BDE500230B93FFF7DDFA0A9B0A94E21ABE
:105380000D9B00249C46944463460D9334E5109A8B
:10539000119B0E920F9302239846FFF717FB4B4683
:1053A00052460B93DA46069BB346049EA946371C29
:1053B00045469846002A0FDD59465046012201F025
:1053C00019FA4146834601F07BFA002800DC6CE1C3
:1053D000392E00D1FFE0771C0B9B2F706C1C4F46C1
:1053E0009946C8E6002803D1F30701D5B4E61C1C92
:1053F000631E1A78302AFAD0BDE6139B9B46159B94
:105400009A46109E119F35E4EEFBFFFF000014400A
:105410000000F07F3304000000001C400000C0FCCE
:10542000039B5C42002C00D1CFE0109811990F2310
:10543000B44A2340DB00D3181A685B6803F0CAFA49
:105440002411061C0F1C002C00D14AE102239846AF
:10545000013B99464746AC4D4B46234204D02A684F
:105460006B68013703F0B6FA64100835002CF3D1ED
:10547000B846061C0F1CFFF7C8FA039B089A0133B5
:1054800003933023137001331370FFF7AAFB59689D
:10549000504600F0D5FF4B464946041C1B690C31B1
:1054A0009A1C92000C3000F043FF5046211C012250
:1054B00001F0A0F90B908AE500239846994602E78F
:1054C000139B904A591ECB00D31815911868596840
:1054D0000E9A0F9B03F07EFA0E900F91391C301C30
:1054E00004F08CF8051C04F0BFF8021C0B1C301CE7
:1054F000391C03F009FD139B0F1C08991A1C8C46DC
:1055000030356244061C4C1C0D709146012B1ED098
:10551000A046301C391C00227C4B03F05BFA0F1CA8
:10552000061C04F06BF8051C04F09EF83035021CD4
:105530000B1C301C391C03F0E7FC257001344C4572
:10554000E9D1159B44469C46061C0F1C644400226E
:105550000E980F996E4B02F0D7FA321C3B1C02F0EA
:1055600055FA00286AD0651E2B7808999846149B36
:10557000039343462AE44B46DA460B93B346069B15
:10558000049EA94645469846392E24D001362E70F1
:105590000B9B4F466C1C9946EDE54B46069ADA4646
:1055A0009046B3462F1C049E9946C9E5069B079A70
:1055B0009B1A0993002326E40124BDE53623169A9D
:1055C0000A9C9B1A069A09921DE40223109E119FC1
:1055D0009846FFF71AFA0B9B4F46994639236C1CE5
:1055E0002B70089AC3E5079B002B00D184E6129C20
:1055F000002C00DC05E7039B0022013B1493301CC8
:10560000424B391C03F0E6F9061C404601300F1CE2
:1056100004F02AF8021C0B1C301C391C03F0DAF9C8
:1056200000223C4B02F070FA3B4A0B1C9446634448
:105630000E900F9113940F93FFF70FFA0E9A0F9B92
:105640000020334903F060FC321C3B1C02F0F2F9ED
:10565000002801D1D5E61C1C631E1A78302AFAD026
:10566000149B0393FFF7BDFA4B46DA460B93B34600
:10567000069B049EA94645469846392EABD0002C81
:1056800001DD0A9E31362E700B9B4F466C1C9946ED
:1056900071E5159B54469A46139B5D469B46149BA9
:1056A000089903934346FFF791FB002800D093E647
:1056B000F30700D490E68BE64946002350460A22C1
:1056C00000F0F0FE129B8146002B01DD079370E491
:1056D000229B022B02DC129B07936AE4129B079326
:1056E000E2E502239846FFF790F9149B089903938B
:1056F0000D1C4346FFF76AFB042B00D13BE43C231F
:10570000181A29E4C8A00008A0A10008000024403D
:105710000000E03F00001C400000C0FCF0B5474620
:1057200080B48B8980469AB20C1C11073DD480222C
:10573000120113436268A381002A62DDA56A002D6D
:105740002FD042464146166800229BB20A60DA0416
:105750005BD5226D5B0706D56368D21A236B002BDD
:1057600001D0E36BD21A00234046E169A847431CED
:1057700056D0A2893E4B1340002262602269A38169
:105780002260DB043BD44346216B1E60002908D015
:10579000231C4033994202D0404600F05DF90023BB
:1057A0002363002004BC9046F0BD2669002EF8D08B
:1057B000236826609D1B0023920700D16369A360C4
:1057C000002D04DCEDE736182D1A002DE9DD4046EA
:1057D000E169321C2B1C676AB8470028F3DC4023C0
:1057E0000120A28940421343A381DBE7A189204A1B
:1057F000636023690A40A2812360D304C3D5206576
:10580000C1E7E26B002A99DCCBE700224046E16960
:105810000123A847021C431C18D0A389A56A99E755
:1058200043461B68002BE1D01D2B06D0162B04D05D
:105830004023A2891343A381B4E7A2890C4B1340F0
:10584000A38100236360236923609CE743461B68B0
:10585000002BE2D01D2B06D0162B04D04023A189AB
:105860000B43A3819EE7434600201E609AE7C04693
:10587000FFF7FFFF38B5041C0D1C002802D0836B16
:10588000002B09D00C22AB5E0020002B03D0201C83
:10589000291CFFF743FF38BD00F082F8F2E7C0464D
:1058A00008B5024900F0B0F908BDC0465D6D0008BA
:1058B000F8B55F4656464D464446344BF0B4C36394
:1058C000B823002403229B00C45004334568C2500F
:1058D0000833C218043BC250061C0423281C2C6049
:1058E0006C60AC60AB816C66EC812C616C61AC610E
:1058F000002108225C3000F059FD254B254F9A46C7
:105900002B62254BEF6299466B62244BED61AB62D3
:10591000B56898460923281CAB81083B2C606C6055
:10592000AC606C66EB812C616C61AC61002108227B
:105930005C309B4600F03AFD53462B624B466B624F
:105940004346EF62AB62ED61F5681223281CAB8120
:10595000103BEB812C606C60AC606C662C616C6100
:10596000AC61002108225C3000F020FD53462B6220
:105970004B466B624346AB625B46EF62ED61B363DD
:105980003CBC90469946A246AB46F8BDA1580008DB
:10599000216B0008AD6B0008496B0008816B0008A3
:1059A00008B5836B002B01D1FFF782FF08BDC0460D
:1059B0007047C0467047C046F8B50C1C061C00F086
:1059C0003BFD204FBB685D6803239D431E4B2C1B92
:1059D0009C466444240B1D4B013C24039C4207DD80
:1059E000301C002101F08AF8BB685B19984204D092
:1059F000301C00F023FD0020F8BD6142301C01F096
:105A00007DF8431C0DD001232D1BBA681D43104B9C
:105A100055601A68301C141B1C6000F00FFD01203B
:105A2000EAE7301C002101F069F8BB68C21A0F2AAE
:105A3000DEDD08490968401A0549086001210A436A
:105A40005A60D5E7B0040020EF0F0000FF0F000000
:105A5000E8080020BC080020F0B5474680B40029C3
:105A600049D00C1C051C00F0E7FC211C08394F68CC
:105A700001233C1C9C430A19506898460233984302
:105A8000031C5B488668964252D0464653603E42AD
:105A90000BD10826B4460F688444C91BE4198F68EB
:105AA00067455ED0CE68FE60B7600127D61876687D
:105AB0003E4208D1E4184F4E9368B34200D173E0E0
:105AC000D268DA6093604C4B27434F600C519C4284
:105AD00014D8E408FF3BA210FF3B93404268E40067
